:020000040002F8
:106000000000042085880300AD880300AF880300EA
:10601000B1880300B3880300B588030000000000C6
:10602000000000000000000000000000B78803002E
:10603000B988030000000000BB880300BD8803008E
:10604000BF880300BF880300BF88030011870300D7
:1060500025870300BF880300C17C0300BF880300BD
:106060003D850300458503004D850300BF8803007F
:10607000BF880300BF880300BF880300BF880300F8
:10608000BF880300BF880300BF880300BF880300E8
:10609000BF880300BF880300BF880300BF880300D8
:1060A000BF880300BF880300558503005D8503009A
:1060B000BF880300BF88030000000000000000004C
:1060C000BF880300BF880300BF880300398703002F
:1060D000BF880300BF880300BF880300BF88030098
:1060E000BF880300BF880300BF88030000000000D2
:1060F00000000000BF880300000000004D8703007F
:10610000000000000000000000000000000000008F
:10611000000000000000000000000000000000007F
:10612000000000000000000000000000000000006F
:10613000000000000000000000000000000000005F
:10614000000000000000000000000000000000004F
:10615000000000000000000000000000000000003F
:10616000000000000000000000000000000000002F
:10617000000000000000000000000000000000001F
:10618000000000000000000000000000000000000F
:1061900000000000000000000000000000000000FF
:1061A00000000000000000000000000000000000EF
:1061B00000000000000000000000000000000000DF
:1061C00000000000000000000000000000000000CF
:1061D00000000000000000000000000000000000BF
:1061E00000000000000000000000000000000000AF
:1061F000000000000000000000000000000000009F
:106200002DE9F04F0378202B83B00446894603D153
:1062100014F8013F202BFBD02B2B08BF013494F83E
:1062200000E0BEF12D0F00F086809FED577BBEF1A0
:10623000300F8DED007B00F08A80BEF1000F00F082
:106240009D80002600274FF0000ADFF84CB14FF088
:1062500000081CE015F096F806460F46284615F093
:106260002BF832463B4614F0DBFE524606460F46FC
:106270005B46DDE90001B8F1000F03D015F0ACF981
:10628000CDE9000114F801EFBEF1000F14D0AEF11A
:106290003005092D52465B4630463946DAD9B8F109
:1062A000000F18D1BEF12E0F15D114F801EF4FF0E9
:1062B0000108BEF1000FEAD132463B46DDE900019C
:1062C00015F060F806460F46C9F8004030463946DA
:1062D00003B0BDE8F08F0EF0DF0EBEF1450F08D021
:1062E0002378202B03D114F8013F202BFBD0002B67
:1062F00041D1DDE900233046394615F043F82378D3
:1063000006460F46002BDFD04946601C0A2214F0D7
:106310006BFE21490246002015F094FB02460B4615
:106320003046394615F02EF806460F4630463946B7
:1063300003B0BDE8F08F94F801E09FED157BBEF14E
:10634000300F8DED007B04F101047FF476AF6378AC
:1063500043F02003782B7FF474AF10224946204687
:1063600014F042FE14F0A8FFDDE9002315F00AF84E
:1063700006460F46AAE70026084FA7E70026002793
:106380009AE700BFAFF30080000000000000F03F7C
:10639000000000000000F0BF000024400000F87F73
:1063A0002DE9F84F16460023002204460D4615F04D
:1063B0005BFA002840F09D800022002320462946F9
:1063C00015F048FA28B13022002332707370BDE80E
:1063D000F88F2046294613F047F915F083FA7BA37E
:1063E000D3E9002381462946204615F03DFA0028CE
:1063F00000F08680B9F1000FC0F2BE804A4600204E
:106400006F4915F01FFB02460B462046294615F042
:10641000E3F804460D4666A1D1E9000101274FF0DB
:10642000000822462B4614F0ADFF0022654B14F005
:10643000F7FD15F043FB002FCC464FF0FF3AC14665
:106440004FF0000840F38580DFF888E15E4C0122C0
:10645000AEF1700945F6F3254FF02E0BA94208BFA7
:10646000A0424FF0300309D3001B61EB0501A942A4
:1064700008BFA04203F10103F6D2DBB2337050EA49
:10648000010306F1010409D1BA4210DACE4502F146
:1064900001020CD026467EE80245DFE7BA4204BF7F
:1064A00086F801B0B41CCE4502F10102F2D1B8F178
:1064B000000F0DD02246302102F8011BC2F101036A
:1064C00053442344002BF7DC2AEAEA7301331C44CB
:1064D000BCF1010F4CD06523BCF1000F2370C5BF88
:1064E0002B236370611CA11C6046BDE8F84F0CF0C3
:1064F00087BF05F100431D462D23337001365BE74E
:106500002DA3D3E900232046294615F0CBF9002816
:106510007FF470AFB9F10E0F09F101073DDDA9F16C
:106520000E0842460020264915F08CFA02460B461A
:106530002046294615F050F80022224B14F070FD39
:1065400015F0BCFA002FA9F10F0A4FF0010C3FF72C
:106550007BAF334630222E2403F8022B74707FEA7F
:10656000090618D01E4403F8012BB342FBD16BE798
:1065700000232370BDE8F88FC9F100020020104904
:1065800015F060FA02460B462046294614F0FAFE42
:1065900004460D463FE71E4656E7C9F10E020020AD
:1065A0000749C84615F04EFA4FF0010939E700BF18
:1065B0000000901EC4BCD64250EFE2D6E41A4B4411
:1065C000000024400000E03F00407A108DEDB5A0AF
:1065D000F7C6B03EC8C5030070B54FF0FF3006F0F7
:1065E000C3F904466FF07F4006F0BEF90646204628
:1065F00014F052FE00220C4B14F0C4FE0446304648
:106600000D4614F049FE06A3D3E9002314F0E4FF7D
:1066100002460B462046294614F002FD70BD00BF1D
:106620000000E0DFFFFF6F430000F03D00000000CE
:1066300008B50EF0EDF9DFED0C7A07EE100A67EE03
:10664000277A17EE900A14F049FE05A3D3E9002338
:1066500014F0C2FF15F046F908BD00BFAFF300808B
:10666000EA2E4454FB2119400000B443000000000E
:1066700008B50EF0E1F9DFED0C7A07EE100A67EECF
:10668000277A17EE900A14F029FE05A3D3E9002318
:1066900014F0A2FF15F026F908BD00BFAFF300808B
:1066A000EA2E4454FB2119400000B44300000000CE
:1066B000494A21F0004393422DE9704304460D46B8
:1066C0004BDC464A93420E460EDC3FA3D3E900233F
:1066D00014F0A6FC0022424B15F0E4F800284CD040
:1066E00020462946BDE870833E4A93423BDCB3F125
:1066F000804F42DD12F0B2FB2246804689462B468F
:106700002046294614F03EFE0022354B14F088FC4A
:1067100013F0E2FA02460B464046494614F080FC6C
:1067200002460B4600202E4914F056FF424604460E
:106730000D464B464046494614F072FC02460B4655
:106740002046294614F06CFC02F06AF8002EC9DCE1
:1067500001F100431946BDE8708302460B4614F070
:106760005FFCBDE8708312F079FB02F059F818A3C2
:10677000D3E9002314F054FCE8E722462B462046D8
:10678000294614F0FFFD804689462046294612F02E
:1067900065FB002204460D46114B4046494614F065
:1067A0003FFC13F099FA00220D4B14F039FC02461D
:1067B0000B464046494614F00FFF22462B4614F084
:1067C0002FFC00F0C5FAC1E79C7500883CE4377ED9
:1067D000EF39FAFE422EE63FFFFFEF7FFFFF2F3E2D
:1067E0000000F03F0000B0412DE9F84FC44B21F00C
:1067F00000469E4204460D468A460EDDC14B9E422F
:1068000000F3AC8000F0A780BAF1000F40F3EA80FB
:106810009FA1D1E90001BDE8F88FBB4B9E4200F378
:10682000B580A3F1DE739E4240F3A0804FF0FF3BA2
:1068300022462B462046294614F0A4FD02460B466C
:106840008046894614F09EFD93A3D3E900230646B3
:106850000F4614F097FD92A3D3E9002314F0E0FB58
:1068600032463B4614F08EFD8FA3D3E9002314F08B
:10687000D7FB32463B4614F085FD8DA3D3E90023B8
:1068800014F0CEFB32463B4614F07CFD8AA3D3E9DC
:10689000002314F0C5FB32463B4614F073FD88A379
:1068A000D3E9002314F0BCFB42464B4614F06AFDCA
:1068B00085A3D3E90023804689463046394614F043
:1068C00061FD83A3D3E9002314F0A8FB32463B46C5
:1068D00014F058FD80A3D3E9002314F09FFB324647
:1068E0003B4614F04FFD7EA3D3E9002314F096FB42
:1068F00032463B4614F046FD7BA3D3E9002314F057
:106900008DFB32463B4614F03DFDBBF1FF3F024696
:106910000B466CD04046494614F082FB22462B467B
:1069200014F030FD794E7A4B4FEACB0B5E449B441A
:10693000DBE9002314F072FB22462B4614F06EFBB9
:1069400002460B46D6E9000114F068FBBAF1000FCD
:1069500043DBBDE8F88F00283FF456AF22462B46B4
:106960002046294614F05CFBBDE8F88F60A3D3E90C
:10697000002314F055FB0022664B14F093FF00280F
:106980003FF454AF20462946BDE8F88F12F066FA6E
:10699000614B9E4204460D4639DCA3F550239E42CE
:1069A0005EDC02460B4614F03BFB0022594B14F010
:1069B00035FB002206460F464FF08043204629460D
:1069C00014F02EFB02460B463046394614F004FE06
:1069D0004FF0000B04460D462AE701F1004319462B
:1069E000BDE8F88F44A1D1E90001BDE8F88F404629
:1069F000494614F015FB22462B4614F0C3FC024610
:106A00000B462046294614F009FBBDE8F88F434B9E
:106A10009E421ADC0022424B14F000FB0022064684
:106A20000F463F4B2046294614F0ACFC0022394B60
:106A300014F0F6FA02460B463046394614F0CCFD07
:106A40004FF0020B04460D46F2E602460B460020CC
:106A5000344914F0C1FD4FF0030B04460D46E7E640
:106A600000222C4B14F0DAFA002206460F46294B7E
:106A70002046294614F0D4FA02460B4630463946E1
:106A800014F0AAFD4FF0010B04460D46D0E600BFFE
:106A9000182D4454FB21F93F11DA22E33AAD903F1F
:106AA000EB0D76244B7BA93F513DD0A0660DB13F45
:106AB0006E204CC5CD45B73FFF8300922449C23FAD
:106AC0000D5555555555D53F2F6C6A2C44B4A2BF72
:106AD0009AFDDE522DDEAD3F6D9A74AFF2B0B33F3A
:106AE000711623FEC671BC3FC4EB98999999C93FB2
:106AF0009C7500883CE4377E182D4454FB21F9BF77
:106B0000FFFF0F440000F07FFFFFDB3FD8C503000D
:106B1000F8C503000000F03FFFFFF23FFF7F034096
:106B20000000F83F0000F0BF2DE9F843C1F30A5917
:106B3000A9F2FF35132D02460B460C460646884641
:106B4000074622DC002D50DBDFF8F09049FA05F90A
:106B500001EA090E5EEA06061CD036A3D3E900233B
:106B600014F05EFA0022002314F09CFE48B1002CC1
:106B700004DD4FF4801343FA05F5A84428EA09041C
:106B8000002721463846BDE8F883332D06DDB5F5EC
:106B9000806F3DD010461946BDE8F883A9F213492D
:106BA0004FF0FF3E2EFA09F910EA090FF2D021A3A7
:106BB000D3E9002314F034FA0022002314F072FE0B
:106BC0000028DED0002C09DD142D2BD00127C5F1C3
:106BD000340507FA05F5AE1928BFB844444626EA3D
:106BE000090721463846BDE8F88312A3D3E90023FC
:106BF00014F016FA0022002314F054FE0028C0D02E
:106C0000002C0BDB54EA060706D00027084CB8E737
:106C100014F006FABDE8F8833C46B2E700274FF0CF
:106C20000044AEE704F10108D8E700BFAFF30080ED
:106C30000000F03F9C7500883CE4377EFFFF0F00AA
:106C40002DE9F041C1F30A57A7F2FF35132D024693
:106C50000B460C46884606461CDC002D3FDB3A4FAF
:106C60002F41864601EA070C5CEA0E0E17D034A3CA
:106C7000D3E9002314F0D4F90022002314F012FE0B
:106C800020B1002C3FDB28EA0704002621463046CD
:106C9000BDE8F081332D06DDB5F5806F2FD01046AD
:106CA0001946BDE8F081A7F213474FF0FF3E2EFAD8
:106CB00007F73842F3D022A3D3E9002314F0B0F948
:106CC0000022002314F0EEFD0028DFD0002C20DB92
:106CD000444626EA070621463046BDE8F08118A35F
:106CE000D3E9002314F09CF90022002314F0DAFD0C
:106CF0000028CBD0002C17DB00263446C6E714F062
:106D00008FF9BDE8F0814FF4801343FA05F5A844EC
:106D1000B9E7142D10D00123C5F1340503FA05F5A8
:106D2000AE1928BF9844D3E724F00042074B324302
:106D300018BF1C460026A9E704F10108C8E700BFF8
:106D40009C7500883CE4377EFFFF0F000000F0BF19
:106D50002DE9F04FD84B994287B0804689460E46C0
:106D600013DCD64B21F000449C4218DD0022D44BAA
:106D700014F070FD002879D0002200230020D149B2
:106D800014F02AFC07B0BDE8F08FCF4B99422FDDFD
:106D900042464B4614F044F907B0BDE8F08FCB4BA8
:106DA0009C4270DDCA4B1E449E427ED80022C94BD5
:106DB0004046494614F034F94FEA215AAAF2FF3A04
:106DC000BAF1000F04460D460E4640F3DE814246FE
:106DD0004B4614F023F902460B460020BD4914F03F
:106DE0001DF922462B4614F0F7FBCDE902010BE01A
:106DF000B94B9E42DADD9FED9A7B8DED027B4FEA27
:106E0000265A4446AAF2FF3AB44BC6F313069E42F2
:106E100046F07F5500F3E78045F4401520462946AB
:106E20000022AC4B14F0FAF8002204460D46AC4B9D
:106E300014F0A8FA22462B4614F0A4FAA046CDE995
:106E40000401A946CDE90001002E3AD10022002319
:106E50002046294614F0FEFC002800F0CE80BAF14E
:106E6000000F40F074810020002195E742464B4618
:106E70004046314614F0D2F802460B4614F0ACFB03
:106E800007B0BDE8F08F0022964B14F0C9F800223D
:106E9000002314F007FD002800F0CC80924B9C42A8
:106EA00000F3C8804046494676E700228C4B14F038
:106EB00069FA42464B4614F065FACDE900014FF0FD
:106EC000000A00224FF080434046494614F0A8F8DB
:106ED00002460B464046494614F07EFB02460B46EE
:106EE00006460F4614F04EFA5FA3D3E9002304468A
:106EF0000D4614F047FA5EA3D3E9002314F090F88E
:106F000022462B4614F03EFA5BA3D3E9002314F08B
:106F100087F822462B4614F035FA59A3D3E900230B
:106F200014F07EF822462B4614F02CFA56A3D3E92F
:106F3000002314F075F822462B4614F023FA54A3CC
:106F4000D3E9002314F06CF822462B4614F01AFA09
:106F500051A3D3E9002314F063F822462B4614F022
:106F600011FA04460D46BAF1000F00F0BF805046FA
:106F700014F0A2F94AA3D3E9002382468B4614F009
:106F800001FADDE90023CDE904012046294614F089
:106F900047F832463B4614F0F5F943A3D3E9002302
:106FA00004460D465046594614F0ECF9DDE902233B
:106FB00014F036F802460B462046294614F030F805
:106FC00002460B46DDE9000114F028F842464B4624
:106FD00014F024F802460B46DDE9040114F01EF813
:106FE00007B0BDE8F08F45F40015C6F580162046C1
:106FF0002946B6100AF1010A12E72DA3D3E90023AE
:107000002046294614F0BEF902460B4600203149BD
:1070100014F004F8DDE9042314F0B4F906460F4631
:10702000BAF1000F73D102460B462046294613F0F1
:10703000F5FFB1E642464B464046494614F0A2F9F8
:107040000022274B14F09EF902460B464046494663
:1070500013F0E4FF07B0BDE8F08F00BFAFF300808E
:10706000000000000000000044523EDF12F1C23F69
:107070009FC678D0099AC33FDE03CB966446C73FCC
:10708000AF788E1DC571CC3F599322942449D23FCD
:1070900004FA97999999D93F935555555555E53F18
:1070A0000000E0FE422EE63F763C7935EF39EA3DBE
:1070B000555555555555E53F7982DA3FFFFFEF3F6E
:1070C0000000F0BF000050C3FFFFEF7FFFFF1F3E37
:1070D0003C412D400000F03FFFFF3F439DA00600D4
:1070E0000000E03F00005043FFFF8F3CDDE900451A
:1070F00022462B4613F094FF32463B4614F042F9E9
:1071000002460B462046294613F088FF9CE750466E
:1071100014F0D2F823A3D3E9002382468B4614F05F
:1071200031F922A3D3E900238046894650465946C7
:1071300014F028F9DDE9022313F072FF02460B4632
:107140003046394613F06AFF22462B46DCE75046AC
:1071500014F0B2F815A3D3E9002306460F4614F045
:1071600011F9DDE9022313F05BFF0EA3D3E900233D
:1071700004460D463046394614F004F902460B46E3
:107180002046294613F04CFF06E60022044B13F07C
:1071900045FF02460B464046494613F03FFF20E6B6
:1071A0000000F03F0000E0FE422EE63F763C7935DD
:1071B000EF39EA3D0000000008B512F0D5F904A34C
:1071C000D3E9002314F008FA08BD00BFAFF3008034
:1071D000EF39FAFE422EE63F2DE9F043DFF8B480A6
:1071E0008BB004460D4601F0F3F898F900300133F6
:1071F00006460F462BD022462B462046294614F041
:107200005BFB814618BB2046294611F027FE1FA3D1
:10721000D3E9002314F046FBC8B1194A98F90030AD
:10722000CDF820900321CDE90445CDE902458DE854
:1072300006008BB9134B4FF06042CDE90623684638
:1072400013F0EEFC70B1089B9BB9DDE90667304690
:1072500039460BB0BDE8F0830B490020022BCDE985
:107260000601ECD113F068FE22230360089B002B7B
:10727000EBD013F061FE089B0360E6E7AFF30080FC
:1072800024D60300FFFFEF470000F07F7DF8B98FA1
:10729000CE338640EA8100202DE9F043DFF8E48018
:1072A0008BB004460D4601F043F998F900300133E4
:1072B00006460F4633D02046294613F0ABFC70B388
:1072C0002CA3D3E900232046294614F0EBFA81468B
:1072D00050BB2AA3D3E900232046294614F0C4FA60
:1072E000E8B198F90030204ACDF820900026002718
:1072F0000421022BCDE90445CDE90245CDE906671D
:107300008DE8060029D0684613F08AFC28B3089B54
:107310001BB113F011FE089B0360DDE906673046E0
:1073200039460BB0BDE8F0830F4A98F9003001925E
:1073300003210022CDE90445CDE9024500910892E0
:107340002BB90A4B4FF06042CDE90623DBE7084931
:107350000020022BCDE90601D5D113F0EDFD22234B
:107360000360D4E7AFF300802CD60300FFFFEF47A4
:107370000000F07FEF39FAFE422E864051302DD5C5
:10738000104987C0EA8100202DE9F04FDFF80C9307
:107390008DB006460F4614461D4601F0C5FC99F90E
:1073A0000080B8F1FF3FCDE9000136D022462B46E0
:1073B0002046294614F080FA834670BB32463B468D
:1073C0003046394614F078FA8246002840F0A28010
:1073D000304639460022002314F03CFA10B3002254
:1073E00000232046294614F035FA834600286AD047
:1073F0009FEDA17B0122A44BCDF828A00292CDE9FC
:107400000467CDE906458DED087B0393B8F1000FC5
:1074100045D09FED9B7B8DED007BDDE900010DB03C
:10742000BDE8F08FDDE9000113F0F4FB8046002891
:1074300000F08D804FF0000A4FF0000BDDE90001F5
:1074400052465B4614F006FA0028E6D0304639462C
:1074500013F0E0FB0028E0D02046294613F0DAFBC9
:107460000028DAD099F90030874A039204210022DB
:10747000022BCDE90467CDE90645CDE908AB0291C1
:107480000A9203D002A813F0CBFB68B913F054FDA5
:107490002223036008E09FED787B8DED087B02A836
:1074A00013F0BEFB002830D00A9B1BB113F044FD43
:1074B0000A9B03609DED087B8DED007BDDE90001FB
:1074C0000DB0BDE8F08F2046294613F0A3FB00283D
:1074D000A3D0002200232046294614F0C5F9002835
:1074E0009BD099F90030684ACDF828B00121CDE948
:1074F0000467CDE9064502910392002BCBD0634986
:107500000020022BCDE90801C9D113F015FD21237C
:107510000360C9E7002200232046294614F09AF9A7
:1075200000283FF47AAF5A4B5749CDF828B00022D3
:107530000120B8F1020FCDE904670290CDE90645BC
:10754000CDE908230391AAD1CDE9002365E73046B0
:10755000394613F05FFB00283FF46CAF2046294604
:1075600013F058FB00283FF465AFDDE90023104617
:10757000194614F0A1F900285FD1032399F900807E
:107580000293414B0A90CDE90467CDE90645039388
:10759000B8F1000F2BD1DFF808B14FF0604A00229C
:1075A000002330463946CDE908AB14F05DF90028D8
:1075B0003FF468AF0022374B2046294613F0E2FE25
:1075C00004460D4613F034FB02460B46204629467E
:1075D00014F040F970BB304B99F900804FF06042D5
:1075E000CDE90823B8F1020F7FF44CAF4EE7DFF886
:1075F000B4B04FF0000A0022002330463946CDE9EE
:1076000008AB14F031F90028ECD00022214B2046C1
:10761000294613F0B7FE04460D4613F009FB024657
:107620000B462046294614F015F918B9174B0022CD
:10763000CDE9082399F90080D4E799F90090124B1D
:10764000CDF828800122CDE90467CDE906450292F4
:107650000393B9F1000F3FF41EAF00220023104640
:10766000194613F0B9FFB9F1020FCDE908013FF453
:107670004CAF14E7AFF300800000000000000000F2
:10768000000000000000F03F44D603000000F0FFBF
:107690000000F03F0000E03FFFFFEFC7EA8100205D
:1076A000FFFFEF470000F07F2DE9F84FC44E21F0B7
:1076B0000043B34204460D460DDD03F1404303F59C
:1076C0008013034340F0B980002940F3408100203B
:1076D0000021BDE8F88FBB4EB34240F3A6800029DD
:1076E000C0F2788102460B460020B74913F096FCA1
:1076F0000022B64B13F046FE04460D4612F0ECFA9B
:1077000095A3D3E90023894680462946204613F0F5
:1077100039FE93A3D3E9002313F082FC22462B46C3
:1077200013F030FE90A3D3E9002313F077FC224638
:107730002B4613F027FE8EA3D3E9002313F070FC31
:1077400022462B4613F01EFE8BA3D3E9002313F031
:1077500065FC22462B4613F015FE89A3D3E90023CE
:1077600013F05EFC22462B4613F00CFE86A3D3E9F1
:10777000002382468B462046294613F003FE84A34D
:10778000D3E9002313F04AFC22462B4613F0FAFDFE
:1077900081A3D3E9002313F043FC22462B4613F0C8
:1077A000F1FD7FA3D3E9002313F038FC22462B46DA
:1077B00013F0E8FD0022844B13F032FC02460B4626
:1077C0005046594613F008FF42464B4613F0DAFD87
:1077D000002682468B4632464B463046494613F0D9
:1077E000D1FD02460B462046294613F017FC3246CF
:1077F00004460D464B464046494613F011FC0246EE
:107800000B462046294613F0E7FE02460B4650463B
:10781000594613F005FC32464B4613F001FC024674
:107820000B4613F0FDFBBDE8F88F694A93420EDC6E
:107830005DA1D1E90001BDE8F88F02460B4613F0C7
:10784000EDFB02460B4613F0C7FEBDE8F88F02467B
:107850000B4613F097FD40A3D3E9002306460F46DD
:1078600013F090FD3EA3D3E9002313F0D9FB324679
:107870003B4613F087FD3CA3D3E9002313F0CEFB76
:1078800032463B4613F07EFD39A3D3E9002313F0C3
:10789000C7FB32463B4613F075FD37A3D3E90023FF
:1078A00013F0BCFB32463B4613F06CFD34A3D3E926
:1078B000002313F0B5FB32463B4613F063FD32A3C1
:1078C000D3E90023804689463046394613F05AFDF5
:1078D0002FA3D3E9002313F0A1FB32463B4613F05C
:1078E00051FD2DA3D3E9002313F09AFB32463B460A
:1078F00013F048FD2AA3D3E9002313F08FFB32468F
:107900003B4613F03FFD00222F4B13F089FB02464C
:107910000B464046494613F05FFE22462B4613F0C5
:1079200031FD02460B4622A1D1E9000113F076FB9E
:1079300002460B462046294613F070FB02460B46D2
:1079400019A1D1E9000113F069FBBDE8F88F1AA174
:10795000D1E90001BDE8F88F09F7FD0DE13D023FD7
:1079600088B20175E0EF493F3B8F68B52882A43F9C
:107970005544880E55C1C93F7D6FEB0312D6D43FE5
:10798000555555555555C53F82922EB1C5B8B33F93
:1079900059018D1B6C06E63FC88A599CE52A0040B8
:1079A0004B2D8A1C273A0340182D4454FB21F93FE4
:1079B000075C143326A6913C182D4454FB21094042
:1079C000FFFFEF3FFFFFDF3F0000F03F0000E03F21
:1079D0000000603C00225C4B13F022FB00225B4B5A
:1079E00013F0D0FC40A3D3E9002304460D4613F066
:1079F000C9FC3FA3D3E9002313F012FB22462B4618
:107A000013F0C0FC3CA3D3E9002313F007FB22468C
:107A10002B4613F0B7FC3AA3D3E9002313F000FB85
:107A200022462B4613F0AEFC37A3D3E9002313F014
:107A3000F5FA22462B4613F0A5FC35A3D3E9002323
:107A400013F0EEFA22462B4613F09CFC8046894642
:107A50002046294612F040F92FA3D3E90023064619
:107A60000F462046294613F08DFC2DA3D3E90023B1
:107A700013F0D4FA22462B4613F084FC2AA3D3E950
:107A8000002313F0CDFA22462B4613F07BFC28A3EB
:107A9000D3E9002313F0C2FA22462B4613F072FCFE
:107AA0000022294B13F0BCFA02460B4640464946D9
:107AB00013F092FD32463B4613F064FC1EA3D3E95B
:107AC000002313F0ABFA32463B4613F0A9FA024604
:107AD0000B4613F0A5FA02460B4619A1D1E90001A5
:107AE00013F09CFABDE8F88F09F7FD0DE13D023F68
:107AF00088B20175E0EF493F3B8F68B52882A43F0B
:107B00005544880E55C1C93F7D6FEB0312D6D43F53
:107B1000555555555555C53F82922EB1C5B8B33F01
:107B200059018D1B6C06E63FC88A599CE52A004026
:107B30004B2D8A1C273A0340075C143326A6913C40
:107B4000182D4454FB2109400000F03F0000E03FA5
:107B5000434A91422DE9F84304460D4639DD414A36
:107B6000914209DD02F17952914240DD02460B4615
:107B700013F056FABDE8F88301F1404202F5801295
:107B8000024330D0B1F1804F3ADC0022364B13F083
:107B900045FA02460B4604460D4613F041FA2246CA
:107BA00006460F462B462046294613F0EBFB0246BD
:107BB0000B463046394613F033FA12F08DF80B4677
:107BC00002462946204613F02BFABDE8F843FFF79A
:107BD000BFB802460B4613F021FA02460B4613F0DB
:107BE000FBFCBDE8F88300200021BDE8F88300F02D
:107BF00017FE19A3D3E9002313F012FABDE8F883A6
:107C000002460B4613F0BEFB0022174B13F006FA98
:107C100012F062F82246804689462B4620462946C5
:107C200013F0FEF9424606460F464B4620462946CB
:107C300013F0F6F902460B4600200B4913F0CCFC7A
:107C40000B4602463946304613F0E8F9BDE8F843E2
:107C500000F0E6BDAFF30080EF39FAFE422EE63FBA
:107C6000FFFFEF3FFFFFAF410000F03F00000000CB
:107C70002DE9F047BE4B21F00048984584B00446FA
:107C80000D4612DD08F1404808F58018034658EA11
:107C9000030321D002460B4613F0C0F902460B46FF
:107CA00013F09AFC04B0BDE8F087B24B98458A46C1
:107CB00029DCB8F1795F80F2658191A3D3E90023D3
:107CC00013F0AEF90022AC4B13F0ECFDD8B1204616
:107CD000294604B0BDE8F0878BA3D3E9002313F055
:107CE00051FB8BA3D3E9002306460F4620462946C5
:107CF00013F048FB02460B463046394613F090F924
:107D000004B0BDE8F0872046294611F0A7F80246E6
:107D10000B460020984913F081F90022974B13F08D
:107D200031FB7DA3D3E9002304460D4613F02AFB63
:107D30007BA3D3E9002313F073F922462B4613F0FB
:107D400021FB79A3D3E9002313F068F922462B46DF
:107D500013F018FB76A3D3E9002313F061F9224650
:107D60002B4613F00FFB74A3D3E9002313F056F94D
:107D700022462B4613F006FB71A3D3E9002313F030
:107D80004FF922462B4613F0FDFA6FA3D3E90023E7
:107D9000CDE900012046294613F0F4FA6CA3D3E99B
:107DA000002313F03BF922462B4613F0EBFA6AA3AB
:107DB000D3E9002313F034F922462B4613F0E2FAFC
:107DC00067A3D3E9002313F029F922462B4613F0C9
:107DD000D9FA694B002213F023F9CDE902012046BC
:107DE000294611F079FF664B984506460F4666DC3A
:107DF000DDE90223DDE9000113F0EEFB3246CDE9B7
:107E000000013B463046394613F00AF902460B465C
:107E1000DDE9000113F0B6FA4FF00008CDE90001EA
:107E200042463B464046394613F0ACFA02460B4602
:107E30002046294613F0F2F8424604460D463B46DA
:107E40003046394613F0ECF802460B4620462946E8
:107E500013F0C2FB02460B4613F0E2F802460B4653
:107E60002BA1D1E9000113F0D9F802460B46DDE958
:107E7000000113F0D3F8424604460D463B46404607
:107E8000394613F0CDF802460B4637A1D1E900017F
:107E900013F0C4F802460B462046294613F0BEF8FC
:107EA00002460B4630A1D1E9000113F0B7F8BAF150
:107EB000000F3FF7F7AE01F100431946F2E6DDE9A6
:107EC0000223DDE9000113F087FB32463B4613F045
:107ED00059FA32463B4613F0A3F802460B4613F01C
:107EE0009FF80BA3D3E9002313F098F802460B4642
:107EF00005A1D1E9000113F091F8D8E7AFF30080B4
:107F00009C7500883CE4377E182D4454FB21F93FD2
:107F1000075C143326A6913C09F7FD0DE13D023FB5
:107F200088B20175E0EF493F3B8F68B52882A43FD6
:107F30005544880E55C1C93F7D6FEB0312D6D43F1F
:107F4000555555555555C53F82922EB1C5B8B33FCD
:107F500059018D1B6C06E63FC88A599CE52A0040F2
:107F60004B2D8A1C273A0340182D4454FB21E93F2E
:107F7000FFFFEF3FFFFFDF3F0000F03F0000E03F6B
:107F80003233EF3F02460B4613F0FCF937A3D3E937
:107F9000002306460F4613F0F5F936A3D3E9002374
:107FA00013F03EF832463B4613F0ECF933A3D3E925
:107FB000002313F033F832463B4613F0E3F931A3C4
:107FC000D3E9002313F02CF832463B4613F0DAF9DC
:107FD0002EA3D3E9002313F021F832463B4613F0D9
:107FE000D1F92CA3D3E9002313F01AF832463B460B
:107FF00013F0C8F929A3D3E9002380468946304607
:10800000394613F0BFF927A3D3E9002313F006F88C
:1080100032463B4613F0B6F924A3D3E9002312F00D
:10802000FFFF32463B4613F0ADF922A3D3E900230C
:1080300012F0F4FF32463B4613F0A4F900220A4B3B
:1080400012F0EEFF02460B464046494613F0C4FAD2
:1080500022462B4613F096F922462B4612F0E0FFFB
:1080600004B0BDE8F08700BF0000F03F09F7FD0D48
:10807000E13D023F88B20175E0EF493F3B8F68B5B3
:108080002882A43F5544880E55C1C93F7D6FEB033C
:1080900012D6D43F555555555555C53F82922EB1F0
:1080A000C5B8B33F59018D1B6C06E63FC88A599C81
:1080B000E52A00404B2D8A1C273A034000000000AF
:1080C0002DE9F84F1D465342134325F0004ADFF8CF
:1080D000E0E14AEAD3737345144606460F4647D893
:1080E000C0F1000848EA000821F0004343EAD878CC
:1080F000F0458B463CD805F1404808F5801858EA11
:10810000020850D04FEAA57808F0020848EAD17872
:1081100050EA030134D052EA0A023CD0F24557D06B
:10812000734538D0A3EB0A031B153C2B42DC002D12
:1081300070DB22462B463046394613F04DFA10F0DC
:108140008DFEFEF751FBB8F1010F5FD0B8F1020FC1
:108150004ED0B8F1000F62D043A3D3E9002312F050
:108160005DFF43A3D3E9002312F058FFBDE8F88F69
:1081700032463B462046294612F052FFBDE8F88FB2
:10818000B8F1020F1AD0B8F1030F10D13AA1D1E91A
:108190000001BDE8F88FBBF1000F14DB38A1D1E975
:1081A0000001BDE8F88FBDE8F84FFEF71DBB39466A
:1081B000BDE8F88F32A1D1E90001C4E72CA1D1E9D3
:1081C0000001BDE8F88F30A1D1E90001BDE8F88FCA
:1081D000534526D0B8F1020FF0D0B8F1030FD5D037
:1081E000B8F1010F4FF0000029D00021BDE8F88F51
:1081F0001DA3D3E9002312F011FF02460B461CA178
:10820000D1E9000112F00AFFBDE8F88F01F1004149
:10821000BDE8F88F3C338CDA0020002193E7BDE8FD
:10822000F88FB8F1020F18D0B8F1030F10D0B8F1E1
:10823000010F08D016A1D1E90001BDE8F88F4FF079
:108240000041BDE8F88F14A1D1E90001BDE8F88F25
:1082500013A1D1E90001BDE8F88F13A1D1E9000114
:10826000BDE8F88FAFF30080075C143326A6A13C6D
:10827000182D4454FB210940182D4454FB2109C0FA
:10828000182D4454FB21F93F182D4454FB21F9BF0C
:10829000182D4454FB21E93F182D4454FB21E9BF1C
:1082A000D221337F7CD902C0D221337F7CD90240D6
:1082B0000000F07F0000000043422DE9F047034337
:1082C00021F000463E4A46EAD373934204460D46E7
:1082D00013D896423DD03B4B9E428A4617DC36A3CC
:1082E000D3E9002312F09CFE0022002313F0DAFAF7
:1082F000A8B320462946BDE8F08702460B4612F097
:108300008DFE02460B4613F067F9BDE8F0872E4B51
:108310009E42354624DD33460246314612F080FE49
:10832000224606460F462B460020254912F076FECF
:1083300002460B463046394613F04EF9FEF708FD6B
:108340000022224B13F01EF8BAF1000F2FDBBDE81C
:10835000F0870022002313F03FF9BDE8F08735468F
:1083600022462B462046294612F05AFE22462B462C
:1083700006460F4613F006F82246804689462B46ED
:1083800000200F4912F04AFE02460B46404649467D
:1083900013F022F932463B4612F042FEFEF7D8FCBB
:1083A00000220A4B12F0EEFFBAF1000FCFDA01F112
:1083B00000431946BDE8F0879C7500883CE4377E91
:1083C0000000F03FFFFF2F3EFFFFDF3F0000E03FD8
:1083D0002DE9F8434E4B21F000449C4206460F46DF
:1083E0001BDC4C4B9C4222DD4B4B9C4263DD4B4BD8
:1083F0009C427BDD4A4B9C4246DD01339C4240D08F
:1084000041A3D3E900231046194612F0BBFF0646EC
:108410000F4630463946BDE8F88302460B4612F057
:10842000B1FF06460F4630463946BDE8F88310F0E6
:1084300015FD02F0B1FC00223A4B8046894612F04D
:10844000EFFDB4F1725F06460F46ECDB42464B4649
:108450004046494612F096FF32463B4604460D46DA
:108460003046394612F0DCFD02460B4620462946CE
:1084700013F0B2F800222B4B12F0D2FD06460F4645
:10848000D1E7294B9842BBD83046394610F0E6FC7C
:108490000022264B12F076FF00F04AF80022044634
:1084A0000D46224B12F06EFF22462B4612F06AFF59
:1084B00006460F46B7E710F0D1FC00F039F800226D
:1084C0001A4B06460F4612F05DFF32463B46044605
:1084D0000D460020154913F07FF802460B46204652
:1084E000294612F09DFD06460F469CE710F0B6FCAB
:1084F00000F01EF800220D4B12F044FF06460F4616
:1085000091E700BFAFF300809C7500883CE4377EA4
:10851000FFFFEF7F422ED63FFFFF3540412E8640C2
:10852000CD3386400000F03F7DF8B98F0000E03F7A
:108530002DE9F04FB04E21F00042B24283B0044624
:108540000D464FEAD1770DD9AC4EB24225D9C1F3D1
:108550001303034340F0EC800FB10020002103B06F
:10856000BDE8F08FA64B9A4200F2CB80A54B9A4211
:1085700000F2DC808AA3D3E9002312F051FD00222F
:10858000A14B13F08FF9002800F006812046294600
:1085900000229D4B12F044FDE1E783A3D3E90023C1
:1085A00013F080F9002840F0C88081A3D3E90023AC
:1085B0002046294613F058F90028CED1934E7EA3C9
:1085C000D3E9002306EBC7062046294612F0DAFE5F
:1085D000D6E9002312F024FD13F084F9064612F0C8
:1085E0006BFE77A3D3E900238046894612F0CAFECA
:1085F00002460B462046294612F010FD72A3D3E92D
:108600000023CDE900014046494612F0BBFE8246F8
:108610008B4652465B46DDE9000112F0FFFC044642
:108620000D4622462B462046294612F0ABFE68A393
:10863000D3E900238046894612F0A4FE66A3D3E95D
:10864000002312F0EBFC42464B4612F09BFE64A363
:10865000D3E9002312F0E4FC42464B4612F092FEAE
:1086600061A3D3E9002312F0D9FC42464B4612F035
:1086700089FE5FA3D3E9002312F0D2FC42464B46A9
:1086800012F080FE02460B462046294612F0C6FC38
:1086900080468946002E58D02046294642464B4601
:1086A00012F070FE424604460D464B4600204FF045
:1086B000804112F0B3FC02460B462046294612F0D8
:1086C0008BFF02460B465046594612F0A7FCDDE9E7
:1086D000002312F0A3FC0B4602464B49002012F087
:1086E0009DFC6FF47F739E4251DA06F57A7601EBBA
:1086F000065100224FF0B87312F044FE03B0BDE8FB
:10870000F08F434B9A423FF659AF424BFC00234453
:10871000D3E9002312F082FC3F4BC7F1010623444A
:10872000CDE90001D3E900ABF61B72E7002678E73C
:1087300002460B4612F074FC11E719A3D3E900239B
:108740001046194612F01EFE09E702460B46204667
:10875000294612F017FE002206460F464FF08043CE
:108760004046494612F05AFC02460B46304639460E
:1087700012F032FF22462B4612F050FC02460B4606
:108780000020214912F04AFC03B0BDE8F08F01EB54
:10879000065103B0BDE8F08F064642E7AFF3008014
:1087A0009C7500883CE4377EEF39FAFE422E864005
:1087B00051302DD5104987C0FE822B654715F73FF4
:1087C0000000E0FE422EE63F763C7935EF39EA3D87
:1087D000D0A4BE726937663EF16BD2C541BDBB3EC7
:1087E0002CDE25AF6A56113F93BDBE166CC1663FA5
:1087F0003E5555555555C53F412E8640FFFFEF7FED
:10880000422ED63FFFFF2F3E0000F03F18C6030068
:10881000B1A2F03F28C6030038C6030000000000E4
:108820002DE9F04FB1F5801F85B006460F460B4687
:108830005ADA024621F00044224300F0F880002971
:10884000C0F27A810022D64B12F09CFDD54A0B462D
:10885000934206460F466FF0350C4ADCC3F313050E
:1088600005F5152E0EF6647E0EF4801E8EF07F52F6
:1088700082F440121C1542EA0507A4F2FF34644456
:108880000022C94B3046394604EB1E5412F0C6FB99
:10889000AB1CC3F31303022B82468B464FF000023E
:1088A00030DC002312F0D6FF002800F0C980002C35
:1088B00000F04B81204612F0FFFCA5A3D3E9002372
:1088C00006460F4612F05EFDA3A3D3E9002304463B
:1088D0000D463046394612F055FD02460B462046FD
:1088E000294612F09DFB0AE0AE4A93424FF0000C7D
:1088F000B4DD32463B463046394612F091FB05B0B6
:10890000BDE8F08F4FF0804312F08AFB02460B4621
:108910005046594612F060FE064620460F4612F0B9
:10892000CBFC3246CDE900013B4630463946CDE925
:10893000026712F027FD02460B468046894612F078
:1089400021FD87A3D3E9002306460F4612F01AFD46
:1089500085A3D3E9002312F063FB32463B4612F0B5
:1089600011FD83A3D3E9002312F05AFB32463B46A4
:1089700012F008FD80A3D3E9002312F051FB424618
:108980004B4612F0FFFC7EA3D3E9002380468946C4
:108990003046394612F0F6FC7BA3D3E9002312F0EF
:1089A0003FFB32463B4612F0EDFC79A3D3E90023AE
:1089B00012F036FB32463B4612F0E4FC0B46024610
:1089C0004946404612F02CFBA5F5C223C5F5D72534
:1089D000A3F27A4351351D43002D8046894656DD6A
:1089E0000022724B5046594612F0CCFC52465B4670
:1089F00012F0C8FC06460F46002C68D132463B46B2
:108A00004046494612F00CFBDDE9022312F0BAFCA5
:108A100002460B463046394612F000FB02460B4632
:108A20005046594612F0FAFA05B0BDE8F08F002220
:108A3000002300205E4912F0CFFD05B0BDE8F08FA5
:108A400055A3D3E900235046594612F09BFC024639
:108A50000B460020554912F0E1FA524606460F46F1
:108A60005B465046594612F08DFC02460B46304696
:108A7000394612F087FC06460F46002C40F09A80DB
:108A800002460B465046594612F0C8FA37E7002C0A
:108A900000F0A4802EA3D3E90023DDE9000112F049
:108AA00071FC42464B4604460D465046594612F06C
:108AB000B5FADDE9022312F065FC27A3D3E9002310
:108AC00006460F46DDE9000112F05CFC21E020A320
:108AD000D3E90023DDE9000112F054FC32463B46A5
:108AE00004460D464046494612F09AFADDE9022353
:108AF00012F048FC18A3D3E9002380468946DDE93B
:108B0000000112F03FFC02460B464046494612F077
:108B100087FA02460B463046394612F07FFA524633
:108B20005B4612F07BFA02460B462046294612F0BD
:108B300075FA05B0BDE8F08F02460B4612F06EFAEA
:108B40000022002312F048FDD9E600200021D6E6DD
:108B50000000E0FE422EE63F763C7935EF39EA3DF3
:108B600044523EDF12F1C23FDE03CB966446C73F5C
:108B7000599322942449D23F935555555555E53F75
:108B80009FC678D0099AC33FAF788E1DC571CC3F80
:108B900004FA97999999D93F555555555555D53F4B
:108BA00000005043FFFFEF7F0000F03F0000E03F78
:108BB000000050C3204612F07FFB0FA3D3E900232F
:108BC0008046894612F0DEFB0DA3D3E9002304465C
:108BD0000D464046494612F0D5FB9AE702460B4641
:108BE0005046594612F01AFADDE9022312F0CAFB88
:108BF00014E700BFAFF300800000E0FE422EE63F26
:108C0000763C7935EF39EA3DB1F5801F2DE9F8431F
:108C100004460D460B461ADA024621F0004632435E
:108C200059D000295FDB00223B4B12F0ABFB3B4AE3
:108C30000D462B46934204466FF035010CDD22466B
:108C40002B462046294612F0EBF9BDE8F883334A5B
:108C500093424FF00001F2DC1815A0F2FF300844F7
:108C60004FEAD0794844C3F3130812F025FBC9F545
:108C70007F73033348EA035506460F4620462946CC
:108C8000FFF7CEFD1EA3D3E9002380468946304678
:108C9000394612F077FB1CA3D3E9002304460D46A6
:108CA0004046494612F06EFB02460B4620462946D6
:108CB00012F0B6F916A3D3E9002304460D46304658
:108CC000394612F05FFB02460B462046294612F059
:108CD000A7F9BDE8F883002200230020104912F014
:108CE0007BFCBDE8F88302460B4612F097F90022A0
:108CF000002312F071FCBDE8F88300BFAFF30080E1
:108D0000362BF111F3FE593D0EE526157BCBDB3FEB
:108D100000609F501344D33F00005043FFFFEF7F9C
:108D2000000050C3000000002DE9F04F23F0004781
:108D300057EA020493B037D0674C21F00046A642B0
:108D400083460D4629DC9A46964625D0A74224DC68
:108D5000614CA74279D0002D80468946CDE9002399
:108D600077DB0024BEF1000F2CD15B4B9F4200F05B
:108D70008B805A4B9F4261D0BAF1804F00F0C38381
:108D8000574B9A451ED1002D1CDB4046494613B077
:108D9000BDE8F04F10F0A0BF58B106F1404606F50F
:108DA000801656EA0B0306D14C49002013B0BDE8EB
:108DB000F08FB742CCDD4B4813B0BDE8F04F11F057
:108DC00031BF00244046494610F048F8BBF1000F7F
:108DD00019D126B1414B25F040429A4213D1BAF144
:108DE000000FC0F2CA83002DE0DA06F1404606F516
:108DF000801656EA040300F0A584012CD6D101F1B7
:108E000000431946D2E7ED0F013D54EA05034ED069
:108E1000354B9F426EDD03F104739F4240F3FE83A6
:108E2000324B9E424EDDBAF1000F4EDD28A3D3E94E
:108E300000231046194612F0A5FAB7E7BAF1000F61
:108E4000C0F2528440464946B0E7BEF1000F82D0DE
:108E5000A3E7274B9F4228DCA3F154739F4280DD98
:108E60003B15A3F2FF33142B40F35484C3F13403B6
:108E70002EFA03F202FA03F39E457FF472AF02F07A
:108E80000102C2F102046DE706F1404303F58013CD
:108E900053EA0B0388D0154B9E4240F33B83BAF153
:108EA000000F12DBDDE9000180E702245AE74246A9
:108EB0004B461046194612F0B1F802460B4612F026
:108EC0008BFB73E7BAF1000FB0DB002000216DE7E8
:108ED0009C7500883CE4377E0000F07F0000F03F86
:108EE0000000E03F48CD03000000E041FFFFEF3FFE
:108EF000FFFF3F43B6F5801F4FF0000205DAD84B65
:108F000012F040FA6FF034020E463315D54FC6F317
:108F10001306A3F2FF33134446F07F5ABE421A46AB
:108F20000D934AF4401A40F32F83CF4B9E4240F3F7
:108F30000D849FEDB57B8DED087B8DED0E7B9FED58
:108F4000B47B13468DED067B01330D93AAF5801A91
:108F50000027DDE906235146CDE90A0112F05EF84B
:108F6000DDE9062380468946DDE90A0112F058F85A
:108F700002460B460020BD4912F02EFB0A46014670
:108F8000CDE91012134649460246404612F0FAF95E
:108F90004FEA6A0343F000538C46834603F50023EF
:108FA000CDE904BCDA468B46D9190023CDE902ABE2
:108FB0000293DDE902AB002006460F4602460B464F
:108FC0005046594612F0DEF902460B4640464946E5
:108FD00012F024F8DDE906238046894630463946FA
:108FE00012F01CF802460B46DDE90A0112F016F8F1
:108FF00052465B4612F0C6F902460B4640464946C9
:1090000012F00CF8DDE9102312F0BCF9DDE9046779
:10901000CDE9060132463B463046394612F0B2F9F8
:109020007DA3D3E9002306460F4612F0ABF97CA3DB
:10903000D3E9002311F0F4FF32463B4612F0A2F9C7
:1090400079A3D3E9002311F0EBFF32463B4612F03F
:1090500099F977A3D3E9002311F0E2FF32463B46AA
:1090600012F090F974A3D3E9002311F0D9FF32462E
:109070003B4612F087F972A3D3E9002311F0D0FF29
:109080003246804689463B463046394612F07AF9E8
:1090900002460B464046494612F074F952460646CF
:1090A0000F465B46DDE9040111F0BAFFDDE9062356
:1090B00012F068F932463B4611F0B2FF5246804644
:1090C00089465B465046594612F05CF90022684BCF
:1090D000CDE90A0111F0A4FF42464B4611F0A0FF72
:1090E00002980F46064632463B465046594612F015
:1090F00049F9002282468B465D4B3046394611F0D5
:109100008DFFDDE90A2311F089FF02460B46404638
:10911000494611F083FFDDE9042312F033F93246AA
:10912000804689463B46DDE9060112F02BF90246EE
:109130000B464046494611F073FF80468946024679
:109140000B4650465946CDE904AB11F069FFDDE905
:1091500002AB3DA3D3E9002350460F4612F012F9AB
:10916000DDE90423CDE902013946504611F056FFEE
:1091700002460B464046494611F050FF34A3D3E95E
:10918000002312F0FFF834A3D3E900238046894678
:109190005046394612F0F6F802460B46404649461C
:1091A00011F03EFFDDE90E2311F03AFF80460D98E5
:1091B000894612F081F8424606460F464B46DDE9E5
:1091C000020111F02DFFDDE9082311F029FF3246DD
:1091D0003B4611F025FF32463B4650468B4611F088
:1091E0001DFFDDE9082311F019FFDDE9022311F06D
:1091F00015FF02460B464046494611F00FFF8046D8
:10920000894637E0AFF30080000000000000000056
:10921000000000000000F03FEF4E454A287ECA3FA4
:1092200065DBC9934A86CD3F01411DA96074D13FDA
:109230004D268F515555D53FFFAB6FDBB66DDB3FEC
:10924000033333333333E33F000000E009C7EE3F1D
:10925000FD033ADC09C7EE3FF5015B14E02F3EBE8B
:10926000000040438E98030079B60B000000F03FE9
:1092700000000840013C54EA050300F079819FEDAD
:10928000C87B8DED047BDDE900120B461446CDE969
:10929000023400230293DDE9024508462B461146BD
:1092A000224611F0BBFE52465B4612F06BF8DDE938
:1092B000002306460F464046494612F063F8024630
:1092C0000B463046394611F0ABFE224680468946B1
:1092D0002B4650465946CDE9008912F053F80B460B
:1092E000024606460F464046494611F099FEC64BD7
:1092F000994204460D468A4640F3168101F13F43E8
:1093000003F5E003034340F0F781A7A3D3E900236B
:10931000DDE9000111F084FE3246804689463B4675
:109320002046294611F07AFE02460B464046494641
:1093300012F0B8FA002840F0DF81A8464FEA28531F
:109340004FF48012A3F2FE3342FA03F35344C3F303
:109350000A52AE4DA2F2FF321541C3F3130423EAC1
:1093600005010020C2F1140B44F48014BAF1000F7F
:1093700002460B4644FA0BFB30463946B8BFCBF1E8
:10938000000B11F04BFE02460B4606460F46DDE988
:10939000000111F045FE4FEA0B5A0D46002484A34C
:1093A000D3E900232046294611F0ECFF32468046DF
:1093B00089463B462046294611F030FE02460B46C0
:1093C000DDE9000111F02AFE7BA3D3E9002311F0AF
:1093D000D9FF7BA3D3E9002306460F462046294642
:1093E00011F0D0FF02460B463046394611F018FE08
:1093F00006460F4602460B464046494611F010FE0F
:1094000042464B4604460D4611F008FE02460B4606
:109410003046394611F002FE2246804689462B46E8
:109420002046294611F0AEFF67A3D3E90023064684
:109430000F4611F0A7FF66A3D3E9002311F0EEFD5C
:1094400032463B4611F09EFF63A3D3E9002311F09F
:10945000E7FD32463B4611F095FF61A3D3E90023B7
:1094600011F0DCFD32463B4611F08CFF5EA3D3E9E0
:10947000002311F0D5FD32463B4611F083FF024632
:109480000B462046294611F0C9FD06460F46024606
:109490000B462046294611F075FF0022CDE9000158
:1094A0004FF080433046394611F0B8FD02460B4676
:1094B000DDE9000112F090F8424606460F464B46A1
:1094C0002046294611F05EFF42464B4611F0A8FDAA
:1094D00002460B463046394611F0A0FD22462B4687
:1094E00011F09CFD02460B460020494911F096FD03
:1094F0008A44BAF5801FC0F239815146DDE9042360
:1095000011F040FF52E442464B464046494611F0B6
:1095100039FF4BE4BAF1000FBFF6D7ACDDE90034F8
:10952000184604F1004141E43A4B21F000489845C7
:1095300040F3FF80384B0B4403430CD132463B468B
:1095400011F06CFD02460B46DDE9000112F096F9C0
:1095500000283FF4F3AEDDE9040125A3D3E900239D
:1095600011F010FF22A3D3E9002311F00BFF1DE43B
:109570009FED217B8DED047B85E602460B460020A6
:10958000234912F029F82EE49FED1D7B8DED087B19
:109590008DED0E7B9FED027B00278DED067BD8E4E1
:1095A000000000000000F03FFE822B654715973C4D
:1095B00000000000432EE63FEF39FAFE422EE63F60
:1095C000396CA80C615C20BED0A4BE726937663EBF
:1095D000F16BD2C541BDBB3E2CDE25AF6A56113FB3
:1095E00093BDBE166CC1663F3E5555555555C53F9A
:1095F00059F3F8C21F6EA501000000000000F0BF83
:109600000000000000000000FFFF8F40FFFF0F0080
:109610000000F03FFFCB904000346F3F684B9E420C
:109620007FF750AC674B9E423FF7FDAB0022654B86
:1096300011F0F4FC52A3D3E9002306460F4611F0C3
:10964000A1FE51A3D3E9002380468946304639461E
:1096500011F098FE002282468B465B4B304639461D
:1096600011F090FE02460B4649A1D1E9000111F02C
:10967000D5FC32463B4611F085FE02460B460020E3
:10968000524911F0CBFC3246CDE902013B4630464F
:10969000394611F077FE02460B46DDE9020111F072
:1096A00071FE3DA3D3E9002311F06CFE02460B4688
:1096B0005046594611F0B2FC02460B4606460F468C
:1096C0004046494611F0ACFC42464B4600208246DB
:1096D0008B4611F0A3FC02460B463046394611F08A
:1096E0009DFC80468946C5E542464B4600203549EB
:1096F00011F072FFFFF75ABBDDE9040128A3D3E99B
:10970000002311F03FFE26A3D3E9002311F03AFE17
:10971000FFF74CBBBEF1000F7FF453ABC3F1140352
:1097200047FA03F202FA03F39F4223D07446FFF78D
:1097300020BB264B98453FF701AEDDE90223924658
:1097400093462BE602460B46FFF7B3BB9FED167B15
:109750008DED087B9FED167B8DED0E7B9FED167BCF
:109760004FF480278DED067BFFF7F3BB5A4601F0DF
:109770004FFDC3E602F00102C2F10204FFF7F9BA9D
:10978000000000604715F73F44DF5DF80BAE543E24
:10979000555555555555D53FFE822B654715F73F15
:1097A0009C7500883CE4377E0000004003B8E23F2F
:1097B00006D0CF43EBFD4C3E000000000000F83F18
:1097C000FEFFEF3F0000F03F0000D03F0000E03F11
:1097D0002DE9F0479C4B21F000479F4290B0804616
:1097E000894640F38E80994B9F420C46924626DC78
:1097F00000298BA3D3E9002340F3B08111F00EFCC4
:10980000934B9F4204460D4600F0908086A3D3E917
:10981000002311F003FC02460B46CAE90023204650
:10982000294611F0FBFB80A3D3E9002311F0F6FBDE
:109830000125CAE90201284610B0BDE8F087854B32
:109840009F4240F39080844B9F4265DC3D15A5F21A
:109850001645A7EB055319461F46064612F042F877
:1098600011F02AFD8046894642464B46304639462D
:10987000CDE90A8911F0D2FB0022784B11F082FD6C
:109880008946804612F02EF811F016FD06460F4666
:1098900032463B4640464946CDE90C6711F0BEFBD7
:1098A00000226E4B11F06EFD00220023CDE90E0167
:1098B00011F0D0FF002800F06F81002330463946B8
:1098C000002211F0C7FF002814BF01230223644ABD
:1098D000019202212A4600910AA8514600F08CFB11
:1098E000002C054614DADAF80420DAF80C3002F11C
:1098F000004203F100434542CAF80420CAF80C3084
:1099000006E000200021C2E90089C2E90201002529
:10991000284610B0BDE8F08702460B4611F07EFBEA
:109920000025CAE90201CAE90001F1E740A3D3E931
:10993000002311F073FB40A3D3E900230D46044636
:1099400011F06CFB02460B46CAE90023294620466B
:1099500011F064FB38A3D3E9002311F05FFB01256C
:10996000CAE90201D4E70FF079FA35A3D3E900235D
:109970008046894611F006FD00223A4B11F050FB5B
:1099800011F0B0FF054611F097FC25A3D3E90023A1
:10999000CDE9060111F0F6FC02460B464046494669
:1099A00011F03CFB20A3D3E90023CDE90201DDE95E
:1099B000060111F0E7FC1F2D80468946CDE9048998
:1099C00054DC294B6A1E53F822309F424ED0024687
:1099D0000B46DDE9020111F021FB80468946CAE908
:1099E000008942464B46DDE9020111F017FBDDE933
:1099F000042311F013FB002CCAE9020188DA09F1F3
:109A0000004401F100436D42CAF80080CAF80440E6
:109A1000CAF80800CAF80C307AE700BFAFF300803C
:109A200000004054FB21F93F3163621A61B4D03D1C
:109A30000000601A61B4D03D7370032E8A19A33BF5
:109A400083C8C96D305FE43FFB21E93F7BD9024009
:109A5000FB21F93FFB213941FFFFEF7F00007041FF
:109A6000E8D603000000E03F68D60300DDE90423E8
:109A7000DDE9020111F0D2FA3F15C1F30A53FB1AD6
:109A800080468946102BCAE90089AADD58A3D3E98C
:109A90000023DDE9060111F075FC80468946024687
:109AA0000B46DDE9020111F0B9FA02460B46DDE989
:109AB0000201CDE9082311F0B1FA42464B4611F0FC
:109AC000ADFA4DA3D3E9002380468946DDE90601BE
:109AD00011F058FC42464B4611F0A0FA0B46CDE976
:109AE00004010246DDE9080111F098FAC1F30A53B6
:109AF000FF1A80468946312FCAE900896CDD41A3EF
:109B0000D3E90023DDE9060111F03CFCDDE9088919
:109B100006460F4602460B464046494611F07EFA7D
:109B200002460B4640464946CDE9022311F076FA3B
:109B300032463B4611F072FA34A3D3E900230646BD
:109B40000F46DDE9060111F01DFC32463B4611F0DF
:109B500065FA02460B46CDE904233AE711F060FAB4
:109B6000274B9F4204460D4618D01FA3D3E900237C
:109B700011F056FA02460B46CAE900232946204650
:109B800011F04CFA18A3D3E9002311F049FA4FF071
:109B9000FF35CAE90201BBE6032398E614A3D3E923
:109BA000002311F03DFA14A3D3E900230D46044627
:109BB00011F036FA02460B46CAE900232946204630
:109BC00011F02CFA0CA3D3E9002311F029FA4FF07D
:109BD000FF35CAE902019BE69DED087B8DED027B16
:109BE000FFE600BFAFF300803163621A61B4D03D7D
:109BF0000000601A61B4D03D7370032E8A19A33B34
:109C0000FB21F93F0000002E8A19A33BC149202502
:109C10009A837B3900000000594A2DE9F84F21F062
:109C20000048904506460F462BDC564B0029B4BF32
:109C3000554D564D98454FF0000410DC544B984557
:109C400070DC4DA3D3E9002311F0EAF90022514B57
:109C500011F028FED8B130463946BDE8F88F4E4B9A
:109C600098457CDD4D4B984544DD013398453ED009
:109C70003046394640A3D3E9002311F083FBBDE809
:109C8000F88F02460B4611F0CBF9BDE8F88F30464D
:109C900039460FF0E3F801F07FF806460F463246EA
:109CA0003B463046394611F0BBF9324682468B4678
:109CB0003B463046394611F065FB00228046894616
:109CC000344B3046394611F0ABF902460B4640465C
:109CD000494611F081FC02460B465046594611F0A8
:109CE0009DF922462B4611F04DFBBDE8F88F2C4B19
:109CF0009842BDD8304639460FF0B0F80022234BC9
:109D000011F040FBFEF714FC06460F4602460B46D8
:109D10002046294611F036FB32463B4611F032FB15
:109D2000BDE8F88F0FF09AF801F036F81D4B984512
:109D300006460F46B3DD0022164B11F071F90246BC
:109D40000B463046394611F047FC32463B4611F08F
:109D500067F922462B4611F015FBBDE8F88F0FF08E
:109D60007DF8FEF7E5FB02460B462046294611F03A
:109D700009FBBDE8F88F00BF3374AC3C1F7BAC7FA0
:109D8000FFFFEF7FFFFF35400000E0BF0000E03F36
:109D9000FFFF2F3E0000F03F412E8640CD3386402E
:109DA0007DF8B98FFFFFEF3F2DE9F04F21F000481C
:109DB000B8F1795F85B006460F4692469B466BDA4E
:109DC00011F090FD002800F0EA8032463B46304614
:109DD000394611F0D7FA74A3D3E9002304460D469F
:109DE00011F0D0FA72A3D3E9002311F019F9224639
:109DF0002B4611F0C7FA70A3D3E9002311F00EF936
:109E000022462B4611F0BEFA6DA3D3E9002311F0D0
:109E100007F922462B4611F0B5FA6BA3D3E90023CC
:109E200011F0FCF822462B4611F0ACFA68A3D3E9F6
:109E3000002311F0F5F822462B4611F0A3FACDE9E4
:109E400000010022664B2046294611F09BFADDE90D
:109E50000023804689462046294611F093FA52464F
:109E600004460D465B463046394611F08BFA0246F1
:109E70000B462046294611F0D1F802460B464046D3
:109E8000494611F0CBF802460B460020554911F027
:109E9000C5F805B0BDE8F08F02460B4611F072FA26
:109EA00041A3D3E9002304460D4611F06BFA40A309
:109EB000D3E9002311F0B4F822462B4611F062FAE0
:109EC0003DA3D3E9002311F0A9F822462B4611F057
:109ED00059FA3BA3D3E9002311F0A2F822462B46FE
:109EE00011F050FA38A3D3E9002311F097F8224675
:109EF0002B4611F047FA36A3D3E9002311F090F86E
:109F00002B46224611F03EFA374B9845CDE9000129
:109F100097DD364B984539DCA8F500130022002068
:109F200030499046994611F079F8CDE902010022B6
:109F30002B4B2046294611F025FA42464B4611F09C
:109F40006DF8DDE90023804689462046294611F058
:109F500019FA524604460D465B463046394611F022
:109F600011FA02460B462046294611F057F80246E0
:109F70000B464046494611F051F802460B46DDE9D2
:109F8000020111F04BF805B0BDE8F08F9FED127B98
:109F90004FF000088DED027BDFF85490C7E71149C0
:109FA000002005B0BDE8F08FD43888BEE9FAA8BD1E
:109FB000C4B1B4BD9EEE213EAD529C804F7E923E18
:109FC0009015CB19A001FA3E7751C1166CC1563FCE
:109FD0004C5555555555A53F000000000000E73F82
:109FE0000000E03F0000F03F3233D33F0000E93F84
:109FF0000000D23F000000002DE9F04FADF51B7DC1
:10A000009F4CA49E9F4D54F8264007942646D41E8C
:10A0100085FB0475E417C4EBA50424EAE4741D462B
:10A020000A93631CA3EB8303013D02EBC303069376
:10A030002B460B940395651BF418049008911AD4D1
:10A040002C440026002701340DF18808DDF8949295
:10A0500008E059F8250011F02FF90135A542E8E88C
:10A06000020108D0002DF4DA013530463946A54208
:10A07000E8E80201F6D1079B002BC0F2DF83079BC3
:10A0800003F1010B0A9B22A9DB001A4601EB03092D
:10A090000093049B0DF5E47A19460AEBCB0B01EB18
:10A0A0000208039B002BC0F2F582049C4D4600265B
:10A0B000002775E90223F4E8020111F063F9024672
:10A0C0000B463046394610F0ABFF444506460F4676
:10A0D000EFD1EAE80267DA4509F10809E1D1079909
:10A0E0000098049C009101F18043013B9B002044B7
:10A0F0001A1F83460EA8024403440C920D93009A43
:10A100009AA901EBC203002A53E9284529DD0DF580
:10A11000E47A0AEBC2080DF1340900225A4B2046BA
:10A12000294611F02FF911F0DDFB11F0C5F80022DE
:10A13000564B06460F4611F025F902460B462046BF
:10A14000294610F06BFF11F0CDFB78E9022349F8A6
:10A15000040F3946304610F063FFD04504460D46E3
:10A16000DBD1DDF81890204629464A4601F050F828
:10A1700000224FF07F5304460D4611F003F9FCF71F
:10A180005FFD0022424B11F0FDF802460B462046CF
:10A19000294610F043FF0D46044611F0A3FB80460C
:10A1A00011F08AF80B4602462946204610F036FF89
:10A1B0004B46002B06460F4640F3F980009A0EA945
:10A1C000013AC9F1180351F8225045FA03F101FA96
:10A1D00003F30EA8EB1A40F82230C9F117058844A2
:10A1E00043FA05F5002D6DDD009B002B08F10108F9
:10A1F00040F36F820E9C002C40F01683009B012BD5
:10A2000040F38F820EAA012352F8044F002C00F075
:10A210008382581C0EAAC4F1807442F82340009A2D
:10A22000824219DD0EAA0EAC52F820106FF07F4268
:10A23000511A44F820100099023399420CDD10465F
:10A24000009A0EA901EB830301EB82011A68821ABE
:10A2500043F8042B8B42F9D1069B002B1ADD069B99
:10A26000012B4FF0010440F03C82009B5A1E0EABC4
:10A270000EA953F82230C3F3160341F822303CE212
:10A2800088DB0300ABAAAA2A0000703E00007041E0
:10A2900000002040022D15D132463B460020924955
:10A2A00010F0BCFE06460F46069A8F49002000F0CB
:10A2B000AFFF02460B463046394610F0AFFE02258E
:10A2C00006460F46002200233046394611F0C2FAF6
:10A2D000002800F03782009A079B501E83420FDC53
:10A2E00002F18043013B0EAA0D9C02EB8303002286
:10A2F00053F80419A34242EA0102F9D1002A67D1B6
:10A30000079B0EAA013B52F82330002B40F0188225
:10A310000C9A012352F8041901330029FAD0009A4B
:10A32000D31802F1010A9A4509933DDC009B0A9972
:10A330000B9A0B4409990AEB0208994622AB08F1E3
:10A34000804803EBC9098B18A59A08F1FF3802EB86
:10A35000880872AA02EBCA0AA59A02EB830300934B
:10A3600058F8040F10F0A8FF039B002BE9E8020146
:10A370004FF000064FF0000711DB049C4D4675E9D5
:10A380000223F4E8020110F0FDFF02460B463046BE
:10A39000394610F045FE5C4506460F46EFD1009B5E
:10A3A0009845EAE80267DBD1099B0093A7E606D14E
:10A3B000009B0EAA013B52F82350ED1512E7002234
:10A3C0004A4B11F065FA002840F06E81054679E7A6
:10A3D0000EA9039551F820300699CDF8248018393C
:10A3E0000246009006916BB900F18043013B0EA834
:10A3F00000EB830353F80409013A18390028F9D017
:10A4000000920691069A3849002000F001FF009B57
:10A41000002B04460D46C0F2F781DA0072A901EB69
:10A42000020B06920EAA02EB8306DFF8C4904FF0EF
:10A4300000080BF10807043656F8040D10F03CFF35
:10A4400022462B4610F09EFF4B4667E9020142462A
:10A450002046294610F096FF0EAB9E4204460D465C
:10A46000EAD14AACDDF81C9004944FF0000AB9F12F
:10A47000000FC0F22B81DFF87C805D4618A1D1E986
:10A48000000100260027002403E0544510DCF8E812
:10A490000201F5E8022310F075FF02460B46304634
:10A4A000394610F0BDFD0134A14506460F46ECDAF1
:10A4B000049B03EBCA03ABF1080BC3E9006770AB65
:10A4C0009B450AF1010AD2D1A49B049C032B00F204
:10A4D0008980DFE803F0C58E8E1100BFAFF30080E6
:10A4E00000000040FB21F93F0000F03F0000E03F8A
:10A4F0000000703E60C60300009B002B40F381818A
:10A50000069A04EB020ADAE9008902F108052544FB
:10A510000DF5987B1AED027B42464B4651EC170B2A
:10A520008DED047B10F07CFD06460F4602460B467F
:10A53000DDE9040110F072FD42464B4610F070FD5B
:10A5400065E902015D45B046B9466AE90267E1D1B5
:10A55000009B012B40F35581069BE518D5E9008946
:10A5600003F1080B04EB0B0A15ED027B42464B4648
:10A5700051EC170B8DED007B10F052FD06460F4697
:10A5800002460B46DDE9000110F048FD4B4642460D
:10A5900010F046FD6AE902014EAB5345B046B9469C
:10A5A00065E90267E0D10020002104EB0B0575E9A5
:10A5B000022310F035FDAA45F9D1039B002B00F0D2
:10A5C0000A816268E368089F2568A4683D6002F11B
:10A5D000004203F1004301F100417A60FB60BC607E
:10A5E00038617961099B03F007000DF51B7DBDE81B
:10A5F000F08F069D083525440020002175E90223CF
:10A6000010F00EFDA542F9D1039B002B00F0D28083
:10A61000089E024601F1004386E80C000B46024604
:10A62000D4E9000110F0FAFC009B002B0BDD4CADCF
:10A630000124F5E8022310F0F3FC009B0134A3424F
:10A64000F7DA039B13B101F100431946089BC3E9F4
:10A650000201099B03F007000DF51B7DBDE8F08F9B
:10A66000069D083500200021254475E9022310F0DD
:10A67000D7FCAC42F9D1039B13B101F10043194659
:10A68000089BC3E90001099B03F007000DF51B7D42
:10A69000BDE8F08F00260027EAE80267DA4509F1F5
:10A6A00008097FF4FEAC1AE5009B002B08F10108B5
:10A6B000C8BF02253FF79EAD32463B4600206149A8
:10A6C00010F0ACFC022506460F46FBE500260027ED
:10A6D000EEE6069B002B27DD0024069B012B3FF4B2
:10A6E000C4AD022B09D1009B5A1E0EAB0EA953F824
:10A6F0002230C3F3150341F82230022D7FF4E2AD7E
:10A7000032463B4600204F4910F088FC06460F4673
:10A71000002C3FF4D7ADC7E50099013399427FF48F
:10A7200073AD069B002BD8DC022D7FF4CBAD3246F7
:10A730003B460020434910F071FC06460F46C1E538
:10A740000123ECE53946069F03957A423046CDF861
:10A75000248000F05DFD00223B4B04460D4611F0C5
:10A7600097F8002843D00022384B2046294610F0A5
:10A7700009FE11F0B7F8064610F09EFD0022324B9C
:10A7800010F000FE02460B462046294610F046FC1B
:10A7900011F0A8F800990B4601331A4600933B4686
:10A7A000183306930B460EA941F82300134641F8CF
:10A7B000236027E6089B0246C3E900010B46D4E963
:10A7C000000110F02BFC009B002B3FF730AF089BE3
:10A7D000C3E902013DE7D4E90067D4E90223089DFB
:10A7E000C5E90401C5E90067C5E90223FAE629467F
:10A7F000204611F077F8009A0EA941F8220001E6F0
:10A800004AAC00200021D8E6A49B032B3FF6EAAE19
:10A8100001A252F823F000BF37A802002FA80200BF
:10A820002FA8020001A8020001200023F2E400206A
:10A8300000214AACE8E6002000211CE70A9BDB006F
:10A8400000934CE40000F03F000070410000703EB7
:10A850002DE9F04F21F00046B6F1795F85B004464E
:10A860000D469046994604DA11F03CF8002800F0B5
:10A87000858022462B462046294610F083FD064659
:10A880000F4602460B462046294610F07BFD41A3A9
:10A89000D3E9002382468B463046394610F072FDDC
:10A8A0003EA3D3E9002310F0B9FB32463B4610F03B
:10A8B00069FD3CA3D3E9002310F0B2FB32463B46CE
:10A8C00010F060FD39A3D3E9002310F0A7FB324656
:10A8D0003B4610F057FD37A3D3E9002310F0A0FB4F
:10A8E0000E9BCDE900019BB30022294B404649460F
:10A8F00010F048FDDDE90023CDE90201504659463C
:10A9000010F040FD02460B46DDE9020110F086FB27
:10A9100032463B4610F036FD42464B4610F07EFB79
:10A9200019A3D3E9002306460F465046594610F0B6
:10A9300029FD02460B463046394610F071FB0246AF
:10A940000B462046294610F069FB05B0BDE8F08FA4
:10A9500002460B463046394610F014FD0AA3D3E9EF
:10A96000002310F05BFB52465B4610F00BFD2246C5
:10A970002B4610F055FB05B0BDE8F08F2046294668
:10A9800005B0BDE8F08F00BF495555555555C53F39
:10A990000000E03F7CD5CF5A3AD9E53DEB9C2B8AAD
:10A9A000E6E55A3E7DFEB157E31DC73ED561C119AC
:10A9B000A0012A3FA6F810111111813F00000000EC
:10A9C0002DE9F04FBE4C21F0004687B0A6428246EA
:10A9D0008B460F46CDE900231BDC10F083FF0028D7
:10A9E00037D153461E43109B0133334300F0B381EC
:10A9F000109B012B00F0C88152465B460020B149F4
:10AA000010F0EAFD04460D462046294607B0BDE891
:10AA1000F08FAD4B9E421CDD0029C0F2A981524649
:10AA20005B4687A1D1E9000110F0F8FADDE90023C7
:10AA300004460D4684A1D1E9000110F0EFFA9FED24
:10AA4000847B22462B468DED007B10F0E9FA82468E
:10AA50008B4652465B465046594610F093FC0246E0
:10AA60000B468046894610F08DFC424604460D4652
:10AA70004B465046594610F085FC77A3D3E9002396
:10AA8000CDE902012046294610F07CFC74A3D3E9ED
:10AA9000002310F0C5FA22462B4610F073FC72A377
:10AAA000D3E9002310F0BCFA22462B4610F06AFCD2
:10AAB0006FA3D3E9002310F0B3FA22462B4610F01F
:10AAC00061FC6DA3D3E9002310F0AAFA22462B46BD
:10AAD00010F058FC6AA3D3E9002310F0A1FA424613
:10AAE0004B4610F04FFC68A3D3E90023CDE90401E5
:10AAF0002046294610F046FC65A3D3E9002310F058
:10AB00008FFA22462B4610F03DFC63A3D3E90023C5
:10AB100010F086FA22462B4610F034FC60A3D3E9ED
:10AB2000002310F07DFA22462B4610F02BFC5EA38A
:10AB3000D3E9002310F074FA22462B4610F022FCD1
:10AB40005BA3D3E9002310F06BFA02460B46DDE964
:10AB5000040110F065FADDE9022310F013FCDDE9D1
:10AB6000004522462B4610F05BFA42464B4610F059
:10AB700009FC02460B462046294610F051FA4EA326
:10AB8000D3E9002304460D46DDE9020110F0FAFB8B
:10AB900022462B4610F044FA0B4602468046894670
:10ABA0005046594610F03CFA474B9E4204460D462B
:10ABB00000F38E80109B012B3BD002460B460020F9
:10ABC000404910F009FD002406460F46204629465C
:10ABD00052465B46CDE90067CDE90201009410F0D2
:10ABE0001DFADDE900AB02460B464046494610F02F
:10ABF00015FA52465B4610F0C5FB524604460D4618
:10AC00005B46DDE9020110F0BDFB00222F4B10F086
:10AC100007FA02460B462046294610F001FA324652
:10AC20003B4610F0AFFB52465B4610F0F9F9044684
:10AC30000D462046294607B0BDE8F08FAFF30080EF
:10AC4000182D4454FB21E93F075C143326A6813CB0
:10AC50000000000000000000D47ABF74702AFB3EA0
:10AC6000E9A7F0320FB8123F68108D1AF726303F6F
:10AC70001583E0FEC8DB573F93846EE9E326823FED
:10AC8000FE41B31BBAA1AB3F735360DBCB75F3BE80
:10AC9000A69237A0887E143F0165F2F2D844433F64
:10ACA000280356C9226D6D3F37D60684F464963F5B
:10ACB0007AFE10111111C13F635555555555D53FB9
:10ACC000FFFF2F3E0000F0BF2794E53F0000F03F5C
:10ACD000109810F0F1FA2246CDE900012B462046EB
:10ACE000294610F04FFBDDE90023CDE902012046A3
:10ACF000294610F095F902460B46DDE9020110F0F5
:10AD00006BFC42464B4610F089F902460B46504612
:10AD1000594610F083F902460B4610F081F90246BD
:10AD20000B46DDE9000110F079F90446B81700F090
:10AD30000200C0F101000D4610F0BEFA02460B46BB
:10AD40002046294610F01EFB04460D4620462946A3
:10AD500007B0BDE8F08F504659460EF07FF8024626
:10AD60000B4600200A4910F037FC04460D4660E708
:10AD7000DDE9004501F10041224605F1004382462C
:10AD80008B46CDE900234AE654465D4651E700BFB5
:10AD90000000F03F000000002DE9F04FD24A21F002
:10ADA0000043934285B082468B460C462DD9CF4A4C
:10ADB00093421AD8002C80F21681B5A3D3E9002360
:10ADC0005046594610F02CF90022002310F04CFD9B
:10ADD000C0B9B1A3D3E900235046594610F0D2FAC6
:10ADE00002460B460020C24908E1C24A934240F2A3
:10ADF000D0800346C1F31302134340F0F4810029CD
:10AE000080F2C4800020BC49C0E0BC4A934200F2FA
:10AE10002981BB4A934240F2DE8000230193002245
:10AE2000B84B5046594610F0ADFA06460F4602465A
:10AE30000B465046594610F0A5FA99A3D3E90023D2
:10AE400004460D4610F09EFA97A3D3E9002310F0B4
:10AE5000E7F822462B4610F095FA95A3D3E9002394
:10AE600010F0DCF822462B4610F08CFA92A3D3E9BE
:10AE7000002310F0D5F822462B4610F083FA90A359
:10AE8000D3E9002310F0CAF822462B4610F07AFAD4
:10AE900000229D4B10F0C4F88046894602460B46BE
:10AEA0003046394610F06EFA02460B4600209749AC
:10AEB00010F0B4F8064602460B460F464046494697
:10AEC00010F0ACF83246804689463B46504659461B
:10AED00010F058FA02460B4600208D4910F09EF8FB
:10AEE00002460B464046494610F076FB22462B466A
:10AEF00010F048FA019E02460B46002E38D0DDE9DC
:10AF0000026732463B4610F089F852465B4610F025
:10AF100039FA32463B4610F081F82B46224610F0B3
:10AF20007DF8019B013306460F4600F00F81019B1F
:10AF3000012B00F0F180019B0133392B39D8019BA3
:10AF4000132B40F31281019CC4F57F750335002259
:10AF50002B0510F065F802460B465046594610F096
:10AF60005DF80022684B10F05BF801EB04510DE036
:10AF70005046594610F006FA22462B4610F04EF87D
:10AF800002460B465046594610F048F805B0BDE859
:10AF9000F08F4DA3D3E9002310F084FC00283FF488
:10AFA00009AF4BA3D3E900231046194610F0EAF984
:10AFB000ECE752465B4610F031F802460B460020A3
:10AFC000514910F02BF8019A4F4B01EB025100222E
:10AFD00010F024F8DAE73EA3D3E9002310F020F8BC
:10AFE00002460B46CAE72CA3D3E900235046594634
:10AFF00010F0C8F90B4643490246002010F010F843
:10B0000010F070FC019010F057F933A3D3E900233E
:10B0100006460F4610F0B6F902460B465046594612
:10B020000FF0FCFF2EA3D3E900238046894630466B
:10B03000394610F0A7F906460F4632463B464046D1
:10B0400049460FF0EBFF02460B4682468B464046D0
:10B0500049460FF0E3FF32463B460FF0DFFFCDE9F4
:10B060000201DCE62B4A934200F2958000291AA3E4
:10B07000D3E90023C0F2AC800FF0D0FF012380465B
:10B080008946019316A7D7E90067D6E7AFF300809A
:10B0900059F3F8C21F6EA501FE822B654715F73FD5
:10B0A0002DC3096EB7FD8ABE3952E686CACFD03E9F
:10B0B000B7DBAA9E19CE143F8555FE19A0015A3F51
:10B0C000F41011111111A13FEF39FAFE422E864002
:10B0D0009C7500883CE4377E0000E0FE422EE63F8F
:10B0E000763C7935EF39EA3D79684340412E864018
:10B0F0000000E0BFFFFFEF7F0000F0BF422ED63F11
:10B10000FFFF8F3C0000E03F0000F03F00000840E0
:10B1100000001840B1A2F03F0022394B504659467A
:10B1200010F0A2FB002844D0504659460022354B6F
:10B130000FF076FF02460B46304639460FF06EFFA1
:10B1400000224FF0404310F01DF91FE702460B4666
:10B15000504659460FF062FF00222A4B10F012F9B8
:10B160000022284B0FF05AFF10E7019C4FF4001308
:10B170002341C3F17F5752465B460FF04FFF002635
:10B1800007F5401702460B46304639460FF046FF9A
:10B1900001EB0451FAE616A3D3E9002310F0F2F80C
:10B1A000002C02460B464FF00000FFF61CAE15497E
:10B1B00024E732463B46504659460FF02FFF0246E1
:10B1C0000B460FF02DFF00220F4B0FF029FFDDE69D
:10B1D0000FF026FF4FF0FF3380468946019306A704
:10B1E000D7E9006729E702460B460FF019FFCDE6C5
:10B1F000FE822B654715F73F763C7935EF39EABD7E
:10B200000000D0BF0000E03F0000F03F0000000061
:10B21000F8B5C1F30A5604460D460B4617460EBB59
:10B2200021F000430343864625D00022344B10F022
:10B23000A9F8344A974204460D460B462ADBC1F36F
:10B240000A56363E3E4440F2FE72964228DC002EFC
:10B2500012DD23F0FF4323F4E00343EA06552046C2
:10B260002946F8BD40F2FF729642EBD102460B46EA
:10B270000FF0D6FEF8BDF8BD16F1350F1DDA4CF211
:10B2800050339F4222462B4625DC19A1D1E900010B
:10B290000FF036FE16A3D3E9002310F073F8F8BDC3
:10B2A00022462B4614A1D1E900010FF029FE12A37A
:10B2B000D3E9002310F066F8F8BD23F0FF4323F430
:10B2C000E003363643EA06552046294600220E4B57
:10B2D00010F058F8F8BD08A1D1E900010FF010FEF8
:10B2E00005A3D3E9002310F04DF8F8BDAFF30080BB
:10B2F00059F3F8C21F6EA5019C7500883CE4377EA7
:10B3000000005043B03CFFFF0000903C10B5054CDE
:10B31000237833B9044B13B10448AFF30080012301
:10B32000237010BD1082002000000000E0DC03004C
:10B330000C4B43B10C480D4910B5AFF300800C48DD
:10B34000036823B910BD0A48036833B97047094B35
:10B35000002BF7D0BDE810401847064B002BF5D066
:10B36000184700BF00000000E0DC0300148200204A
:10B37000FC81002000000000154B002B08BF134B80
:10B380009D46A3F5803A00218B460F461348144A88
:10B39000121A07F0B1F90F4B002B00D098470E4B53
:10B3A000002B00D098470020002104000D000D481C
:10B3B000002802D00C48AFF300800FF0D7FD20002A
:10B3C000290004F065FF0FF0BDFD00BF000008007C
:10B3D00000000420000000000000000000820020A7
:10B3E00050890020000000000000000070B50446F5
:10B3F0000E4600F0C7FA88B10368DB6A0546984735
:10B40000082C0CD0A4F10903012B14D93246214693
:10B4100010230D20BDE8704004F016B970BD2B68F4
:10B4200028465B6A98470228F0DC2B6828461B6A8E
:10B4300004219847EAE72B6828465B6A9847052865
:10B44000E4DC2B6828461B6A08219847DEE700BF2A
:10B4500030B52DED028B83B0054600F093FA04461B
:10B4600040B10368DB6A9847032D50D8DFE805F048
:10B47000373F47080190019803B0BDEC028B30BD07
:10B48000204609F03DFA07EE900A2046F8EEE78ADA
:10B4900009F046FA07EE900A2046B8EEE78A09F06E
:10B4A0004FFA68EE087A07EE100AE8EEA87AB8EECE
:10B4B000C77AE7EE077AF5EE407AF1EE10FAB1EED0
:10B4C000E78A03D517EE900A0EF08EFAFDEEC87AE1
:10B4D000CDED017A019803B0BDEC028B30BD204662
:10B4E00003B0BDEC028BBDE8304009F009BA20463C
:10B4F00003B0BDEC028BBDE8304009F011BA204624
:10B5000003B0BDEC028BBDE8304009F019BA00234E
:10B510000193B0E738B5054600F034FA58B1036836
:10B52000DB6A0446984745B1012D04D12046BDE8A9
:10B530003840FBF79DB8002038BD2046BDE83840B4
:10B54000FBF776B810B5044600F01CFA28B1036882
:10B5500021461B6ABDE81040184710BD00487047DF
:10B5600016FCFFFF704700BF10B5034B0360044695
:10B5700008F0A6FF204610BDF0D2030010B5054B21
:10B580000360044608F09CFF204610F03DFC204676
:10B5900010BD00BFF0D203002DE9F043AC4F3C6872
:10B5A00085B01CB1204605B0BDE8F0834FF0FF31F7
:10B5B000012001F025FDC0B204F044FB002800F09A
:10B5C0006D810C2010F022FC03210546512001F072
:10B5D00017FDDFF89CE29F4B064606F00F08C6F306
:10B5E000031916F4807618BF73469B4841464A46B5
:10B5F00008F00EF9321C18BF01224B46414628467E
:10B600000BF010FF9548AC6008F002F94FF0FF31E5
:10B61000032001F0F5FCC0B204F014FB4FF0FF3141
:10B620000446022001F0ECFCC0B204F00BFB002C3D
:10B6300000F0F880002800F0F5800146204604F074
:10B64000E5F80646002800F025814FF0FF3146203E
:10B6500001F0D6FCA0F130038046382B00F2B48014
:10B66000DFE803F097B297B2B2B2B2B27CB263B283
:10B6700046B2B2B2B2B2B2B2B2B2B2B2B2B2B2B216
:10B68000B2B2B2B2B2B2B2B2B2B2B2B2B2B2B2B29A
:10B69000B2B2B2B2B2B2B2B2B2B2B2B21D004FF0F6
:10B6A000FF31012001F0ACFCC0B204F0CBFA8046BF
:10B6B0004C2010F0ABFB4FF0050E682304468DE8DC
:10B6C0000840424631462B460AF0D6FB2046A86089
:10B6D00003689B6A9847A8680368DB6A98476048D4
:10B6E00008F096F82C4620463D6005B0BDE8F08392
:10B6F0004FF0FF31012001F083FCC0B204F0A2FA48
:10B7000004462C2010F082FB224631463C23804622
:10B7100009F010FF3C2010F079FB41460446052358
:10B720002A4609F0FDFF2046D1E74FF0FF31012006
:10B7300001F066FCC0B204F085FA8046442010F0A7
:10B7400065FB4FF0050E3A2304468DE8084042465B
:10B7500031462B460AF0E8FA2046B8E74FF0FF31B1
:10B76000012001F04DFCC0B204F06CFA8046442088
:10B7700010F04CFB4FF0050E382304468DE80840CE
:10B7800042462B4631460AF0CFFA364B236020461C
:10B790009DE74FF0FF31012001F032FCC0B204F010
:10B7A00051FA81464C2010F031FB1FFA88F34FF01C
:10B7B000050E044600934A463146CDF804E02B4678
:10B7C0000AF03CF9204682E7326801240023019404
:10B7D0000094D2F82080AB600F220DF10F033221CC
:10B7E0003046C047002845D14FF0320841461E4838
:10B7F00008F00EF84FF0FF31012001F001FCC0B25B
:10B8000004F020FA81464C2010F000FB052304468A
:10B8100001934A46CDF8008031462B460AF00EF9D6
:10B82000204654E7114807F0F3FF4FF0FF3119208D
:10B8300001F0E6FBC0B204F005FA4FF0FF31044618
:10B84000182001F0DDFBC0B204F0FCF9F5E600BF02
:10B850002C820020ECC60300F4C6030014C70300CA
:10B86000ACC70300B0C60300D0C7030024C7030061
:10B87000E4C60300336801940094D3F820800F22BB
:10B880000DF10F0330213046C04748B94FF0300862
:10B890004146ACE7364807F0BBFF23E73C6881E64A
:10B8A000336801940094D3F820800D220DF10F032A
:10B8B00038213046C04738B938212E4807F0A8FF54
:10B8C00020464FF0FF314CE7336801940094D3F8E1
:10B8D00020800D220DF10F033C213046C04738B9BE
:10B8E0003C21244807F094FF20464FF0FF3102E747
:10B8F000336801940094D3F820800D220DF10F03DA
:10B900003A213046C04738B93A211A4807F080FF3B
:10B9100020464FF0FF310BE7326801940094D2F8D3
:10B9200020800DF10F03752268213046C04738B9D9
:10B930006821104807F06CFF20464FF0FF31B1E658
:10B940000D4807F065FFA86800287FF4C1AE4FF0EE
:10B95000FF31032001F054FBC0B204F073F918B1B9
:10B96000064807F055FFBDE6054807F051FFB9E668
:10B9700038C70300D0C70300BCC7030050C703008B
:10B980008CC7030008B5FFF707FE00B1806808BD4B
:10B9900008B501F05DFCFBF70FFCBDE8084001F0C5
:10B9A000BBB900BF08B501F053FCFBF775FCBDE85F
:10B9B000084001F0B1B900BF08B501F049FC0DF035
:10B9C000C3FABDE8084001F0A7B900BF08B501F00F
:10B9D0003FFC0DF0CBFEBDE8084001F09DB900BF73
:10B9E00008B501F035FCFBF7F7FBBDE8084001F0B6
:10B9F00093B900BF08B501F02BFC0DF0E3FCBDE8E6
:10BA0000084001F089B900BF08B501F021FCFAF740
:10BA10004FFEBDE8084001F07FB900BF08B501F056
:10BA200017FC0DF023FCBDE8084001F075B900BF1C
:10BA300070B5049E96420C4628DB15466BB1002A71
:10BA400000EB020107DD2046A21811F8013D00F8C5
:10BA5000013B9042F9D1002070BD042A0FD0022A88
:10BA600002D110F0010306D001462A46204605F017
:10BA700061FC002070BD02880A80184670BD10F07D
:10BA80000303F1D102680A60184670BD0846002120
:10BA900006F032FE4FF0FF3070BD00BF0830704737
:10BAA00040B1002905DB4368994202DA0844007A74
:10BAB00070470020704700BF30B1002904DB4368A5
:10BAC0009942BCBF40180272704700BF40B10029C4
:10BAD00005DB4368994202DA0844007A7047002087
