:020000040002F8
:106000000000042071880300998803009B88030026
:106010009D8803009F880300A18803000000000002
:10602000000000000000000000000000A388030042
:10603000A588030000000000A7880300A9880300CA
:10604000AB880300AB880300AB880300FD86030028
:1060500011870300AB880300AD7C0300AB8803000D
:10606000298503003185030039850300AB880300CF
:10607000AB880300AB880300AB880300AB88030048
:10608000AB880300AB880300AB880300AB88030038
:10609000AB880300AB880300AB880300AB88030028
:1060A000AB880300AB8803004185030049850300EA
:1060B000AB880300AB880300000000000000000074
:1060C000AB880300AB880300AB880300258703007F
:1060D000AB880300AB880300AB880300AB880300E8
:1060E000AB880300AB880300AB880300000000000E
:1060F00000000000AB8803000000000039870300A7
:10610000000000000000000000000000000000008F
:10611000000000000000000000000000000000007F
:10612000000000000000000000000000000000006F
:10613000000000000000000000000000000000005F
:10614000000000000000000000000000000000004F
:10615000000000000000000000000000000000003F
:10616000000000000000000000000000000000002F
:10617000000000000000000000000000000000001F
:10618000000000000000000000000000000000000F
:1061900000000000000000000000000000000000FF
:1061A00000000000000000000000000000000000EF
:1061B00000000000000000000000000000000000DF
:1061C00000000000000000000000000000000000CF
:1061D00000000000000000000000000000000000BF
:1061E00000000000000000000000000000000000AF
:1061F000000000000000000000000000000000009F
:106200002DE9F04F0378202B83B00446894603D153
:1062100014F8013F202BFBD02B2B08BF013494F83E
:1062200000E0BEF12D0F00F086809FED577BBEF1A0
:10623000300F8DED007B00F08A80BEF1000F00F082
:106240009D80002600274FF0000ADFF84CB14FF088
:1062500000081CE015F08CF806460F46284615F09D
:1062600021F832463B4614F0D1FE524606460F4610
:106270005B46DDE90001B8F1000F03D015F0A2F98B
:10628000CDE9000114F801EFBEF1000F14D0AEF11A
:106290003005092D52465B4630463946DAD9B8F109
:1062A000000F18D1BEF12E0F15D114F801EF4FF0E9
:1062B0000108BEF1000FEAD132463B46DDE900019C
:1062C00015F056F806460F46C9F8004030463946E4
:1062D00003B0BDE8F08F0EF0DF0EBEF1450F08D021
:1062E0002378202B03D114F8013F202BFBD0002B67
:1062F00041D1DDE900233046394615F039F82378DD
:1063000006460F46002BDFD04946601C0A2214F0D7
:1063100061FE21490246002015F08AFB02460B4629
:106320003046394615F024F806460F4630463946C1
:1063300003B0BDE8F08F94F801E09FED157BBEF14E
:10634000300F8DED007B04F101047FF476AF6378AC
:1063500043F02003782B7FF474AF10224946204687
:1063600014F038FE14F09EFFDDE9002315F000F86C
:1063700006460F46AAE70026084FA7E70026002793
:106380009AE700BFAFF30080000000000000F03F7C
:10639000000000000000F0BF000024400000F87F73
:1063A0002DE9F84F16460023002204460D4615F04D
:1063B00051FA002840F09D80002200232046294603
:1063C00015F03EFA28B13022002332707370BDE818
:1063D000F88F2046294613F03DF915F079FA7BA392
:1063E000D3E9002381462946204615F033FA0028D8
:1063F00000F08680B9F1000FC0F2BE804A4600204E
:106400006F4915F015FB02460B462046294615F04C
:10641000D9F804460D4666A1D1E9000101274FF0E5
:10642000000822462B4614F0A3FF0022654B14F00F
:10643000EDFD15F039FB002FCC464FF0FF3AC14679
:106440004FF0000840F38580DFF888E15E4C0122C0
:10645000AEF1700945F6F3254FF02E0BA94208BFA7
:10646000A0424FF0300309D3001B61EB0501A942A4
:1064700008BFA04203F10103F6D2DBB2337050EA49
:10648000010306F1010409D1BA4210DACE4502F146
:1064900001020CD026467EE80245DFE7BA4204BF7F
:1064A00086F801B0B41CCE4502F10102F2D1B8F178
:1064B000000F0DD02246302102F8011BC2F101036A
:1064C00053442344002BF7DC2AEAEA7301331C44CB
:1064D000BCF1010F4CD06523BCF1000F2370C5BF88
:1064E0002B236370611CA11C6046BDE8F84F0CF0C3
:1064F0007DBF05F100431D462D23337001365BE758
:106500002DA3D3E900232046294615F0C1F9002820
:106510007FF470AFB9F10E0F09F101073DDDA9F16C
:106520000E0842460020264915F082FA02460B4624
:106530002046294615F046F80022224B14F066FD4D
:1065400015F0B2FA002FA9F10F0A4FF0010C3FF736
:106550007BAF334630222E2403F8022B74707FEA7F
:10656000090618D01E4403F8012BB342FBD16BE798
:1065700000232370BDE8F88FC9F100020020104904
:1065800015F056FA02460B462046294614F0F0FE56
:1065900004460D463FE71E4656E7C9F10E020020AD
:1065A0000749C84615F044FA4FF0010939E700BF22
:1065B0000000901EC4BCD64250EFE2D6E41A4B4411
:1065C000000024400000E03F00407A108DEDB5A0AF
:1065D000F7C6B03E98C5030070B54FF0FF3006F027
:1065E000C3F904466FF07F4006F0BEF90646204628
:1065F00014F048FE00220C4B14F0BAFE044630465C
:106600000D4614F03FFE06A3D3E9002314F0DAFF91
:1066100002460B462046294614F0F8FC70BD00BF28
:106620000000E0DFFFFF6F430000F03D00000000CE
:1066300008B50EF0E3F9DFED0C7A07EE100A67EE0D
:10664000277A17EE900A14F03FFE05A3D3E9002342
:1066500014F0B8FF15F03CF908BD00BFAFF300809F
:10666000EA2E4454FB2119400000B443000000000E
:1066700008B50EF0D7F9DFED0C7A07EE100A67EED9
:10668000277A17EE900A14F01FFE05A3D3E9002322
:1066900014F098FF15F01CF908BD00BFAFF300809F
:1066A000EA2E4454FB2119400000B44300000000CE
:1066B000494A21F0004393422DE9704304460D46B8
:1066C0004BDC464A93420E460EDC3FA3D3E900233F
:1066D00014F09CFC0022424B15F0DAF800284CD054
:1066E00020462946BDE870833E4A93423BDCB3F125
:1066F000804F42DD12F0A8FB2246804689462B4699
:106700002046294614F034FE0022354B14F07EFC5E
:1067100013F0D8FA02460B464046494614F076FC80
:1067200002460B4600202E4914F04CFF4246044618
:106730000D464B464046494614F068FC02460B465F
:106740002046294614F062FC02F06AF8002EC9DCEB
:1067500001F100431946BDE8708302460B4614F070
:1067600055FCBDE8708312F06FFB02F059F818A3D6
:10677000D3E9002314F04AFCE8E722462B462046E2
:10678000294614F0F5FD804689462046294612F038
:106790005BFB002204460D46114B4046494614F06F
:1067A00035FC13F08FFA00220D4B14F02FFC02463B
:1067B0000B464046494614F005FF22462B4614F08E
:1067C00025FC00F0C5FAC1E79C7500883CE4377EE3
:1067D000EF39FAFE422EE63FFFFFEF7FFFFF2F3E2D
:1067E0000000F03F0000B0412DE9F84FC44B21F00C
:1067F00000469E4204460D468A460EDDC14B9E422F
:1068000000F3AC8000F0A780BAF1000F40F3EA80FB
:106810009FA1D1E90001BDE8F88FBB4B9E4200F378
:10682000B580A3F1DE739E4240F3A0804FF0FF3BA2
:1068300022462B462046294614F09AFD02460B4676
:106840008046894614F094FD93A3D3E900230646BD
:106850000F4614F08DFD92A3D3E9002314F0D6FB6C
:1068600032463B4614F084FD8FA3D3E9002314F095
:10687000CDFB32463B4614F07BFD8DA3D3E90023CC
:1068800014F0C4FB32463B4614F072FD8AA3D3E9F0
:10689000002314F0BBFB32463B4614F069FD88A38D
:1068A000D3E9002314F0B2FB42464B4614F060FDDE
:1068B00085A3D3E90023804689463046394614F043
:1068C00057FD83A3D3E9002314F09EFB32463B46D9
:1068D00014F04EFD80A3D3E9002314F095FB32465B
:1068E0003B4614F045FD7EA3D3E9002314F08CFB56
:1068F00032463B4614F03CFD7BA3D3E9002314F061
:1069000083FB32463B4614F033FDBBF1FF3F0246AA
:106910000B466CD04046494614F078FB22462B4685
:1069200014F026FD794E7A4B4FEACB0B5E449B4424
:10693000DBE9002314F068FB22462B4614F064FBCD
:1069400002460B46D6E9000114F05EFBBAF1000FD7
:1069500043DBBDE8F88F00283FF456AF22462B46B4
:106960002046294614F052FBBDE8F88F60A3D3E916
:10697000002314F04BFB0022664B14F089FF002823
:106980003FF454AF20462946BDE8F88F12F05CFA78
:10699000614B9E4204460D4639DCA3F550239E42CE
:1069A0005EDC02460B4614F031FB0022594B14F01A
:1069B0002BFB002206460F464FF080432046294617
:1069C00014F024FB02460B463046394614F0FAFD1B
:1069D0004FF0000B04460D462AE701F1004319462B
:1069E000BDE8F88F44A1D1E90001BDE8F88F404629
:1069F000494614F00BFB22462B4614F0B9FC024624
:106A00000B462046294614F0FFFABDE8F88F434BA9
:106A10009E421ADC0022424B14F0F6FA002206468F
:106A20000F463F4B2046294614F0A2FC0022394B6A
:106A300014F0ECFA02460B463046394614F0C2FD1B
:106A40004FF0020B04460D46F2E602460B460020CC
:106A5000344914F0B7FD4FF0030B04460D46E7E64A
:106A600000222C4B14F0D0FA002206460F46294B88
:106A70002046294614F0CAFA02460B4630463946EB
:106A800014F0A0FD4FF0010B04460D46D0E600BF08
:106A9000182D4454FB21F93F11DA22E33AAD903F1F
:106AA000EB0D76244B7BA93F513DD0A0660DB13F45
:106AB0006E204CC5CD45B73FFF8300922449C23FAD
:106AC0000D5555555555D53F2F6C6A2C44B4A2BF72
:106AD0009AFDDE522DDEAD3F6D9A74AFF2B0B33F3A
:106AE000711623FEC671BC3FC4EB98999999C93FB2
:106AF0009C7500883CE4377E182D4454FB21F9BF77
:106B0000FFFF0F440000F07FFFFFDB3FA8C503003D
:106B1000C8C503000000F03FFFFFF23FFF7F0340C6
:106B20000000F83F0000F0BF2DE9F843C1F30A5917
:106B3000A9F2FF35132D02460B460C460646884641
:106B4000074622DC002D50DBDFF8F09049FA05F90A
:106B500001EA090E5EEA06061CD036A3D3E900233B
:106B600014F054FA0022002314F092FE48B1002CD5
:106B700004DD4FF4801343FA05F5A84428EA09041C
:106B8000002721463846BDE8F883332D06DDB5F5EC
:106B9000806F3DD010461946BDE8F883A9F213492D
:106BA0004FF0FF3E2EFA09F910EA090FF2D021A3A7
:106BB000D3E9002314F02AFA0022002314F068FE1F
:106BC0000028DED0002C09DD142D2BD00127C5F1C3
:106BD000340507FA05F5AE1928BFB844444626EA3D
:106BE000090721463846BDE8F88312A3D3E90023FC
:106BF00014F00CFA0022002314F04AFE0028C0D042
:106C0000002C0BDB54EA060706D00027084CB8E737
:106C100014F0FCF9BDE8F8833C46B2E700274FF0DA
:106C20000044AEE704F10108D8E700BFAFF30080ED
:106C30000000F03F9C7500883CE4377EFFFF0F00AA
:106C40002DE9F041C1F30A57A7F2FF35132D024693
:106C50000B460C46884606461CDC002D3FDB3A4FAF
:106C60002F41864601EA070C5CEA0E0E17D034A3CA
:106C7000D3E9002314F0CAF90022002314F008FE1F
:106C800020B1002C3FDB28EA0704002621463046CD
:106C9000BDE8F081332D06DDB5F5806F2FD01046AD
:106CA0001946BDE8F081A7F213474FF0FF3E2EFAD8
:106CB00007F73842F3D022A3D3E9002314F0A6F952
:106CC0000022002314F0E4FD0028DFD0002C20DB9C
:106CD000444626EA070621463046BDE8F08118A35F
:106CE000D3E9002314F092F90022002314F0D0FD20
:106CF0000028CBD0002C17DB00263446C6E714F062
:106D000085F9BDE8F0814FF4801343FA05F5A844F6
:106D1000B9E7142D10D00123C5F1340503FA05F5A8
:106D2000AE1928BF9844D3E724F00042074B324302
:106D300018BF1C460026A9E704F10108C8E700BFF8
:106D40009C7500883CE4377EFFFF0F000000F0BF19
:106D50002DE9F04FD84B994287B0804689460E46C0
:106D600013DCD64B21F000449C4218DD0022D44BAA
:106D700014F066FD002879D0002200230020D149BC
:106D800014F020FC07B0BDE8F08FCF4B99422FDD07
:106D900042464B4614F03AF907B0BDE8F08FCB4BB2
:106DA0009C4270DDCA4B1E449E427ED80022C94BD5
:106DB0004046494614F02AF94FEA215AAAF2FF3A0E
:106DC000BAF1000F04460D460E4640F3DE814246FE
:106DD0004B4614F019F902460B460020BD4914F049
:106DE00013F922462B4614F0EDFBCDE902010BE02E
:106DF000B94B9E42DADD9FED9A7B8DED027B4FEA27
:106E0000265A4446AAF2FF3AB44BC6F313069E42F2
:106E100046F07F5500F3E78045F4401520462946AB
:106E20000022AC4B14F0F0F8002204460D46AC4BA7
:106E300014F09EFA22462B4614F09AFAA046CDE9A9
:106E40000401A946CDE90001002E3AD10022002319
:106E50002046294614F0F4FC002800F0CE80BAF158
:106E6000000F40F074810020002195E742464B4618
:106E70004046314614F0C8F802460B4614F0A2FB17
:106E800007B0BDE8F08F0022964B14F0BFF8002247
:106E9000002314F0FDFC002800F0CC80924B9C42B3
:106EA00000F3C8804046494676E700228C4B14F038
:106EB0005FFA42464B4614F05BFACDE900014FF011
:106EC000000A00224FF080434046494614F09EF8E5
:106ED00002460B464046494614F074FB02460B46F8
:106EE00006460F4614F044FA5FA3D3E90023044694
:106EF0000D4614F03DFA5EA3D3E9002314F086F8A2
:106F000022462B4614F034FA5BA3D3E9002314F095
:106F10007DF822462B4614F02BFA59A3D3E900231F
:106F200014F074F822462B4614F022FA56A3D3E943
:106F3000002314F06BF822462B4614F019FA54A3E0
:106F4000D3E9002314F062F822462B4614F010FA1D
:106F500051A3D3E9002314F059F822462B4614F02C
:106F600007FA04460D46BAF1000F00F0BF80504604
:106F700014F098F94AA3D3E9002382468B4614F013
:106F8000F7F9DDE90023CDE904012046294614F094
:106F90003DF832463B4614F0EBF943A3D3E9002316
:106FA00004460D465046594614F0E2F9DDE9022345
:106FB00014F02CF802460B462046294614F026F819
:106FC00002460B46DDE9000114F01EF842464B462E
:106FD00014F01AF802460B46DDE9040114F014F827
:106FE00007B0BDE8F08F45F40015C6F580162046C1
:106FF0002946B6100AF1010A12E72DA3D3E90023AE
:107000002046294614F0B4F902460B4600203149C7
:1070100013F0FAFFDDE9042314F0AAF906460F463F
:10702000BAF1000F73D102460B462046294613F0F1
:10703000EBFFB1E642464B464046494614F098F90C
:107040000022274B14F094F902460B46404649466D
:1070500013F0DAFF07B0BDE8F08F00BFAFF3008098
:10706000000000000000000044523EDF12F1C23F69
:107070009FC678D0099AC33FDE03CB966446C73FCC
:10708000AF788E1DC571CC3F599322942449D23FCD
:1070900004FA97999999D93F935555555555E53F18
:1070A0000000E0FE422EE63F763C7935EF39EA3DBE
:1070B000555555555555E53F7982DA3FFFFFEF3F6E
:1070C0000000F0BF000050C3FFFFEF7FFFFF1F3E37
:1070D0003C412D400000F03FFFFF3F439DA00600D4
:1070E0000000E03F00005043FFFF8F3CDDE900451A
:1070F00022462B4613F08AFF32463B4614F038F9FD
:1071000002460B462046294613F07EFF9CE7504678
:1071100014F0C8F823A3D3E9002382468B4614F069
:1071200027F922A3D3E900238046894650465946D1
:1071300014F01EF9DDE9022313F068FF02460B4646
:107140003046394613F060FF22462B46DCE75046B6
:1071500014F0A8F815A3D3E9002306460F4614F04F
:1071600007F9DDE9022313F051FF0EA3D3E9002351
:1071700004460D463046394614F0FAF802460B46EE
:107180002046294613F042FF06E60022044B13F086
:107190003BFF02460B464046494613F035FF20E6CA
:1071A0000000F03F0000E0FE422EE63F763C7935DD
:1071B000EF39EA3D0000000008B512F0CBF904A356
:1071C000D3E9002314F0FEF908BD00BFAFF300803F
:1071D000EF39FAFE422EE63F2DE9F043DFF8B480A6
:1071E0008BB004460D4601F0F3F898F900300133F6
:1071F00006460F462BD022462B462046294614F041
:1072000051FB814618BB2046294611F01DFE1FA3E5
:10721000D3E9002314F03CFBC8B1194A98F90030B7
:10722000CDF820900321CDE90445CDE902458DE854
:1072300006008BB9134B4FF06042CDE90623684638
:1072400013F0E4FC70B1089B9BB9DDE9066730469A
:1072500039460BB0BDE8F0830B490020022BCDE985
:107260000601ECD113F05EFE22230360089B002B85
:10727000EBD013F057FE089B0360E6E7AFF3008006
:10728000F4D50300FFFFEF470000F07F7DF8B98FD2
:10729000CE338640EA8100202DE9F043DFF8E48018
:1072A0008BB004460D4601F043F998F900300133E4
:1072B00006460F4633D02046294613F0A1FC70B392
:1072C0002CA3D3E900232046294614F0E1FA814695
:1072D00050BB2AA3D3E900232046294614F0BAFA6A
:1072E000E8B198F90030204ACDF820900026002718
:1072F0000421022BCDE90445CDE90245CDE906671D
:107300008DE8060029D0684613F080FC28B3089B5E
:107310001BB113F007FE089B0360DDE906673046EA
:1073200039460BB0BDE8F0830F4A98F9003001925E
:1073300003210022CDE90445CDE9024500910892E0
:107340002BB90A4B4FF06042CDE90623DBE7084931
:107350000020022BCDE90601D5D113F0E3FD222355
:107360000360D4E7AFF30080FCD50300FFFFEF47D5
:107370000000F07FEF39FAFE422E864051302DD5C5
:10738000104987C0EA8100202DE9F04FDFF80C9307
:107390008DB006460F4614461D4601F0C5FC99F90E
:1073A0000080B8F1FF3FCDE9000136D022462B46E0
:1073B0002046294614F076FA834670BB32463B4697
:1073C0003046394614F06EFA8246002840F0A2801A
:1073D000304639460022002314F032FA10B300225E
:1073E00000232046294614F02BFA834600286AD051
:1073F0009FEDA17B0122A44BCDF828A00292CDE9FC
:107400000467CDE906458DED087B0393B8F1000FC5
:1074100045D09FED9B7B8DED007BDDE900010DB03C
:10742000BDE8F08FDDE9000113F0EAFB804600289B
:1074300000F08D804FF0000A4FF0000BDDE90001F5
:1074400052465B4614F0FCF90028E6D03046394637
:1074500013F0D6FB0028E0D02046294613F0D0FBDD
:107460000028DAD099F90030874A039204210022DB
:10747000022BCDE90467CDE90645CDE908AB0291C1
:107480000A9203D002A813F0C1FB68B913F04AFDB9
:107490002223036008E09FED787B8DED087B02A836
:1074A00013F0B4FB002830D00A9B1BB113F03AFD57
:1074B0000A9B03609DED087B8DED007BDDE90001FB
:1074C0000DB0BDE8F08F2046294613F099FB002847
:1074D000A3D0002200232046294614F0BBF900283F
:1074E0009BD099F90030684ACDF828B00121CDE948
:1074F0000467CDE9064502910392002BCBD0634986
:107500000020022BCDE90801C9D113F00BFD212386
:107510000360C9E7002200232046294614F090F9B1
:1075200000283FF47AAF5A4B5749CDF828B00022D3
:107530000120B8F1020FCDE904670290CDE90645BC
:10754000CDE908230391AAD1CDE9002365E73046B0
:10755000394613F055FB00283FF46CAF204629460E
:1075600013F04EFB00283FF465AFDDE90023104621
:10757000194614F097F900285FD1032399F9008088
:107580000293414B0A90CDE90467CDE90645039388
:10759000B8F1000F2BD1DFF808B14FF0604A00229C
:1075A000002330463946CDE908AB14F053F90028E2
:1075B0003FF468AF0022374B2046294613F0D8FE2F
:1075C00004460D4613F02AFB02460B462046294688
:1075D00014F036F970BB304B99F900804FF06042DF
:1075E000CDE90823B8F1020F7FF44CAF4EE7DFF886
:1075F000B4B04FF0000A0022002330463946CDE9EE
:1076000008AB14F027F90028ECD00022214B2046CB
:10761000294613F0ADFE04460D4613F0FFFA02466C
:107620000B462046294614F00BF918B9174B0022D7
:10763000CDE9082399F90080D4E799F90090124B1D
:10764000CDF828800122CDE90467CDE906450292F4
:107650000393B9F1000F3FF41EAF00220023104640
:10766000194613F0AFFFB9F1020FCDE908013FF45D
:107670004CAF14E7AFF300800000000000000000F2
:10768000000000000000F03F14D603000000F0FFEF
:107690000000F03F0000E03FFFFFEFC7EA8100205D
:1076A000FFFFEF470000F07F2DE9F84FC44E21F0B7
:1076B0000043B34204460D460DDD03F1404303F59C
:1076C0008013034340F0B980002940F3408100203B
:1076D0000021BDE8F88FBB4EB34240F3A6800029DD
:1076E000C0F2788102460B460020B74913F08CFCAB
:1076F0000022B64B13F03CFE04460D4612F0E2FAAF
:1077000095A3D3E90023894680462946204613F0F5
:107710002FFE93A3D3E9002313F078FC22462B46D7
:1077200013F026FE90A3D3E9002313F06DFC22464C
:107730002B4613F01DFE8EA3D3E9002313F066FC45
:1077400022462B4613F014FE8BA3D3E9002313F03B
:107750005BFC22462B4613F00BFE89A3D3E90023E2
:1077600013F054FC22462B4613F002FE86A3D3E905
:10777000002382468B462046294613F0F9FD84A358
:10778000D3E9002313F040FC22462B4613F0F0FD12
:1077900081A3D3E9002313F039FC22462B4613F0D2
:1077A000E7FD7FA3D3E9002313F02EFC22462B46EE
:1077B00013F0DEFD0022844B13F028FC02460B463A
:1077C0005046594613F0FEFE42464B4613F0D0FD9C
:1077D000002682468B4632464B463046494613F0D9
:1077E000C7FD02460B462046294613F00DFC3246E3
:1077F00004460D464B464046494613F007FC0246F8
:107800000B462046294613F0DDFE02460B46504645
:10781000594613F0FBFB32464B4613F0F7FB02468A
:107820000B4613F0F3FBBDE8F88F694A93420EDC78
:107830005DA1D1E90001BDE8F88F02460B4613F0C7
:10784000E3FB02460B4613F0BDFEBDE8F88F02468F
:107850000B4613F08DFD40A3D3E9002306460F46E7
:1078600013F086FD3EA3D3E9002313F0CFFB32468D
:107870003B4613F07DFD3CA3D3E9002313F0C4FB8A
:1078800032463B4613F074FD39A3D3E9002313F0CD
:10789000BDFB32463B4613F06BFD37A3D3E9002313
:1078A00013F0B2FB32463B4613F062FD34A3D3E93A
:1078B000002313F0ABFB32463B4613F059FD32A3D5
:1078C000D3E90023804689463046394613F050FDFF
:1078D0002FA3D3E9002313F097FB32463B4613F066
:1078E00047FD2DA3D3E9002313F090FB32463B461E
:1078F00013F03EFD2AA3D3E9002313F085FB3246A3
:107900003B4613F035FD00222F4B13F07FFB024660
:107910000B464046494613F055FE22462B4613F0CF
:1079200027FD02460B4622A1D1E9000113F06CFBB2
:1079300002460B462046294613F066FB02460B46DC
:1079400019A1D1E9000113F05FFBBDE8F88F1AA17E
:10795000D1E90001BDE8F88F09F7FD0DE13D023FD7
:1079600088B20175E0EF493F3B8F68B52882A43F9C
:107970005544880E55C1C93F7D6FEB0312D6D43FE5
:10798000555555555555C53F82922EB1C5B8B33F93
:1079900059018D1B6C06E63FC88A599CE52A0040B8
:1079A0004B2D8A1C273A0340182D4454FB21F93FE4
:1079B000075C143326A6913C182D4454FB21094042
:1079C000FFFFEF3FFFFFDF3F0000F03F0000E03F21
:1079D0000000603C00225C4B13F018FB00225B4B64
:1079E00013F0C6FC40A3D3E9002304460D4613F070
:1079F000BFFC3FA3D3E9002313F008FB22462B462C
:107A000013F0B6FC3CA3D3E9002313F0FDFA2246A1
:107A10002B4613F0ADFC3AA3D3E9002313F0F6FA9A
:107A200022462B4613F0A4FC37A3D3E9002313F01E
:107A3000EBFA22462B4613F09BFC35A3D3E9002337
:107A400013F0E4FA22462B4613F092FC8046894656
:107A50002046294612F036F92FA3D3E90023064623
:107A60000F462046294613F083FC2DA3D3E90023BB
:107A700013F0CAFA22462B4613F07AFC2AA3D3E964
:107A8000002313F0C3FA22462B4613F071FC28A3FF
:107A9000D3E9002313F0B8FA22462B4613F068FC12
:107AA0000022294B13F0B2FA02460B4640464946E3
:107AB00013F088FD32463B4613F05AFC1EA3D3E96F
:107AC000002313F0A1FA32463B4613F09FFA024618
:107AD0000B4613F09BFA02460B4619A1D1E90001AF
:107AE00013F092FABDE8F88F09F7FD0DE13D023F72
:107AF00088B20175E0EF493F3B8F68B52882A43F0B
:107B00005544880E55C1C93F7D6FEB0312D6D43F53
:107B1000555555555555C53F82922EB1C5B8B33F01
:107B200059018D1B6C06E63FC88A599CE52A004026
:107B30004B2D8A1C273A0340075C143326A6913C40
:107B4000182D4454FB2109400000F03F0000E03FA5
:107B5000434A91422DE9F84304460D4639DD414A36
:107B6000914209DD02F17952914240DD02460B4615
:107B700013F04CFABDE8F88301F1404202F580129F
:107B8000024330D0B1F1804F3ADC0022364B13F083
:107B90003BFA02460B4604460D4613F037FA2246DE
:107BA00006460F462B462046294613F0E1FB0246C7
:107BB0000B463046394613F029FA12F083F80B468B
:107BC00002462946204613F021FABDE8F843FFF7A4
:107BD000BFB802460B4613F017FA02460B4613F0E5
:107BE000F1FCBDE8F88300200021BDE8F88300F037
:107BF00017FE19A3D3E9002313F008FABDE8F883B0
:107C000002460B4613F0B4FB0022174B13F0FCF9AD
:107C100012F058F82246804689462B4620462946CF
:107C200013F0F4F9424606460F464B4620462946D5
:107C300013F0ECF902460B4600200B4913F0C2FC8E
:107C40000B4602463946304613F0DEF9BDE8F843EC
:107C500000F0E6BDAFF30080EF39FAFE422EE63FBA
:107C6000FFFFEF3FFFFFAF410000F03F00000000CB
:107C70002DE9F047BE4B21F00048984584B00446FA
:107C80000D4612DD08F1404808F58018034658EA11
:107C9000030321D002460B4613F0B6F902460B4609
:107CA00013F090FC04B0BDE8F087B24B98458A46CB
:107CB00029DCB8F1795F80F2658191A3D3E90023D3
:107CC00013F0A4F90022AC4B13F0E2FDD8B120462A
:107CD000294604B0BDE8F0878BA3D3E9002313F055
:107CE00047FB8BA3D3E9002306460F4620462946CF
:107CF00013F03EFB02460B463046394613F086F938
:107D000004B0BDE8F0872046294611F09DF80246F0
:107D10000B460020984913F077F90022974B13F097
:107D200027FB7DA3D3E9002304460D4613F020FB77
:107D30007BA3D3E9002313F069F922462B4613F005
:107D400017FB79A3D3E9002313F05EF922462B46F3
:107D500013F00EFB76A3D3E9002313F057F9224664
:107D60002B4613F005FB74A3D3E9002313F04CF961
:107D700022462B4613F0FCFA71A3D3E9002313F03B
:107D800045F922462B4613F0F3FA6FA3D3E90023FB
:107D9000CDE900012046294613F0EAFA6CA3D3E9A5
:107DA000002313F031F922462B4613F0E1FA6AA3BF
:107DB000D3E9002313F02AF922462B4613F0D8FA10
:107DC00067A3D3E9002313F01FF922462B4613F0D3
:107DD000CFFA694B002213F019F9CDE902012046D0
:107DE000294611F06FFF664B984506460F4666DC44
:107DF000DDE90223DDE9000113F0E4FB3246CDE9C1
:107E000000013B463046394613F000F902460B4666
:107E1000DDE9000113F0ACFA4FF00008CDE90001F4
:107E200042463B464046394613F0A2FA02460B460C
:107E30002046294613F0E8F8424604460D463B46E4
:107E40003046394613F0E2F802460B4620462946F2
:107E500013F0B8FB02460B4613F0D8F802460B4667
:107E60002BA1D1E9000113F0CFF802460B46DDE962
:107E7000000113F0C9F8424604460D463B46404611
:107E8000394613F0C3F802460B4637A1D1E9000189
:107E900013F0BAF802460B462046294613F0B4F810
:107EA00002460B4630A1D1E9000113F0ADF8BAF15A
:107EB000000F3FF7F7AE01F100431946F2E6DDE9A6
:107EC0000223DDE9000113F07DFB32463B4613F04F
:107ED0004FFA32463B4613F099F802460B4613F030
:107EE00095F80BA3D3E9002313F08EF802460B4656
:107EF00005A1D1E9000113F087F8D8E7AFF30080BE
:107F00009C7500883CE4377E182D4454FB21F93FD2
:107F1000075C143326A6913C09F7FD0DE13D023FB5
:107F200088B20175E0EF493F3B8F68B52882A43FD6
:107F30005544880E55C1C93F7D6FEB0312D6D43F1F
:107F4000555555555555C53F82922EB1C5B8B33FCD
:107F500059018D1B6C06E63FC88A599CE52A0040F2
:107F60004B2D8A1C273A0340182D4454FB21E93F2E
:107F7000FFFFEF3FFFFFDF3F0000F03F0000E03F6B
:107F80003233EF3F02460B4613F0F2F937A3D3E941
:107F9000002306460F4613F0EBF936A3D3E900237E
:107FA00013F034F832463B4613F0E2F933A3D3E939
:107FB000002313F029F832463B4613F0D9F931A3D8
:107FC000D3E9002313F022F832463B4613F0D0F9F0
:107FD0002EA3D3E9002313F017F832463B4613F0E3
:107FE000C7F92CA3D3E9002313F010F832463B461F
:107FF00013F0BEF929A3D3E9002380468946304611
:10800000394613F0B5F927A3D3E9002312F0FCFF9A
:1080100032463B4613F0ACF924A3D3E9002312F017
:10802000F5FF32463B4613F0A3F922A3D3E9002320
:1080300012F0EAFF32463B4613F09AF900220A4B4F
:1080400012F0E4FF02460B464046494613F0BAFAE6
:1080500022462B4613F08CF922462B4612F0D6FF0F
:1080600004B0BDE8F08700BF0000F03F09F7FD0D48
:10807000E13D023F88B20175E0EF493F3B8F68B5B3
:108080002882A43F5544880E55C1C93F7D6FEB033C
:1080900012D6D43F555555555555C53F82922EB1F0
:1080A000C5B8B33F59018D1B6C06E63FC88A599C81
:1080B000E52A00404B2D8A1C273A034000000000AF
:1080C0002DE9F84F1D465342134325F0004ADFF8CF
:1080D000E0E14AEAD3737345144606460F4647D893
:1080E000C0F1000848EA000821F0004343EAD878CC
:1080F000F0458B463CD805F1404808F5801858EA11
:10810000020850D04FEAA57808F0020848EAD17872
:1081100050EA030134D052EA0A023CD0F24557D06B
:10812000734538D0A3EB0A031B153C2B42DC002D12
:1081300070DB22462B463046394613F043FA10F0E6
:1081400083FEFEF751FBB8F1010F5FD0B8F1020FCB
:108150004ED0B8F1000F62D043A3D3E9002312F050
:1081600053FF43A3D3E9002312F04EFFBDE8F88F7D
:1081700032463B462046294612F048FFBDE8F88FBC
:10818000B8F1020F1AD0B8F1030F10D13AA1D1E91A
:108190000001BDE8F88FBBF1000F14DB38A1D1E975
:1081A0000001BDE8F88FBDE8F84FFEF71DBB39466A
:1081B000BDE8F88F32A1D1E90001C4E72CA1D1E9D3
:1081C0000001BDE8F88F30A1D1E90001BDE8F88FCA
:1081D000534526D0B8F1020FF0D0B8F1030FD5D037
:1081E000B8F1010F4FF0000029D00021BDE8F88F51
:1081F0001DA3D3E9002312F007FF02460B461CA182
:10820000D1E9000112F000FFBDE8F88F01F1004153
:10821000BDE8F88F3C338CDA0020002193E7BDE8FD
:10822000F88FB8F1020F18D0B8F1030F10D0B8F1E1
:10823000010F08D016A1D1E90001BDE8F88F4FF079
:108240000041BDE8F88F14A1D1E90001BDE8F88F25
:1082500013A1D1E90001BDE8F88F13A1D1E9000114
:10826000BDE8F88FAFF30080075C143326A6A13C6D
:10827000182D4454FB210940182D4454FB2109C0FA
:10828000182D4454FB21F93F182D4454FB21F9BF0C
:10829000182D4454FB21E93F182D4454FB21E9BF1C
:1082A000D221337F7CD902C0D221337F7CD90240D6
:1082B0000000F07F0000000043422DE9F047034337
:1082C00021F000463E4A46EAD373934204460D46E7
:1082D00013D896423DD03B4B9E428A4617DC36A3CC
:1082E000D3E9002312F092FE0022002313F0D0FA0B
:1082F000A8B320462946BDE8F08702460B4612F097
:1083000083FE02460B4613F05DF9BDE8F0872E4B65
:108310009E42354624DD33460246314612F076FE53
:10832000224606460F462B460020254912F06CFED9
:1083300002460B463046394613F044F9FEF708FD75
:108340000022224B13F014F8BAF1000F2FDBBDE826
:10835000F0870022002313F035F9BDE8F087354699
:1083600022462B462046294612F050FE22462B4636
:1083700006460F4612F0FCFF2246804689462B46F1
:1083800000200F4912F040FE02460B464046494687
:1083900013F018F932463B4612F038FEFEF7D8FCCF
:1083A00000220A4B12F0E4FFBAF1000FCFDA01F11C
:1083B00000431946BDE8F0879C7500883CE4377E91
:1083C0000000F03FFFFF2F3EFFFFDF3F0000E03FD8
:1083D0002DE9F8434E4B21F000449C4206460F46DF
:1083E0001BDC4C4B9C4222DD4B4B9C4263DD4B4BD8
:1083F0009C427BDD4A4B9C4246DD01339C4240D08F
:1084000041A3D3E900231046194612F0B1FF0646F6
:108410000F4630463946BDE8F88302460B4612F057
:10842000A7FF06460F4630463946BDE8F88310F0F0
:108430000BFD02F0B1FC00223A4B8046894612F057
:10844000E5FDB4F1725F06460F46ECDB42464B4653
:108450004046494612F08CFF32463B4604460D46E4
:108460003046394612F0D2FD02460B4620462946D8
:1084700013F0A8F800222B4B12F0C8FD06460F4659
:10848000D1E7294B9842BBD83046394610F0DCFC86
:108490000022264B12F06CFF00F04AF8002204463E
:1084A0000D46224B12F064FF22462B4612F060FF6D
:1084B00006460F46B7E710F0C7FC00F039F8002277
:1084C0001A4B06460F4612F053FF32463B4604460F
:1084D0000D460020154913F075F802460B4620465C
:1084E000294612F093FD06460F469CE710F0ACFCBF
:1084F00000F01EF800220D4B12F03AFF06460F4620
:1085000091E700BFAFF300809C7500883CE4377EA4
:10851000FFFFEF7F422ED63FFFFF3540412E8640C2
:10852000CD3386400000F03F7DF8B98F0000E03F7A
:108530002DE9F04FB04E21F00042B24283B0044624
:108540000D464FEAD1770DD9AC4EB24225D9C1F3D1
:108550001303034340F0EC800FB10020002103B06F
:10856000BDE8F08FA64B9A4200F2CB80A54B9A4211
:1085700000F2DC808AA3D3E9002312F047FD002239
:10858000A14B13F085F9002800F00681204629460A
:1085900000229D4B12F03AFDE1E783A3D3E90023CB
:1085A00013F076F9002840F0C88081A3D3E90023B6
:1085B0002046294613F04EF90028CED1934E7EA3D3
:1085C000D3E9002306EBC7062046294612F0D0FE69
:1085D000D6E9002312F01AFD13F07AF9064612F0DC
:1085E00061FE77A3D3E900238046894612F0C0FEDE
:1085F00002460B462046294612F006FD72A3D3E937
:108600000023CDE900014046494612F0B1FE824602
:108610008B4652465B46DDE9000112F0F5FC04464C
:108620000D4622462B462046294612F0A1FE68A39D
:10863000D3E900238046894612F09AFE66A3D3E967
:10864000002312F0E1FC42464B4612F091FE64A377
:10865000D3E9002312F0DAFC42464B4612F088FEC2
:1086600061A3D3E9002312F0CFFC42464B4612F03F
:108670007FFE5FA3D3E9002312F0C8FC42464B46BD
:1086800012F076FE02460B462046294612F0BCFC4C
:1086900080468946002E58D02046294642464B4601
:1086A00012F066FE424604460D464B4600204FF04F
:1086B000804112F0A9FC02460B462046294612F0E2
:1086C00081FF02460B465046594612F09DFCDDE9FB
:1086D000002312F099FC0B4602464B49002012F091
:1086E00093FC6FF47F739E4251DA06F57A7601EBC4
:1086F000065100224FF0B87312F03AFE03B0BDE805
:10870000F08F434B9A423FF659AF424BFC00234453
:10871000D3E9002312F078FC3F4BC7F10106234454
:10872000CDE90001D3E900ABF61B72E7002678E73C
:1087300002460B4612F06AFC11E719A3D3E90023A5
:108740001046194612F014FE09E702460B46204671
:10875000294612F00DFE002206460F464FF08043D8
:108760004046494612F050FC02460B463046394618
:1087700012F028FF22462B4612F046FC02460B461A
:108780000020214912F040FC03B0BDE8F08F01EB5E
:10879000065103B0BDE8F08F064642E7AFF3008014
:1087A0009C7500883CE4377EEF39FAFE422E864005
:1087B00051302DD5104987C0FE822B654715F73FF4
:1087C0000000E0FE422EE63F763C7935EF39EA3D87
:1087D000D0A4BE726937663EF16BD2C541BDBB3EC7
:1087E0002CDE25AF6A56113F93BDBE166CC1663FA5
:1087F0003E5555555555C53F412E8640FFFFEF7FED
:10880000422ED63FFFFF2F3E0000F03FE8C5030099
:10881000B1A2F03FF8C5030008C603000000000045
:108820002DE9F04FB1F5801F85B006460F460B4687
:108830005ADA024621F00044224300F0F880002971
:10884000C0F27A810022D64B12F092FDD54A0B4637
:10885000934206460F466FF0350C4ADCC3F313050E
:1088600005F5152E0EF6647E0EF4801E8EF07F52F6
:1088700082F440121C1542EA0507A4F2FF34644456
:108880000022C94B3046394604EB1E5412F0BCFBA3
:10889000AB1CC3F31303022B82468B464FF000023E
:1088A00030DC002312F0CCFF002800F0C980002C3F
:1088B00000F04B81204612F0F5FCA5A3D3E900237C
:1088C00006460F4612F054FDA3A3D3E90023044645
:1088D0000D463046394612F04BFD02460B46204607
:1088E000294612F093FB0AE0AE4A93424FF0000C87
:1088F000B4DD32463B463046394612F087FB05B0C0
:10890000BDE8F08F4FF0804312F080FB02460B462B
:108910005046594612F056FE064620460F4612F0C3
:10892000C1FC3246CDE900013B4630463946CDE92F
:10893000026712F01DFD02460B468046894612F082
:1089400017FD87A3D3E9002306460F4612F010FD5A
:1089500085A3D3E9002312F059FB32463B4612F0BF
:1089600007FD83A3D3E9002312F050FB32463B46B8
:1089700012F0FEFC80A3D3E9002312F047FB42462D
:108980004B4612F0F5FC7EA3D3E9002380468946CE
:108990003046394612F0ECFC7BA3D3E9002312F0F9
:1089A00035FB32463B4612F0E3FC79A3D3E90023C2
:1089B00012F02CFB32463B4612F0DAFC0B46024624
:1089C0004946404612F022FBA5F5C223C5F5D7253E
:1089D000A3F27A4351351D43002D8046894656DD6A
:1089E0000022724B5046594612F0C2FC52465B467A
:1089F00012F0BEFC06460F46002C68D132463B46BC
:108A00004046494612F002FBDDE9022312F0B0FCB9
:108A100002460B463046394612F0F6FA02460B463D
:108A20005046594612F0F0FA05B0BDE8F08F00222A
:108A3000002300205E4912F0C5FD05B0BDE8F08FAF
:108A400055A3D3E900235046594612F091FC024643
:108A50000B460020554912F0D7FA524606460F46FB
:108A60005B465046594612F083FC02460B463046A0
:108A7000394612F07DFC06460F46002C40F09A80E5
:108A800002460B465046594612F0BEFA37E7002C14
:108A900000F0A4802EA3D3E90023DDE9000112F049
:108AA00067FC42464B4604460D465046594612F076
:108AB000ABFADDE9022312F05BFC27A3D3E9002324
:108AC00006460F46DDE9000112F052FC21E020A32A
:108AD000D3E90023DDE9000112F04AFC32463B46AF
:108AE00004460D464046494612F090FADDE902235D
:108AF00012F03EFC18A3D3E9002380468946DDE945
:108B0000000112F035FC02460B464046494612F081
:108B10007DFA02460B463046394612F075FA524647
:108B20005B4612F071FA02460B462046294612F0C7
:108B30006BFA05B0BDE8F08F02460B4612F064FAFE
:108B40000022002312F03EFDD9E600200021D6E6E7
:108B50000000E0FE422EE63F763C7935EF39EA3DF3
:108B600044523EDF12F1C23FDE03CB966446C73F5C
:108B7000599322942449D23F935555555555E53F75
:108B80009FC678D0099AC33FAF788E1DC571CC3F80
:108B900004FA97999999D93F555555555555D53F4B
:108BA00000005043FFFFEF7F0000F03F0000E03F78
:108BB000000050C3204612F075FB0FA3D3E9002339
:108BC0008046894612F0D4FB0DA3D3E90023044666
:108BD0000D464046494612F0CBFB9AE702460B464B
:108BE0005046594612F010FADDE9022312F0C0FB9C
:108BF00014E700BFAFF300800000E0FE422EE63F26
:108C0000763C7935EF39EA3DB1F5801F2DE9F8431F
:108C100004460D460B461ADA024621F0004632435E
:108C200059D000295FDB00223B4B12F0A1FB3B4AED
:108C30000D462B46934204466FF035010CDD22466B
:108C40002B462046294612F0E1F9BDE8F883334A65
:108C500093424FF00001F2DC1815A0F2FF300844F7
:108C60004FEAD0794844C3F3130812F01BFBC9F54F
:108C70007F73033348EA035506460F4620462946CC
:108C8000FFF7CEFD1EA3D3E9002380468946304678
:108C9000394612F06DFB1CA3D3E9002304460D46B0
:108CA0004046494612F064FB02460B4620462946E0
:108CB00012F0ACF916A3D3E9002304460D46304662
:108CC000394612F055FB02460B462046294612F063
:108CD0009DF9BDE8F883002200230020104912F01E
:108CE00071FCBDE8F88302460B4612F08DF90022B4
:108CF000002312F067FCBDE8F88300BFAFF30080EB
:108D0000362BF111F3FE593D0EE526157BCBDB3FEB
:108D100000609F501344D33F00005043FFFFEF7F9C
:108D2000000050C3000000002DE9F04F23F0004781
:108D300057EA020493B037D0674C21F00046A642B0
:108D400083460D4629DC9A46964625D0A74224DC68
:108D5000614CA74279D0002D80468946CDE9002399
:108D600077DB0024BEF1000F2CD15B4B9F4200F05B
:108D70008B805A4B9F4261D0BAF1804F00F0C38381
:108D8000574B9A451ED1002D1CDB4046494613B077
:108D9000BDE8F04F10F096BF58B106F1404606F519
:108DA000801656EA0B0306D14C49002013B0BDE8EB
:108DB000F08FB742CCDD4B4813B0BDE8F04F11F057
:108DC00027BF00244046494610F03EF8BBF1000F93
:108DD00019D126B1414B25F040429A4213D1BAF144
:108DE000000FC0F2CA83002DE0DA06F1404606F516
:108DF000801656EA040300F0A584012CD6D101F1B7
:108E000000431946D2E7ED0F013D54EA05034ED069
:108E1000354B9F426EDD03F104739F4240F3FE83A6
:108E2000324B9E424EDDBAF1000F4EDD28A3D3E94E
:108E300000231046194612F09BFAB7E7BAF1000F6B
:108E4000C0F2528440464946B0E7BEF1000F82D0DE
:108E5000A3E7274B9F4228DCA3F154739F4280DD98
:108E60003B15A3F2FF33142B40F35484C3F13403B6
:108E70002EFA03F202FA03F39E457FF472AF02F07A
:108E80000102C2F102046DE706F1404303F58013CD
:108E900053EA0B0388D0154B9E4240F33B83BAF153
:108EA000000F12DBDDE9000180E702245AE74246A9
:108EB0004B461046194612F0A7F802460B4612F030
:108EC00081FB73E7BAF1000FB0DB002000216DE7F2
:108ED0009C7500883CE4377E0000F07F0000F03F86
:108EE0000000E03F18CD03000000E041FFFFEF3F2E
:108EF000FFFF3F43B6F5801F4FF0000205DAD84B65
:108F000012F036FA6FF034020E463315D54FC6F321
:108F10001306A3F2FF33134446F07F5ABE421A46AB
:108F20000D934AF4401A40F32F83CF4B9E4240F3F7
:108F30000D849FEDB57B8DED087B8DED0E7B9FED58
:108F4000B47B13468DED067B01330D93AAF5801A91
:108F50000027DDE906235146CDE90A0112F054F855
:108F6000DDE9062380468946DDE90A0112F04EF864
:108F700002460B460020BD4912F024FB0A4601467A
:108F8000CDE91012134649460246404612F0F0F968
:108F90004FEA6A0343F000538C46834603F50023EF
:108FA000CDE904BCDA468B46D9190023CDE902ABE2
:108FB0000293DDE902AB002006460F4602460B464F
:108FC0005046594612F0D4F902460B4640464946EF
:108FD00012F01AF8DDE90623804689463046394604
:108FE00012F012F802460B46DDE90A0112F00CF805
:108FF00052465B4612F0BCF902460B4640464946D3
:1090000012F002F8DDE9102312F0B2F9DDE904678D
:10901000CDE9060132463B463046394612F0A8F902
:109020007DA3D3E9002306460F4612F0A1F97CA3E5
:10903000D3E9002311F0EAFF32463B4612F098F9DB
:1090400079A3D3E9002311F0E1FF32463B4612F049
:109050008FF977A3D3E9002311F0D8FF32463B46BE
:1090600012F086F974A3D3E9002311F0CFFF324642
:109070003B4612F07DF972A3D3E9002311F0C6FF3D
:109080003246804689463B463046394612F070F9F2
:1090900002460B464046494612F06AF952460646D9
:1090A0000F465B46DDE9040111F0B0FFDDE9062360
:1090B00012F05EF932463B4611F0A8FF5246804658
:1090C00089465B465046594612F052F90022684BD9
:1090D000CDE90A0111F09AFF42464B4611F096FF86
:1090E00002980F46064632463B465046594612F015
:1090F0003FF9002282468B465D4B3046394611F0DF
:1091000083FFDDE90A2311F07FFF02460B4640464C
:10911000494611F079FFDDE9042312F029F93246BE
:10912000804689463B46DDE9060112F021F90246F8
:109130000B464046494611F069FF80468946024683
:109140000B4650465946CDE904AB11F05FFFDDE90F
:1091500002AB3DA3D3E9002350460F4612F008F9B5
:10916000DDE90423CDE902013946504611F04CFFF8
:1091700002460B464046494611F046FF34A3D3E968
:10918000002312F0F5F834A3D3E900238046894682
:109190005046394612F0ECF802460B464046494626
:1091A00011F034FFDDE90E2311F030FF80460D98F9
:1091B000894612F077F8424606460F464B46DDE9EF
:1091C000020111F023FFDDE9082311F01FFF3246F1
:1091D0003B4611F01BFF32463B4650468B4611F092
:1091E00013FFDDE9082311F00FFFDDE9022311F081
:1091F0000BFF02460B464046494611F005FF8046EC
:10920000894637E0AFF30080000000000000000056
:10921000000000000000F03FEF4E454A287ECA3FA4
:1092200065DBC9934A86CD3F01411DA96074D13FDA
:109230004D268F515555D53FFFAB6FDBB66DDB3FEC
:10924000033333333333E33F000000E009C7EE3F1D
:10925000FD033ADC09C7EE3FF5015B14E02F3EBE8B
:10926000000040438E98030079B60B000000F03FE9
:1092700000000840013C54EA050300F079819FEDAD
:10928000C87B8DED047BDDE900120B461446CDE969
:10929000023400230293DDE9024508462B461146BD
:1092A000224611F0B1FE52465B4612F061F8DDE94C
:1092B000002306460F464046494612F059F802463A
:1092C0000B463046394611F0A1FE224680468946BB
:1092D0002B4650465946CDE9008912F049F80B4615
:1092E000024606460F464046494611F08FFEC64BE1
:1092F000994204460D468A4640F3168101F13F43E8
:1093000003F5E003034340F0F781A7A3D3E900236B
:10931000DDE9000111F07AFE3246804689463B467F
:109320002046294611F070FE02460B46404649464B
:1093300012F0AEFA002840F0DF81A8464FEA285329
:109340004FF48012A3F2FE3342FA03F35344C3F303
:109350000A52AE4DA2F2FF321541C3F3130423EAC1
:1093600005010020C2F1140B44F48014BAF1000F7F
:1093700002460B4644FA0BFB30463946B8BFCBF1E8
:10938000000B11F041FE02460B4606460F46DDE992
:10939000000111F03BFE4FEA0B5A0D46002484A356
:1093A000D3E900232046294611F0E2FF32468046E9
:1093B00089463B462046294611F026FE02460B46CA
:1093C000DDE9000111F020FE7BA3D3E9002311F0B9
:1093D000CFFF7BA3D3E9002306460F46204629464C
:1093E00011F0C6FF02460B463046394611F00EFE1C
:1093F00006460F4602460B464046494611F006FE19
:1094000042464B4604460D4611F0FEFD02460B4611
:109410003046394611F0F8FD2246804689462B46F3
:109420002046294611F0A4FF67A3D3E9002306468E
:109430000F4611F09DFF66A3D3E9002311F0E4FD70
:1094400032463B4611F094FF63A3D3E9002311F0A9
:10945000DDFD32463B4611F08BFF61A3D3E90023CB
:1094600011F0D2FD32463B4611F082FF5EA3D3E9F4
:10947000002311F0CBFD32463B4611F079FF024646
:109480000B462046294611F0BFFD06460F46024610
:109490000B462046294611F06BFF0022CDE9000162
:1094A0004FF080433046394611F0AEFD02460B4680
:1094B000DDE9000112F086F8424606460F464B46AB
:1094C0002046294611F054FF42464B4611F09EFDBE
:1094D00002460B463046394611F096FD22462B4691
:1094E00011F092FD02460B460020494911F08CFD17
:1094F0008A44BAF5801FC0F239815146DDE9042360
:1095000011F036FF52E442464B464046494611F0C0
:109510002FFF4BE4BAF1000FBFF6D7ACDDE9003402
:10952000184604F1004141E43A4B21F000489845C7
:1095300040F3FF80384B0B4403430CD132463B468B
:1095400011F062FD02460B46DDE9000112F08CF9D4
:1095500000283FF4F3AEDDE9040125A3D3E900239D
:1095600011F006FF22A3D3E9002311F001FF1DE44F
:109570009FED217B8DED047B85E602460B460020A6
:10958000234912F01FF82EE49FED1D7B8DED087B23
:109590008DED0E7B9FED027B00278DED067BD8E4E1
:1095A000000000000000F03FFE822B654715973C4D
:1095B00000000000432EE63FEF39FAFE422EE63F60
:1095C000396CA80C615C20BED0A4BE726937663EBF
:1095D000F16BD2C541BDBB3E2CDE25AF6A56113FB3
:1095E00093BDBE166CC1663F3E5555555555C53F9A
:1095F00059F3F8C21F6EA501000000000000F0BF83
:109600000000000000000000FFFF8F40FFFF0F0080
:109610000000F03FFFCB904000346F3F684B9E420C
:109620007FF750AC674B9E423FF7FDAB0022654B86
:1096300011F0EAFC52A3D3E9002306460F4611F0CD
:1096400097FE51A3D3E90023804689463046394628
:1096500011F08EFE002282468B465B4B3046394627
:1096600011F086FE02460B4649A1D1E9000111F036
:10967000CBFC32463B4611F07BFE02460B460020F7
:10968000524911F0C1FC3246CDE902013B46304659
:10969000394611F06DFE02460B46DDE9020111F07C
:1096A00067FE3DA3D3E9002311F062FE02460B469C
:1096B0005046594611F0A8FC02460B4606460F4696
:1096C0004046494611F0A2FC42464B4600208246E5
:1096D0008B4611F099FC02460B463046394611F094
:1096E00093FC80468946C5E542464B4600203549F5
:1096F00011F068FFFFF75ABBDDE9040128A3D3E9A5
:10970000002311F035FE26A3D3E9002311F030FE2B
:10971000FFF74CBBBEF1000F7FF453ABC3F1140352
:1097200047FA03F202FA03F39F4223D07446FFF78D
:1097300020BB264B98453FF701AEDDE90223924658
:1097400093462BE602460B46FFF7B3BB9FED167B15
:109750008DED087B9FED167B8DED0E7B9FED167BCF
:109760004FF480278DED067BFFF7F3BB5A4601F0DF
:109770004FFDC3E602F00102C2F10204FFF7F9BA9D
:10978000000000604715F73F44DF5DF80BAE543E24
:10979000555555555555D53FFE822B654715F73F15
:1097A0009C7500883CE4377E0000004003B8E23F2F
:1097B00006D0CF43EBFD4C3E000000000000F83F18
:1097C000FEFFEF3F0000F03F0000D03F0000E03F11
:1097D0002DE9F0479C4B21F000479F4290B0804616
:1097E000894640F38E80994B9F420C46924626DC78
:1097F00000298BA3D3E9002340F3B08111F004FCCE
:10980000934B9F4204460D4600F0908086A3D3E917
:10981000002311F0F9FB02460B46CAE9002320465B
:10982000294611F0F1FB80A3D3E9002311F0ECFBF2
:109830000125CAE90201284610B0BDE8F087854B32
:109840009F4240F39080844B9F4265DC3D15A5F21A
:109850001645A7EB055319461F46064612F038F881
:1098600011F020FD8046894642464B463046394637
:10987000CDE90A8911F0C8FB0022784B11F078FD80
:109880008946804612F024F811F00CFD06460F467A
:1098900032463B4640464946CDE90C6711F0B4FBE1
:1098A00000226E4B11F064FD00220023CDE90E0171
:1098B00011F0C6FF002800F06F81002330463946C2
:1098C000002211F0BDFF002814BF01230223644AC7
:1098D000019202212A4600910AA8514600F08CFB11
:1098E000002C054614DADAF80420DAF80C3002F11C
:1098F000004203F100434542CAF80420CAF80C3084
:1099000006E000200021C2E90089C2E90201002529
:10991000284610B0BDE8F08702460B4611F074FBF4
:109920000025CAE90201CAE90001F1E740A3D3E931
:10993000002311F069FB40A3D3E900230D46044640
:1099400011F062FB02460B46CAE900232946204675
:1099500011F05AFB38A3D3E9002311F055FB012580
:10996000CAE90201D4E70FF06FFA35A3D3E9002367
:109970008046894611F0FCFC00223A4B11F046FB70
:1099800011F0A6FF054611F08DFC25A3D3E90023B5
:10999000CDE9060111F0ECFC02460B464046494673
:1099A00011F032FB20A3D3E90023CDE90201DDE968
:1099B000060111F0DDFC1F2D80468946CDE90489A2
:1099C00054DC294B6A1E53F822309F424ED0024687
:1099D0000B46DDE9020111F017FB80468946CAE912
:1099E000008942464B46DDE9020111F00DFBDDE93D
:1099F000042311F009FB002CCAE9020188DA09F1FD
:109A0000004401F100436D42CAF80080CAF80440E6
:109A1000CAF80800CAF80C307AE700BFAFF300803C
:109A200000004054FB21F93F3163621A61B4D03D1C
:109A30000000601A61B4D03D7370032E8A19A33BF5
:109A400083C8C96D305FE43FFB21E93F7BD9024009
:109A5000FB21F93FFB213941FFFFEF7F00007041FF
:109A6000B8D603000000E03F38D60300DDE9042348
:109A7000DDE9020111F0C8FA3F15C1F30A53FB1AE0
:109A800080468946102BCAE90089AADD58A3D3E98C
:109A90000023DDE9060111F06BFC80468946024691
:109AA0000B46DDE9020111F0AFFA02460B46DDE993
:109AB0000201CDE9082311F0A7FA42464B4611F006
:109AC000A3FA4DA3D3E9002380468946DDE90601C8
:109AD00011F04EFC42464B4611F096FA0B46CDE98A
:109AE00004010246DDE9080111F08EFAC1F30A53C0
:109AF000FF1A80468946312FCAE900896CDD41A3EF
:109B0000D3E90023DDE9060111F032FCDDE9088923
:109B100006460F4602460B464046494611F074FA87
:109B200002460B4640464946CDE9022311F06CFA45
:109B300032463B4611F068FA34A3D3E900230646C7
:109B40000F46DDE9060111F013FC32463B4611F0E9
:109B50005BFA02460B46CDE904233AE711F056FAC8
:109B6000274B9F4204460D4618D01FA3D3E900237C
:109B700011F04CFA02460B46CAE90023294620465A
:109B800011F042FA18A3D3E9002311F03FFA4FF085
:109B9000FF35CAE90201BBE6032398E614A3D3E923
:109BA000002311F033FA14A3D3E900230D46044631
:109BB00011F02CFA02460B46CAE90023294620463A
:109BC00011F022FA0CA3D3E9002311F01FFA4FF091
:109BD000FF35CAE902019BE69DED087B8DED027B16
:109BE000FFE600BFAFF300803163621A61B4D03D7D
:109BF0000000601A61B4D03D7370032E8A19A33B34
:109C0000FB21F93F0000002E8A19A33BC149202502
:109C10009A837B3900000000594A2DE9F84F21F062
:109C20000048904506460F462BDC564B0029B4BF32
:109C3000554D564D98454FF0000410DC544B984557
:109C400070DC4DA3D3E9002311F0E0F90022514B61
:109C500011F01EFED8B130463946BDE8F88F4E4BA4
:109C600098457CDD4D4B984544DD013398453ED009
:109C70003046394640A3D3E9002311F079FBBDE813
:109C8000F88F02460B4611F0C1F9BDE8F88F304657
:109C900039460FF0D9F801F07FF806460F463246F4
:109CA0003B463046394611F0B1F9324682468B4682
:109CB0003B463046394611F05BFB00228046894620
:109CC000344B3046394611F0A1F902460B46404666
:109CD000494611F077FC02460B465046594611F0B2
:109CE00093F922462B4611F043FBBDE8F88F2C4B2D
:109CF0009842BDD8304639460FF0A6F80022234BD3
:109D000011F036FBFEF714FC06460F4602460B46E2
:109D10002046294611F02CFB32463B4611F028FB29
:109D2000BDE8F88F0FF090F801F036F81D4B98451C
:109D300006460F46B3DD0022164B11F067F90246C6
:109D40000B463046394611F03DFC32463B4611F099
:109D50005DF922462B4611F00BFBBDE8F88F0FF0A2
:109D600073F8FEF7E5FB02460B462046294611F044
:109D7000FFFABDE8F88F00BF3374AC3C1F7BAC7FAB
:109D8000FFFFEF7FFFFF35400000E0BF0000E03F36
:109D9000FFFF2F3E0000F03F412E8640CD3386402E
:109DA0007DF8B98FFFFFEF3F2DE9F04F21F000481C
:109DB000B8F1795F85B006460F4692469B466BDA4E
:109DC00011F086FD002800F0EA8032463B4630461E
:109DD000394611F0CDFA74A3D3E9002304460D46A9
:109DE00011F0C6FA72A3D3E9002311F00FF922464D
:109DF0002B4611F0BDFA70A3D3E9002311F004F94A
:109E000022462B4611F0B4FA6DA3D3E9002311F0DA
:109E1000FDF822462B4611F0ABFA6BA3D3E90023E1
:109E200011F0F2F822462B4611F0A2FA68A3D3E90A
:109E3000002311F0EBF822462B4611F099FACDE9F8
:109E400000010022664B2046294611F091FADDE917
:109E50000023804689462046294611F089FA524659
:109E600004460D465B463046394611F081FA0246FB
:109E70000B462046294611F0C7F802460B464046DD
:109E8000494611F0C1F802460B460020554911F031
:109E9000BBF805B0BDE8F08F02460B4611F068FA3A
:109EA00041A3D3E9002304460D4611F061FA40A313
:109EB000D3E9002311F0AAF822462B4611F058FAF4
:109EC0003DA3D3E9002311F09FF822462B4611F061
:109ED0004FFA3BA3D3E9002311F098F822462B4612
:109EE00011F046FA38A3D3E9002311F08DF8224689
:109EF0002B4611F03DFA36A3D3E9002311F086F882
:109F00002B46224611F034FA374B9845CDE9000133
:109F100097DD364B984539DCA8F500130022002068
:109F200030499046994611F06FF8CDE902010022C0
:109F30002B4B2046294611F01BFA42464B4611F0A6
:109F400063F8DDE90023804689462046294611F062
:109F50000FFA524604460D465B463046394611F02C
:109F600007FA02460B462046294611F04DF80246F4
:109F70000B464046494611F047F802460B46DDE9DC
:109F8000020111F041F805B0BDE8F08F9FED127BA2
:109F90004FF000088DED027BDFF85490C7E71149C0
:109FA000002005B0BDE8F08FD43888BEE9FAA8BD1E
:109FB000C4B1B4BD9EEE213EAD529C804F7E923E18
:109FC0009015CB19A001FA3E7751C1166CC1563FCE
:109FD0004C5555555555A53F000000000000E73F82
:109FE0000000E03F0000F03F3233D33F0000E93F84
:109FF0000000D23F000000002DE9F04FADF51B7DC1
:10A000009F4CA49E9F4D54F8264007942646D41E8C
:10A0100085FB0475E417C4EBA50424EAE4741D462B
:10A020000A93631CA3EB8303013D02EBC303069376
:10A030002B460B940395651BF418049008911AD4D1
:10A040002C440026002701340DF18808DDF8949295
:10A0500008E059F8250011F025F90135A542E8E896
:10A06000020108D0002DF4DA013530463946A54208
:10A07000E8E80201F6D1079B002BC0F2DF83079BC3
:10A0800003F1010B0A9B22A9DB001A4601EB03092D
:10A090000093049B0DF5E47A19460AEBCB0B01EB18
:10A0A0000208039B002BC0F2F582049C4D4600265B
:10A0B000002775E90223F4E8020111F059F902467C
:10A0C0000B463046394610F0A1FF444506460F4680
:10A0D000EFD1EAE80267DA4509F10809E1D1079909
:10A0E0000098049C009101F18043013B9B002044B7
:10A0F0001A1F83460EA8024403440C920D93009A43
:10A100009AA901EBC203002A53E9284529DD0DF580
:10A11000E47A0AEBC2080DF1340900225A4B2046BA
:10A12000294611F025F911F0D3FB11F0BBF80022FC
:10A13000564B06460F4611F01BF902460B462046C9
:10A14000294610F061FF11F0C3FB78E9022349F8BA
:10A15000040F3946304610F059FFD04504460D46ED
:10A16000DBD1DDF81890204629464A4601F050F828
:10A1700000224FF07F5304460D4611F0F9F8FCF72A
:10A180005FFD0022424B11F0F3F802460B462046D9
:10A19000294610F039FF0D46044611F099FB804620
:10A1A00011F080F80B4602462946204610F02CFF9D
:10A1B0004B46002B06460F4640F3F980009A0EA945
:10A1C000013AC9F1180351F8225045FA03F101FA96
:10A1D00003F30EA8EB1A40F82230C9F117058844A2
:10A1E00043FA05F5002D6DDD009B002B08F10108F9
:10A1F00040F36F820E9C002C40F01683009B012BD5
:10A2000040F38F820EAA012352F8044F002C00F075
:10A210008382581C0EAAC4F1807442F82340009A2D
:10A22000824219DD0EAA0EAC52F820106FF07F4268
:10A23000511A44F820100099023399420CDD10465F
:10A24000009A0EA901EB830301EB82011A68821ABE
:10A2500043F8042B8B42F9D1069B002B1ADD069B99
:10A26000012B4FF0010440F03C82009B5A1E0EABC4
:10A270000EA953F82230C3F3160341F822303CE212
:10A2800058DB0300ABAAAA2A0000703E0000704110
:10A2900000002040022D15D132463B460020924955
:10A2A00010F0B2FE06460F46069A8F49002000F0D5
:10A2B000AFFF02460B463046394610F0A5FE022598
:10A2C00006460F46002200233046394611F0B8FA00
:10A2D000002800F03782009A079B501E83420FDC53
:10A2E00002F18043013B0EAA0D9C02EB8303002286
:10A2F00053F80419A34242EA0102F9D1002A67D1B6
:10A30000079B0EAA013B52F82330002B40F0188225
:10A310000C9A012352F8041901330029FAD0009A4B
:10A32000D31802F1010A9A4509933DDC009B0A9972
:10A330000B9A0B4409990AEB0208994622AB08F1E3
:10A34000804803EBC9098B18A59A08F1FF3802EB86
:10A35000880872AA02EBCA0AA59A02EB830300934B
:10A3600058F8040F10F09EFF039B002BE9E8020150
:10A370004FF000064FF0000711DB049C4D4675E9D5
:10A380000223F4E8020110F0F3FF02460B463046C8
:10A39000394610F03BFE5C4506460F46EFD1009B68
:10A3A0009845EAE80267DBD1099B0093A7E606D14E
:10A3B000009B0EAA013B52F82350ED1512E7002234
:10A3C0004A4B11F05BFA002840F06E81054679E7B0
:10A3D0000EA9039551F820300699CDF8248018393C
:10A3E0000246009006916BB900F18043013B0EA834
:10A3F00000EB830353F80409013A18390028F9D017
:10A4000000920691069A3849002000F001FF009B57
:10A41000002B04460D46C0F2F781DA0072A901EB69
:10A42000020B06920EAA02EB8306DFF8C4904FF0EF
:10A4300000080BF10807043656F8040D10F032FF3F
:10A4400022462B4610F094FF4B4667E90201424634
:10A450002046294610F08CFF0EAB9E4204460D4666
:10A46000EAD14AACDDF81C9004944FF0000AB9F12F
:10A47000000FC0F22B81DFF87C805D4618A1D1E986
:10A48000000100260027002403E0544510DCF8E812
:10A490000201F5E8022310F06BFF02460B4630463E
:10A4A000394610F0B3FD0134A14506460F46ECDAFB
:10A4B000049B03EBCA03ABF1080BC3E9006770AB65
:10A4C0009B450AF1010AD2D1A49B049C032B00F204
:10A4D0008980DFE803F0C58E8E1100BFAFF30080E6
:10A4E00000000040FB21F93F0000F03F0000E03F8A
:10A4F0000000703E30C60300009B002B40F38181BA
:10A50000069A04EB020ADAE9008902F108052544FB
:10A510000DF5987B1AED027B42464B4651EC170B2A
:10A520008DED047B10F072FD06460F4602460B4689
:10A53000DDE9040110F068FD42464B4610F066FD6F
:10A5400065E902015D45B046B9466AE90267E1D1B5
:10A55000009B012B40F35581069BE518D5E9008946
:10A5600003F1080B04EB0B0A15ED027B42464B4648
:10A5700051EC170B8DED007B10F048FD06460F46A1
:10A5800002460B46DDE9000110F03EFD4B46424617
:10A5900010F03CFD6AE902014EAB5345B046B946A6
:10A5A00065E90267E0D10020002104EB0B0575E9A5
:10A5B000022310F02BFDAA45F9D1039B002B00F0DC
:10A5C0000A816268E368089F2568A4683D6002F11B
:10A5D000004203F1004301F100417A60FB60BC607E
:10A5E00038617961099B03F007000DF51B7DBDE81B
:10A5F000F08F069D083525440020002175E90223CF
:10A6000010F004FDA542F9D1039B002B00F0D2808D
:10A61000089E024601F1004386E80C000B46024604
:10A62000D4E9000110F0F0FC009B002B0BDD4CADD9
:10A630000124F5E8022310F0E9FC009B0134A34259
:10A64000F7DA039B13B101F100431946089BC3E9F4
:10A650000201099B03F007000DF51B7DBDE8F08F9B
:10A66000069D083500200021254475E9022310F0DD
:10A67000CDFCAC42F9D1039B13B101F10043194663
:10A68000089BC3E90001099B03F007000DF51B7D42
:10A69000BDE8F08F00260027EAE80267DA4509F1F5
:10A6A00008097FF4FEAC1AE5009B002B08F10108B5
:10A6B000C8BF02253FF79EAD32463B4600206149A8
:10A6C00010F0A2FC022506460F46FBE500260027F7
:10A6D000EEE6069B002B27DD0024069B012B3FF4B2
:10A6E000C4AD022B09D1009B5A1E0EAB0EA953F824
:10A6F0002230C3F3150341F82230022D7FF4E2AD7E
:10A7000032463B4600204F4910F07EFC06460F467D
:10A71000002C3FF4D7ADC7E50099013399427FF48F
:10A7200073AD069B002BD8DC022D7FF4CBAD3246F7
:10A730003B460020434910F067FC06460F46C1E542
:10A740000123ECE53946069F03957A423046CDF861
:10A75000248000F05DFD00223B4B04460D4611F0C5
:10A760008DF8002843D00022384B2046294610F0AF
:10A77000FFFD11F0ADF8064610F094FD0022324BBB
:10A7800010F0F6FD02460B462046294610F03CFC30
:10A7900011F09EF800990B4601331A4600933B4690
:10A7A000183306930B460EA941F82300134641F8CF
:10A7B000236027E6089B0246C3E900010B46D4E963
:10A7C000000110F021FC009B002B3FF730AF089BED
:10A7D000C3E902013DE7D4E90067D4E90223089DFB
:10A7E000C5E90401C5E90067C5E90223FAE629467F
:10A7F000204611F06DF8009A0EA941F8220001E6FA
:10A800004AAC00200021D8E6A49B032B3FF6EAAE19
:10A8100001A252F823F000BF37A802002FA80200BF
:10A820002FA8020001A8020001200023F2E400206A
:10A8300000214AACE8E6002000211CE70A9BDB006F
:10A8400000934CE40000F03F000070410000703EB7
:10A850002DE9F04F21F00046B6F1795F85B004464E
:10A860000D469046994604DA11F032F8002800F0BF
:10A87000858022462B462046294610F079FD064663
:10A880000F4602460B462046294610F071FD41A3B3
:10A89000D3E9002382468B463046394610F068FDE6
:10A8A0003EA3D3E9002310F0AFFB32463B4610F045
:10A8B0005FFD3CA3D3E9002310F0A8FB32463B46E2
:10A8C00010F056FD39A3D3E9002310F09DFB32466A
:10A8D0003B4610F04DFD37A3D3E9002310F096FB63
:10A8E0000E9BCDE900019BB30022294B404649460F
:10A8F00010F03EFDDDE90023CDE902015046594646
:10A9000010F036FD02460B46DDE9020110F07CFB3B
:10A9100032463B4610F02CFD42464B4610F074FB8D
:10A9200019A3D3E9002306460F465046594610F0B6
:10A930001FFD02460B463046394610F067FB0246C3
:10A940000B462046294610F05FFB05B0BDE8F08FAE
:10A9500002460B463046394610F00AFD0AA3D3E9F9
:10A96000002310F051FB52465B4610F001FD2246D9
:10A970002B4610F04BFB05B0BDE8F08F2046294672
:10A9800005B0BDE8F08F00BF495555555555C53F39
:10A990000000E03F7CD5CF5A3AD9E53DEB9C2B8AAD
:10A9A000E6E55A3E7DFEB157E31DC73ED561C119AC
:10A9B000A0012A3FA6F810111111813F00000000EC
:10A9C0002DE9F04FBE4C21F0004687B0A6428246EA
:10A9D0008B460F46CDE900231BDC10F079FF0028E1
:10A9E00037D153461E43109B0133334300F0B381EC
:10A9F000109B012B00F0C88152465B460020B149F4
:10AA000010F0E0FD04460D462046294607B0BDE89B
:10AA1000F08FAD4B9E421CDD0029C0F2A981524649
:10AA20005B4687A1D1E9000110F0EEFADDE90023D1
:10AA300004460D4684A1D1E9000110F0E5FA9FED2E
:10AA4000847B22462B468DED007B10F0DFFA824698
:10AA50008B4652465B465046594610F089FC0246EA
:10AA60000B468046894610F083FC424604460D465C
:10AA70004B465046594610F07BFC77A3D3E90023A0
:10AA8000CDE902012046294610F072FC74A3D3E9F7
:10AA9000002310F0BBFA22462B4610F069FC72A38B
:10AAA000D3E9002310F0B2FA22462B4610F060FCE6
:10AAB0006FA3D3E9002310F0A9FA22462B4610F029
:10AAC00057FC6DA3D3E9002310F0A0FA22462B46D1
:10AAD00010F04EFC6AA3D3E9002310F097FA424627
:10AAE0004B4610F045FC68A3D3E90023CDE90401EF
:10AAF0002046294610F03CFC65A3D3E9002310F062
:10AB000085FA22462B4610F033FC63A3D3E90023D9
:10AB100010F07CFA22462B4610F02AFC60A3D3E901
:10AB2000002310F073FA22462B4610F021FC5EA39E
:10AB3000D3E9002310F06AFA22462B4610F018FCE5
:10AB40005BA3D3E9002310F061FA02460B46DDE96E
:10AB5000040110F05BFADDE9022310F009FCDDE9E5
:10AB6000004522462B4610F051FA42464B4610F063
:10AB7000FFFB02460B462046294610F047FA4EA33B
:10AB8000D3E9002304460D46DDE9020110F0F0FB95
:10AB900022462B4610F03AFA0B460246804689467A
:10ABA0005046594610F032FA474B9E4204460D4635
:10ABB00000F38E80109B012B3BD002460B460020F9
:10ABC000404910F0FFFC002406460F462046294667
:10ABD00052465B46CDE90067CDE90201009410F0D2
:10ABE00013FADDE900AB02460B464046494610F039
:10ABF0000BFA52465B4610F0BBFB524604460D462C
:10AC00005B46DDE9020110F0B3FB00222F4B10F090
:10AC1000FDF902460B462046294610F0F7F9324668
:10AC20003B4610F0A5FB52465B4610F0EFF9044698
:10AC30000D462046294607B0BDE8F08FAFF30080EF
:10AC4000182D4454FB21E93F075C143326A6813CB0
:10AC50000000000000000000D47ABF74702AFB3EA0
:10AC6000E9A7F0320FB8123F68108D1AF726303F6F
:10AC70001583E0FEC8DB573F93846EE9E326823FED
:10AC8000FE41B31BBAA1AB3F735360DBCB75F3BE80
:10AC9000A69237A0887E143F0165F2F2D844433F64
:10ACA000280356C9226D6D3F37D60684F464963F5B
:10ACB0007AFE10111111C13F635555555555D53FB9
:10ACC000FFFF2F3E0000F0BF2794E53F0000F03F5C
:10ACD000109810F0E7FA2246CDE900012B462046F5
:10ACE000294610F045FBDDE90023CDE902012046AD
:10ACF000294610F08BF902460B46DDE9020110F0FF
:10AD000061FC42464B4610F07FF902460B46504626
:10AD1000594610F079F902460B4610F077F90246D1
:10AD20000B46DDE9000110F06FF90446B81700F09A
:10AD30000200C0F101000D4610F0B4FA02460B46C5
:10AD40002046294610F014FB04460D4620462946AD
:10AD500007B0BDE8F08F504659460EF075F8024630
:10AD60000B4600200A4910F02DFC04460D4660E712
:10AD7000DDE9004501F10041224605F1004382462C
:10AD80008B46CDE900234AE654465D4651E700BFB5
:10AD90000000F03F000000002DE9F04FD24A21F002
:10ADA0000043934285B082468B460C462DD9CF4A4C
:10ADB00093421AD8002C80F21681B5A3D3E9002360
:10ADC0005046594610F022F90022002310F042FDAF
:10ADD000C0B9B1A3D3E900235046594610F0C8FAD0
:10ADE00002460B460020C24908E1C24A934240F2A3
:10ADF000D0800346C1F31302134340F0F4810029CD
:10AE000080F2C4800020BC49C0E0BC4A934200F2FA
:10AE10002981BB4A934240F2DE8000230193002245
:10AE2000B84B5046594610F0A3FA06460F46024664
:10AE30000B465046594610F09BFA99A3D3E90023DC
:10AE400004460D4610F094FA97A3D3E9002310F0BE
:10AE5000DDF822462B4610F08BFA95A3D3E90023A8
:10AE600010F0D2F822462B4610F082FA92A3D3E9D2
:10AE7000002310F0CBF822462B4610F079FA90A36D
:10AE8000D3E9002310F0C0F822462B4610F070FAE8
:10AE900000229D4B10F0BAF88046894602460B46C8
:10AEA0003046394610F064FA02460B4600209749B6
:10AEB00010F0AAF8064602460B460F4640464946A1
:10AEC00010F0A2F83246804689463B465046594625
:10AED00010F04EFA02460B4600208D4910F094F80F
:10AEE00002460B464046494610F06CFB22462B4674
:10AEF00010F03EFA019E02460B46002E38D0DDE9E6
:10AF0000026732463B4610F07FF852465B4610F02F
:10AF10002FFA32463B4610F077F82B46224610F0C7
:10AF200073F8019B013306460F4600F00F81019B29
:10AF3000012B00F0F180019B0133392B39D8019BA3
:10AF4000132B40F31281019CC4F57F750335002259
:10AF50002B0510F05BF802460B465046594610F0A0
:10AF600053F80022684B10F051F801EB04510DE04A
:10AF70005046594610F0FCF922462B4610F044F892
:10AF800002460B465046594610F03EF805B0BDE863
:10AF9000F08F4DA3D3E9002310F07AFC00283FF492
:10AFA00009AF4BA3D3E900231046194610F0E0F98E
:10AFB000ECE752465B4610F027F802460B460020AD
:10AFC000514910F021F8019A4F4B01EB0251002238
:10AFD00010F01AF8DAE73EA3D3E9002310F016F8D0
:10AFE00002460B46CAE72CA3D3E900235046594634
:10AFF00010F0BEF90B4643490246002010F006F857
:10B0000010F066FC019010F04DF933A3D3E9002352
:10B0100006460F4610F0ACF902460B46504659461C
:10B020000FF0F2FF2EA3D3E9002380468946304675
:10B03000394610F09DF906460F4632463B464046DB
:10B0400049460FF0E1FF02460B4682468B464046DA
:10B0500049460FF0D9FF32463B460FF0D5FFCDE908
:10B060000201DCE62B4A934200F2958000291AA3E4
:10B07000D3E90023C0F2AC800FF0C6FF0123804665
:10B080008946019316A7D7E90067D6E7AFF300809A
:10B0900059F3F8C21F6EA501FE822B654715F73FD5
:10B0A0002DC3096EB7FD8ABE3952E686CACFD03E9F
:10B0B000B7DBAA9E19CE143F8555FE19A0015A3F51
:10B0C000F41011111111A13FEF39FAFE422E864002
:10B0D0009C7500883CE4377E0000E0FE422EE63F8F
:10B0E000763C7935EF39EA3D79684340412E864018
:10B0F0000000E0BFFFFFEF7F0000F0BF422ED63F11
:10B10000FFFF8F3C0000E03F0000F03F00000840E0
:10B1100000001840B1A2F03F0022394B504659467A
:10B1200010F098FB002844D0504659460022354B79
:10B130000FF06CFF02460B46304639460FF064FFB5
:10B1400000224FF0404310F013F91FE702460B4670
:10B15000504659460FF058FF00222A4B10F008F9CC
:10B160000022284B0FF050FF10E7019C4FF4001312
:10B170002341C3F17F5752465B460FF045FF00263F
:10B1800007F5401702460B46304639460FF03CFFA4
:10B1900001EB0451FAE616A3D3E9002310F0E8F816
:10B1A000002C02460B464FF00000FFF61CAE15497E
:10B1B00024E732463B46504659460FF025FF0246EB
:10B1C0000B460FF023FF00220F4B0FF01FFFDDE6B1
:10B1D0000FF01CFF4FF0FF3380468946019306A70E
:10B1E000D7E9006729E702460B460FF00FFFCDE6CF
:10B1F000FE822B654715F73F763C7935EF39EABD7E
:10B200000000D0BF0000E03F0000F03F0000000061
:10B21000F8B5C1F30A5604460D460B4617460EBB59
:10B2200021F000430343864625D00022344B10F022
:10B230009FF8344A974204460D460B462ADBC1F379
:10B240000A56363E3E4440F2FE72964228DC002EFC
:10B2500012DD23F0FF4323F4E00343EA06552046C2
:10B260002946F8BD40F2FF729642EBD102460B46EA
:10B270000FF0CCFEF8BDF8BD16F1350F1DDA4CF21B
:10B2800050339F4222462B4625DC19A1D1E900010B
:10B290000FF02CFE16A3D3E9002310F069F8F8BDD7
:10B2A00022462B4614A1D1E900010FF01FFE12A384
:10B2B000D3E9002310F05CF8F8BD23F0FF4323F43A
:10B2C000E003363643EA06552046294600220E4B57
:10B2D00010F04EF8F8BD08A1D1E900010FF006FE0C
:10B2E00005A3D3E9002310F043F8F8BDAFF30080C5
:10B2F00059F3F8C21F6EA5019C7500883CE4377EA7
:10B3000000005043B03CFFFF0000903C10B5054CDE
:10B31000237833B9044B13B10448AFF30080012301
:10B32000237010BD1082002000000000B0DC03007C
:10B330000C4B43B10C480D4910B5AFF300800C48DD
:10B34000036823B910BD0A48036833B97047094B35
:10B35000002BF7D0BDE810401847064B002BF5D066
:10B36000184700BF00000000B0DC0300148200207A
:10B37000FC81002000000000154B002B08BF134B80
:10B380009D46A3F5803A00218B460F461348144A88
:10B39000121A07F0A7F90F4B002B00D098470E4B5D
:10B3A000002B00D098470020002104000D000D481C
:10B3B000002802D00C48AFF300800FF0CDFD200034
:10B3C000290004F065FF0FF0B3FD00BF0000080086
:10B3D00000000420000000000000000000820020A7
:10B3E00050890020000000000000000070B50446F5
:10B3F0000E4600F0C7FA88B10368DB6A0546984735
:10B40000082C0CD0A4F10903012B14D93246214693
:10B4100010230D20BDE8704004F016B970BD2B68F4
:10B4200028465B6A98470228F0DC2B6828461B6A8E
:10B4300004219847EAE72B6828465B6A9847052865
:10B44000E4DC2B6828461B6A08219847DEE700BF2A
:10B4500030B52DED028B83B0054600F093FA04461B
:10B4600040B10368DB6A9847032D50D8DFE805F048
:10B47000373F47080190019803B0BDEC028B30BD07
:10B48000204609F033FA07EE900A2046F8EEE78AE4
:10B4900009F03CFA07EE900A2046B8EEE78A09F078
:10B4A00045FA68EE087A07EE100AE8EEA87AB8EED8
:10B4B000C77AE7EE077AF5EE407AF1EE10FAB1EED0
:10B4C000E78A03D517EE900A0EF084FAFDEEC87AEB
:10B4D000CDED017A019803B0BDEC028B30BD204662
:10B4E00003B0BDEC028BBDE8304009F0FFB9204647
:10B4F00003B0BDEC028BBDE8304009F007BA20462E
:10B5000003B0BDEC028BBDE8304009F00FBA002358
:10B510000193B0E738B5054600F034FA58B1036836
:10B52000DB6A0446984745B1012D04D12046BDE8A9
:10B530003840FBF79DB8002038BD2046BDE83840B4
:10B54000FBF776B810B5044600F01CFA28B1036882
:10B5500021461B6ABDE81040184710BD00487047DF
:10B5600016FCFFFF704700BF10B5034B0360044695
:10B5700008F09CFF204610BDC0D2030010B5054B5B
:10B580000360044608F092FF204610F033FC20468A
:10B5900010BD00BFC0D203002DE9F043AC4F3C68A2
:10B5A00085B01CB1204605B0BDE8F0834FF0FF31F7
:10B5B000012001F025FDC0B204F044FB002800F09A
:10B5C0006D810C2010F018FC03210546512001F07C
:10B5D00017FDDFF89CE29F4B064606F00F08C6F306
:10B5E000031916F4807618BF73469B4841464A46B5
:10B5F00008F004F9321C18BF01224B464146284688
:10B600000BF006FF9548AC6008F0F8F84FF0FF31FA
:10B61000032001F0F5FCC0B204F014FB4FF0FF3141
:10B620000446022001F0ECFCC0B204F00BFB002C3D
:10B6300000F0F880002800F0F5800146204604F074
:10B64000E5F80646002800F025814FF0FF3146203E
:10B6500001F0D6FCA0F130038046382B00F2B48014
:10B66000DFE803F097B297B2B2B2B2B27CB263B283
:10B6700046B2B2B2B2B2B2B2B2B2B2B2B2B2B2B216
:10B68000B2B2B2B2B2B2B2B2B2B2B2B2B2B2B2B29A
:10B69000B2B2B2B2B2B2B2B2B2B2B2B21D004FF0F6
:10B6A000FF31012001F0ACFCC0B204F0CBFA8046BF
:10B6B0004C2010F0A1FB4FF0050E682304468DE8E6
:10B6C0000840424631462B460AF0CCFB2046A86093
:10B6D00003689B6A9847A8680368DB6A98476048D4
:10B6E00008F08CF82C4620463D6005B0BDE8F0839C
:10B6F0004FF0FF31012001F083FCC0B204F0A2FA48
:10B7000004462C2010F078FB224631463C2380462C
:10B7100009F006FF3C2010F06FFB4146044605236C
:10B720002A4609F0F3FF2046D1E74FF0FF31012010
:10B7300001F066FCC0B204F085FA8046442010F0A7
:10B740005BFB4FF0050E3A2304468DE80840424665
:10B7500031462B460AF0DEFA2046B8E74FF0FF31BB
:10B76000012001F04DFCC0B204F06CFA8046442088
:10B7700010F042FB4FF0050E382304468DE80840D8
:10B7800042462B4631460AF0C5FA364B2360204626
:10B790009DE74FF0FF31012001F032FCC0B204F010
:10B7A00051FA81464C2010F027FB1FFA88F34FF026
:10B7B000050E044600934A463146CDF804E02B4678
:10B7C0000AF032F9204682E732680124002301940E
:10B7D0000094D2F82080AB600F220DF10F033221CC
:10B7E0003046C047002845D14FF0320841461E4838
:10B7F00008F004F84FF0FF31012001F001FCC0B265
:10B8000004F020FA81464C2010F0F6FA0523044695
:10B8100001934A46CDF8008031462B460AF004F9E0
:10B82000204654E7114807F0E9FF4FF0FF31192097
:10B8300001F0E6FBC0B204F005FA4FF0FF31044618
:10B84000182001F0DDFBC0B204F0FCF9F5E600BF02
:10B850002C820020BCC60300C4C60300E4C603005B
:10B860007CC7030080C60300A0C70300F4C6030022
:10B87000B4C60300336801940094D3F820800F22EB
:10B880000DF10F0330213046C04748B94FF0300862
:10B890004146ACE7364807F0B1FF23E73C6881E654
:10B8A000336801940094D3F820800D220DF10F032A
:10B8B00038213046C04738B938212E4807F09EFF5E
:10B8C00020464FF0FF314CE7336801940094D3F8E1
:10B8D00020800D220DF10F033C213046C04738B9BE
:10B8E0003C21244807F08AFF20464FF0FF3102E751
:10B8F000336801940094D3F820800D220DF10F03DA
:10B900003A213046C04738B93A211A4807F076FF45
:10B9100020464FF0FF310BE7326801940094D2F8D3
:10B9200020800DF10F03752268213046C04738B9D9
:10B930006821104807F062FF20464FF0FF31B1E662
:10B940000D4807F05BFFA86800287FF4C1AE4FF0F8
:10B95000FF31032001F054FBC0B204F073F918B1B9
:10B96000064807F04BFFBDE6054807F047FFB9E67C
:10B9700008C70300A0C703008CC7030020C703004B
:10B980005CC7030008B5FFF707FE00B1806808BD7B
:10B9900008B501F05DFCFBF70FFCBDE8084001F0C5
:10B9A000BBB900BF08B501F053FCFBF775FCBDE85F
:10B9B000084001F0B1B900BF08B501F049FC0DF035
:10B9C000B9FABDE8084001F0A7B900BF08B501F019
:10B9D0003FFC0DF0C1FEBDE8084001F09DB900BF7D
:10B9E00008B501F035FCFBF7F7FBBDE8084001F0B6
:10B9F00093B900BF08B501F02BFC0DF0D9FCBDE8F0
:10BA0000084001F089B900BF08B501F021FCFAF740
:10BA10004FFEBDE8084001F07FB900BF08B501F056
:10BA200017FC0DF019FCBDE8084001F075B900BF26
:10BA300070B5049E96420C4628DB15466BB1002A71
:10BA400000EB020107DD2046A21811F8013D00F8C5
:10BA5000013B9042F9D1002070BD042A0FD0022A88
:10BA600002D110F0010306D001462A46204605F017
:10BA700057FC002070BD02880A80184670BD10F087
:10BA80000303F1D102680A60184670BD0846002120
:10BA900006F028FE4FF0FF3070BD00BF0830704741
:10BAA00040B1002905DB4368994202DA0844007A74
:10BAB00070470020704700BF30B1002904DB4368A5
:10BAC0009942BCBF40180272704700BF40B10029C4
:10BAD00005DB4368994202DA0844007A7047002087
