:020000040002F8
:10600000000004206D880300958803009788030032
:10601000998803009B8803009D880300000000000E
:106020000000000000000000000000009F88030046
:10603000A188030000000000A3880300A5880300D6
:10604000A7880300A7880300A7880300F986030038
:106050000D870300A7880300A97C0300A78803001D
:10606000258503002D85030035850300A7880300DF
:10607000A7880300A7880300A7880300A788030058
:10608000A7880300A7880300A7880300A788030048
:10609000A7880300A7880300A7880300A788030038
:1060A000A7880300A78803003D85030045850300FA
:1060B000A7880300A788030000000000000000007C
:1060C000A7880300A7880300A7880300218703008F
:1060D000A7880300A7880300A7880300A7880300F8
:1060E000A7880300A7880300A7880300000000001A
:1060F00000000000A78803000000000035870300AF
:10610000000000000000000000000000000000008F
:10611000000000000000000000000000000000007F
:10612000000000000000000000000000000000006F
:10613000000000000000000000000000000000005F
:10614000000000000000000000000000000000004F
:10615000000000000000000000000000000000003F
:10616000000000000000000000000000000000002F
:10617000000000000000000000000000000000001F
:10618000000000000000000000000000000000000F
:1061900000000000000000000000000000000000FF
:1061A00000000000000000000000000000000000EF
:1061B00000000000000000000000000000000000DF
:1061C00000000000000000000000000000000000CF
:1061D00000000000000000000000000000000000BF
:1061E00000000000000000000000000000000000AF
:1061F000000000000000000000000000000000009F
:106200002DE9F04F0378202B83B00446894603D153
:1062100014F8013F202BFBD02B2B08BF013494F83E
:1062200000E0BEF12D0F00F086809FED577BBEF1A0
:10623000300F8DED007B00F08A80BEF1000F00F082
:106240009D80002600274FF0000ADFF84CB14FF088
:1062500000081CE015F08AF806460F46284615F09F
:106260001FF832463B4614F0CFFE524606460F4614
:106270005B46DDE90001B8F1000F03D015F0A0F98D
:10628000CDE9000114F801EFBEF1000F14D0AEF11A
:106290003005092D52465B4630463946DAD9B8F109
:1062A000000F18D1BEF12E0F15D114F801EF4FF0E9
:1062B0000108BEF1000FEAD132463B46DDE900019C
:1062C00015F054F806460F46C9F8004030463946E6
:1062D00003B0BDE8F08F0EF0DF0EBEF1450F08D021
:1062E0002378202B03D114F8013F202BFBD0002B67
:1062F00041D1DDE900233046394615F037F82378DF
:1063000006460F46002BDFD04946601C0A2214F0D7
:106310005FFE21490246002015F088FB02460B462D
:106320003046394615F022F806460F4630463946C3
:1063300003B0BDE8F08F94F801E09FED157BBEF14E
:10634000300F8DED007B04F101047FF476AF6378AC
:1063500043F02003782B7FF474AF10224946204687
:1063600014F036FE14F09CFFDDE9002314F0FEFF6C
:1063700006460F46AAE70026084FA7E70026002793
:106380009AE700BFAFF30080000000000000F03F7C
:10639000000000000000F0BF000024400000F87F73
:1063A0002DE9F84F16460023002204460D4615F04D
:1063B0004FFA002840F09D80002200232046294605
:1063C00015F03CFA28B13022002332707370BDE81A
:1063D000F88F2046294613F03BF915F077FA7BA396
:1063E000D3E9002381462946204615F031FA0028DA
:1063F00000F08680B9F1000FC0F2BE804A4600204E
:106400006F4915F013FB02460B462046294615F04E
:10641000D7F804460D4666A1D1E9000101274FF0E7
:10642000000822462B4614F0A1FF0022654B14F011
:10643000EBFD15F037FB002FCC464FF0FF3AC1467D
:106440004FF0000840F38580DFF888E15E4C0122C0
:10645000AEF1700945F6F3254FF02E0BA94208BFA7
:10646000A0424FF0300309D3001B61EB0501A942A4
:1064700008BFA04203F10103F6D2DBB2337050EA49
:10648000010306F1010409D1BA4210DACE4502F146
:1064900001020CD026467EE80245DFE7BA4204BF7F
:1064A00086F801B0B41CCE4502F10102F2D1B8F178
:1064B000000F0DD02246302102F8011BC2F101036A
:1064C00053442344002BF7DC2AEAEA7301331C44CB
:1064D000BCF1010F4CD06523BCF1000F2370C5BF88
:1064E0002B236370611CA11C6046BDE8F84F0CF0C3
:1064F0007BBF05F100431D462D23337001365BE75A
:106500002DA3D3E900232046294615F0BFF9002822
:106510007FF470AFB9F10E0F09F101073DDDA9F16C
:106520000E0842460020264915F080FA02460B4626
:106530002046294615F044F80022224B14F064FD51
:1065400015F0B0FA002FA9F10F0A4FF0010C3FF738
:106550007BAF334630222E2403F8022B74707FEA7F
:10656000090618D01E4403F8012BB342FBD16BE798
:1065700000232370BDE8F88FC9F100020020104904
:1065800015F054FA02460B462046294614F0EEFE5A
:1065900004460D463FE71E4656E7C9F10E020020AD
:1065A0000749C84615F042FA4FF0010939E700BF24
:1065B0000000901EC4BCD64250EFE2D6E41A4B4411
:1065C000000024400000E03F00407A108DEDB5A0AF
:1065D000F7C6B03E90C5030070B54FF0FF3006F02F
:1065E000C3F904466FF07F4006F0BEF90646204628
:1065F00014F046FE00220C4B14F0B8FE0446304660
:106600000D4614F03DFE06A3D3E9002314F0D8FF95
:1066100002460B462046294614F0F6FC70BD00BF2A
:106620000000E0DFFFFF6F430000F03D00000000CE
:1066300008B50EF0E1F9DFED0C7A07EE100A67EE0F
:10664000277A17EE900A14F03DFE05A3D3E9002344
:1066500014F0B6FF15F03AF908BD00BFAFF30080A3
:10666000EA2E4454FB2119400000B443000000000E
:1066700008B50EF0D5F9DFED0C7A07EE100A67EEDB
:10668000277A17EE900A14F01DFE05A3D3E9002324
:1066900014F096FF15F01AF908BD00BFAFF30080A3
:1066A000EA2E4454FB2119400000B44300000000CE
:1066B000494A21F0004393422DE9704304460D46B8
:1066C0004BDC464A93420E460EDC3FA3D3E900233F
:1066D00014F09AFC0022424B15F0D8F800284CD058
:1066E00020462946BDE870833E4A93423BDCB3F125
:1066F000804F42DD12F0A6FB2246804689462B469B
:106700002046294614F032FE0022354B14F07CFC62
:1067100013F0D6FA02460B464046494614F074FC84
:1067200002460B4600202E4914F04AFF424604461A
:106730000D464B464046494614F066FC02460B4661
:106740002046294614F060FC02F06AF8002EC9DCED
:1067500001F100431946BDE8708302460B4614F070
:1067600053FCBDE8708312F06DFB02F059F818A3DA
:10677000D3E9002314F048FCE8E722462B462046E4
:10678000294614F0F3FD804689462046294612F03A
:1067900059FB002204460D46114B4046494614F071
:1067A00033FC13F08DFA00220D4B14F02DFC024641
:1067B0000B464046494614F003FF22462B4614F090
:1067C00023FC00F0C5FAC1E79C7500883CE4377EE5
:1067D000EF39FAFE422EE63FFFFFEF7FFFFF2F3E2D
:1067E0000000F03F0000B0412DE9F84FC44B21F00C
:1067F00000469E4204460D468A460EDDC14B9E422F
:1068000000F3AC8000F0A780BAF1000F40F3EA80FB
:106810009FA1D1E90001BDE8F88FBB4B9E4200F378
:10682000B580A3F1DE739E4240F3A0804FF0FF3BA2
:1068300022462B462046294614F098FD02460B4678
:106840008046894614F092FD93A3D3E900230646BF
:106850000F4614F08BFD92A3D3E9002314F0D4FB70
:1068600032463B4614F082FD8FA3D3E9002314F097
:10687000CBFB32463B4614F079FD8DA3D3E90023D0
:1068800014F0C2FB32463B4614F070FD8AA3D3E9F4
:10689000002314F0B9FB32463B4614F067FD88A391
:1068A000D3E9002314F0B0FB42464B4614F05EFDE2
:1068B00085A3D3E90023804689463046394614F043
:1068C00055FD83A3D3E9002314F09CFB32463B46DD
:1068D00014F04CFD80A3D3E9002314F093FB32465F
:1068E0003B4614F043FD7EA3D3E9002314F08AFB5A
:1068F00032463B4614F03AFD7BA3D3E9002314F063
:1069000081FB32463B4614F031FDBBF1FF3F0246AE
:106910000B466CD04046494614F076FB22462B4687
:1069200014F024FD794E7A4B4FEACB0B5E449B4426
:10693000DBE9002314F066FB22462B4614F062FBD1
:1069400002460B46D6E9000114F05CFBBAF1000FD9
:1069500043DBBDE8F88F00283FF456AF22462B46B4
:106960002046294614F050FBBDE8F88F60A3D3E918
:10697000002314F049FB0022664B14F087FF002827
:106980003FF454AF20462946BDE8F88F12F05AFA7A
:10699000614B9E4204460D4639DCA3F550239E42CE
:1069A0005EDC02460B4614F02FFB0022594B14F01C
:1069B00029FB002206460F464FF080432046294619
:1069C00014F022FB02460B463046394614F0F8FD1F
:1069D0004FF0000B04460D462AE701F1004319462B
:1069E000BDE8F88F44A1D1E90001BDE8F88F404629
:1069F000494614F009FB22462B4614F0B7FC024628
:106A00000B462046294614F0FDFABDE8F88F434BAB
:106A10009E421ADC0022424B14F0F4FA0022064691
:106A20000F463F4B2046294614F0A0FC0022394B6C
:106A300014F0EAFA02460B463046394614F0C0FD1F
:106A40004FF0020B04460D46F2E602460B460020CC
:106A5000344914F0B5FD4FF0030B04460D46E7E64C
:106A600000222C4B14F0CEFA002206460F46294B8A
:106A70002046294614F0C8FA02460B4630463946ED
:106A800014F09EFD4FF0010B04460D46D0E600BF0A
:106A9000182D4454FB21F93F11DA22E33AAD903F1F
:106AA000EB0D76244B7BA93F513DD0A0660DB13F45
:106AB0006E204CC5CD45B73FFF8300922449C23FAD
:106AC0000D5555555555D53F2F6C6A2C44B4A2BF72
:106AD0009AFDDE522DDEAD3F6D9A74AFF2B0B33F3A
:106AE000711623FEC671BC3FC4EB98999999C93FB2
:106AF0009C7500883CE4377E182D4454FB21F9BF77
:106B0000FFFF0F440000F07FFFFFDB3FA0C5030045
:106B1000C0C503000000F03FFFFFF23FFF7F0340CE
:106B20000000F83F0000F0BF2DE9F843C1F30A5917
:106B3000A9F2FF35132D02460B460C460646884641
:106B4000074622DC002D50DBDFF8F09049FA05F90A
:106B500001EA090E5EEA06061CD036A3D3E900233B
:106B600014F052FA0022002314F090FE48B1002CD9
:106B700004DD4FF4801343FA05F5A84428EA09041C
:106B8000002721463846BDE8F883332D06DDB5F5EC
:106B9000806F3DD010461946BDE8F883A9F213492D
:106BA0004FF0FF3E2EFA09F910EA090FF2D021A3A7
:106BB000D3E9002314F028FA0022002314F066FE23
:106BC0000028DED0002C09DD142D2BD00127C5F1C3
:106BD000340507FA05F5AE1928BFB844444626EA3D
:106BE000090721463846BDE8F88312A3D3E90023FC
:106BF00014F00AFA0022002314F048FE0028C0D046
:106C0000002C0BDB54EA060706D00027084CB8E737
:106C100014F0FAF9BDE8F8833C46B2E700274FF0DC
:106C20000044AEE704F10108D8E700BFAFF30080ED
:106C30000000F03F9C7500883CE4377EFFFF0F00AA
:106C40002DE9F041C1F30A57A7F2FF35132D024693
:106C50000B460C46884606461CDC002D3FDB3A4FAF
:106C60002F41864601EA070C5CEA0E0E17D034A3CA
:106C7000D3E9002314F0C8F90022002314F006FE23
:106C800020B1002C3FDB28EA0704002621463046CD
:106C9000BDE8F081332D06DDB5F5806F2FD01046AD
:106CA0001946BDE8F081A7F213474FF0FF3E2EFAD8
:106CB00007F73842F3D022A3D3E9002314F0A4F954
:106CC0000022002314F0E2FD0028DFD0002C20DB9E
:106CD000444626EA070621463046BDE8F08118A35F
:106CE000D3E9002314F090F90022002314F0CEFD24
:106CF0000028CBD0002C17DB00263446C6E714F062
:106D000083F9BDE8F0814FF4801343FA05F5A844F8
:106D1000B9E7142D10D00123C5F1340503FA05F5A8
:106D2000AE1928BF9844D3E724F00042074B324302
:106D300018BF1C460026A9E704F10108C8E700BFF8
:106D40009C7500883CE4377EFFFF0F000000F0BF19
:106D50002DE9F04FD84B994287B0804689460E46C0
:106D600013DCD64B21F000449C4218DD0022D44BAA
:106D700014F064FD002879D0002200230020D149BE
:106D800014F01EFC07B0BDE8F08FCF4B99422FDD09
:106D900042464B4614F038F907B0BDE8F08FCB4BB4
:106DA0009C4270DDCA4B1E449E427ED80022C94BD5
:106DB0004046494614F028F94FEA215AAAF2FF3A10
:106DC000BAF1000F04460D460E4640F3DE814246FE
:106DD0004B4614F017F902460B460020BD4914F04B
:106DE00011F922462B4614F0EBFBCDE902010BE032
:106DF000B94B9E42DADD9FED9A7B8DED027B4FEA27
:106E0000265A4446AAF2FF3AB44BC6F313069E42F2
:106E100046F07F5500F3E78045F4401520462946AB
:106E20000022AC4B14F0EEF8002204460D46AC4BA9
:106E300014F09CFA22462B4614F098FAA046CDE9AD
:106E40000401A946CDE90001002E3AD10022002319
:106E50002046294614F0F2FC002800F0CE80BAF15A
:106E6000000F40F074810020002195E742464B4618
:106E70004046314614F0C6F802460B4614F0A0FB1B
:106E800007B0BDE8F08F0022964B14F0BDF8002249
:106E9000002314F0FBFC002800F0CC80924B9C42B5
:106EA00000F3C8804046494676E700228C4B14F038
:106EB0005DFA42464B4614F059FACDE900014FF015
:106EC000000A00224FF080434046494614F09CF8E7
:106ED00002460B464046494614F072FB02460B46FA
:106EE00006460F4614F042FA5FA3D3E90023044696
:106EF0000D4614F03BFA5EA3D3E9002314F084F8A6
:106F000022462B4614F032FA5BA3D3E9002314F097
:106F10007BF822462B4614F029FA59A3D3E9002323
:106F200014F072F822462B4614F020FA56A3D3E947
:106F3000002314F069F822462B4614F017FA54A3E4
:106F4000D3E9002314F060F822462B4614F00EFA21
:106F500051A3D3E9002314F057F822462B4614F02E
:106F600005FA04460D46BAF1000F00F0BF80504606
:106F700014F096F94AA3D3E9002382468B4614F015
:106F8000F5F9DDE90023CDE904012046294614F096
:106F90003BF832463B4614F0E9F943A3D3E900231A
:106FA00004460D465046594614F0E0F9DDE9022347
:106FB00014F02AF802460B462046294614F024F81D
:106FC00002460B46DDE9000114F01CF842464B4630
:106FD00014F018F802460B46DDE9040114F012F82B
:106FE00007B0BDE8F08F45F40015C6F580162046C1
:106FF0002946B6100AF1010A12E72DA3D3E90023AE
:107000002046294614F0B2F902460B4600203149C9
:1070100013F0F8FFDDE9042314F0A8F906460F4643
:10702000BAF1000F73D102460B462046294613F0F1
:10703000E9FFB1E642464B464046494614F096F910
:107040000022274B14F092F902460B46404649466F
:1070500013F0D8FF07B0BDE8F08F00BFAFF300809A
:10706000000000000000000044523EDF12F1C23F69
:107070009FC678D0099AC33FDE03CB966446C73FCC
:10708000AF788E1DC571CC3F599322942449D23FCD
:1070900004FA97999999D93F935555555555E53F18
:1070A0000000E0FE422EE63F763C7935EF39EA3DBE
:1070B000555555555555E53F7982DA3FFFFFEF3F6E
:1070C0000000F0BF000050C3FFFFEF7FFFFF1F3E37
:1070D0003C412D400000F03FFFFF3F439DA00600D4
:1070E0000000E03F00005043FFFF8F3CDDE900451A
:1070F00022462B4613F088FF32463B4614F036F901
:1071000002460B462046294613F07CFF9CE750467A
:1071100014F0C6F823A3D3E9002382468B4614F06B
:1071200025F922A3D3E900238046894650465946D3
:1071300014F01CF9DDE9022313F066FF02460B464A
:107140003046394613F05EFF22462B46DCE75046B8
:1071500014F0A6F815A3D3E9002306460F4614F051
:1071600005F9DDE9022313F04FFF0EA3D3E9002355
:1071700004460D463046394614F0F8F802460B46F0
:107180002046294613F040FF06E60022044B13F088
:1071900039FF02460B464046494613F033FF20E6CE
:1071A0000000F03F0000E0FE422EE63F763C7935DD
:1071B000EF39EA3D0000000008B512F0C9F904A358
:1071C000D3E9002314F0FCF908BD00BFAFF3008041
:1071D000EF39FAFE422EE63F2DE9F043DFF8B480A6
:1071E0008BB004460D4601F0F3F898F900300133F6
:1071F00006460F462BD022462B462046294614F041
:107200004FFB814618BB2046294611F01BFE1FA3E9
:10721000D3E9002314F03AFBC8B1194A98F90030B9
:10722000CDF820900321CDE90445CDE902458DE854
:1072300006008BB9134B4FF06042CDE90623684638
:1072400013F0E2FC70B1089B9BB9DDE9066730469C
:1072500039460BB0BDE8F0830B490020022BCDE985
:107260000601ECD113F05CFE22230360089B002B87
:10727000EBD013F055FE089B0360E6E7AFF3008008
:10728000ECD50300FFFFEF470000F07F7DF8B98FDA
:10729000CE338640EA8100202DE9F043DFF8E48018
:1072A0008BB004460D4601F043F998F900300133E4
:1072B00006460F4633D02046294613F09FFC70B394
:1072C0002CA3D3E900232046294614F0DFFA814697
:1072D00050BB2AA3D3E900232046294614F0B8FA6C
:1072E000E8B198F90030204ACDF820900026002718
:1072F0000421022BCDE90445CDE90245CDE906671D
:107300008DE8060029D0684613F07EFC28B3089B60
:107310001BB113F005FE089B0360DDE906673046EC
:1073200039460BB0BDE8F0830F4A98F9003001925E
:1073300003210022CDE90445CDE9024500910892E0
:107340002BB90A4B4FF06042CDE90623DBE7084931
:107350000020022BCDE90601D5D113F0E1FD222357
:107360000360D4E7AFF30080F4D50300FFFFEF47DD
:107370000000F07FEF39FAFE422E864051302DD5C5
:10738000104987C0EA8100202DE9F04FDFF80C9307
:107390008DB006460F4614461D4601F0C5FC99F90E
:1073A0000080B8F1FF3FCDE9000136D022462B46E0
:1073B0002046294614F074FA834670BB32463B4699
:1073C0003046394614F06CFA8246002840F0A2801C
:1073D000304639460022002314F030FA10B3002260
:1073E00000232046294614F029FA834600286AD053
:1073F0009FEDA17B0122A44BCDF828A00292CDE9FC
:107400000467CDE906458DED087B0393B8F1000FC5
:1074100045D09FED9B7B8DED007BDDE900010DB03C
:10742000BDE8F08FDDE9000113F0E8FB804600289D
:1074300000F08D804FF0000A4FF0000BDDE90001F5
:1074400052465B4614F0FAF90028E6D03046394639
:1074500013F0D4FB0028E0D02046294613F0CEFBE1
:107460000028DAD099F90030874A039204210022DB
:10747000022BCDE90467CDE90645CDE908AB0291C1
:107480000A9203D002A813F0BFFB68B913F048FDBD
:107490002223036008E09FED787B8DED087B02A836
:1074A00013F0B2FB002830D00A9B1BB113F038FD5B
:1074B0000A9B03609DED087B8DED007BDDE90001FB
:1074C0000DB0BDE8F08F2046294613F097FB002849
:1074D000A3D0002200232046294614F0B9F9002841
:1074E0009BD099F90030684ACDF828B00121CDE948
:1074F0000467CDE9064502910392002BCBD0634986
:107500000020022BCDE90801C9D113F009FD212388
:107510000360C9E7002200232046294614F08EF9B3
:1075200000283FF47AAF5A4B5749CDF828B00022D3
:107530000120B8F1020FCDE904670290CDE90645BC
:10754000CDE908230391AAD1CDE9002365E73046B0
:10755000394613F053FB00283FF46CAF2046294610
:1075600013F04CFB00283FF465AFDDE90023104623
:10757000194614F095F900285FD1032399F900808A
:107580000293414B0A90CDE90467CDE90645039388
:10759000B8F1000F2BD1DFF808B14FF0604A00229C
:1075A000002330463946CDE908AB14F051F90028E4
:1075B0003FF468AF0022374B2046294613F0D6FE31
:1075C00004460D4613F028FB02460B46204629468A
:1075D00014F034F970BB304B99F900804FF06042E1
:1075E000CDE90823B8F1020F7FF44CAF4EE7DFF886
:1075F000B4B04FF0000A0022002330463946CDE9EE
:1076000008AB14F025F90028ECD00022214B2046CD
:10761000294613F0ABFE04460D4613F0FDFA024670
:107620000B462046294614F009F918B9174B0022D9
:10763000CDE9082399F90080D4E799F90090124B1D
:10764000CDF828800122CDE90467CDE906450292F4
:107650000393B9F1000F3FF41EAF00220023104640
:10766000194613F0ADFFB9F1020FCDE908013FF45F
:107670004CAF14E7AFF300800000000000000000F2
:10768000000000000000F03F0CD603000000F0FFF7
:107690000000F03F0000E03FFFFFEFC7EA8100205D
:1076A000FFFFEF470000F07F2DE9F84FC44E21F0B7
:1076B0000043B34204460D460DDD03F1404303F59C
:1076C0008013034340F0B980002940F3408100203B
:1076D0000021BDE8F88FBB4EB34240F3A6800029DD
:1076E000C0F2788102460B460020B74913F08AFCAD
:1076F0000022B64B13F03AFE04460D4612F0E0FAB3
:1077000095A3D3E90023894680462946204613F0F5
:107710002DFE93A3D3E9002313F076FC22462B46DB
:1077200013F024FE90A3D3E9002313F06BFC224650
:107730002B4613F01BFE8EA3D3E9002313F064FC49
:1077400022462B4613F012FE8BA3D3E9002313F03D
:1077500059FC22462B4613F009FE89A3D3E90023E6
:1077600013F052FC22462B4613F000FE86A3D3E909
:10777000002382468B462046294613F0F7FD84A35A
:10778000D3E9002313F03EFC22462B4613F0EEFD16
:1077900081A3D3E9002313F037FC22462B4613F0D4
:1077A000E5FD7FA3D3E9002313F02CFC22462B46F2
:1077B00013F0DCFD0022844B13F026FC02460B463E
:1077C0005046594613F0FCFE42464B4613F0CEFDA0
:1077D000002682468B4632464B463046494613F0D9
:1077E000C5FD02460B462046294613F00BFC3246E7
:1077F00004460D464B464046494613F005FC0246FA
:107800000B462046294613F0DBFE02460B46504647
:10781000594613F0F9FB32464B4613F0F5FB02468E
:107820000B4613F0F1FBBDE8F88F694A93420EDC7A
:107830005DA1D1E90001BDE8F88F02460B4613F0C7
:10784000E1FB02460B4613F0BBFEBDE8F88F024693
:107850000B4613F08BFD40A3D3E9002306460F46E9
:1078600013F084FD3EA3D3E9002313F0CDFB324691
:107870003B4613F07BFD3CA3D3E9002313F0C2FB8E
:1078800032463B4613F072FD39A3D3E9002313F0CF
:10789000BBFB32463B4613F069FD37A3D3E9002317
:1078A00013F0B0FB32463B4613F060FD34A3D3E93E
:1078B000002313F0A9FB32463B4613F057FD32A3D9
:1078C000D3E90023804689463046394613F04EFD01
:1078D0002FA3D3E9002313F095FB32463B4613F068
:1078E00045FD2DA3D3E9002313F08EFB32463B4622
:1078F00013F03CFD2AA3D3E9002313F083FB3246A7
:107900003B4613F033FD00222F4B13F07DFB024664
:107910000B464046494613F053FE22462B4613F0D1
:1079200025FD02460B4622A1D1E9000113F06AFBB6
:1079300002460B462046294613F064FB02460B46DE
:1079400019A1D1E9000113F05DFBBDE8F88F1AA180
:10795000D1E90001BDE8F88F09F7FD0DE13D023FD7
:1079600088B20175E0EF493F3B8F68B52882A43F9C
:107970005544880E55C1C93F7D6FEB0312D6D43FE5
:10798000555555555555C53F82922EB1C5B8B33F93
:1079900059018D1B6C06E63FC88A599CE52A0040B8
:1079A0004B2D8A1C273A0340182D4454FB21F93FE4
:1079B000075C143326A6913C182D4454FB21094042
:1079C000FFFFEF3FFFFFDF3F0000F03F0000E03F21
:1079D0000000603C00225C4B13F016FB00225B4B66
:1079E00013F0C4FC40A3D3E9002304460D4613F072
:1079F000BDFC3FA3D3E9002313F006FB22462B4630
:107A000013F0B4FC3CA3D3E9002313F0FBFA2246A5
:107A10002B4613F0ABFC3AA3D3E9002313F0F4FA9E
:107A200022462B4613F0A2FC37A3D3E9002313F020
:107A3000E9FA22462B4613F099FC35A3D3E900233B
:107A400013F0E2FA22462B4613F090FC804689465A
:107A50002046294612F034F92FA3D3E90023064625
:107A60000F462046294613F081FC2DA3D3E90023BD
:107A700013F0C8FA22462B4613F078FC2AA3D3E968
:107A8000002313F0C1FA22462B4613F06FFC28A303
:107A9000D3E9002313F0B6FA22462B4613F066FC16
:107AA0000022294B13F0B0FA02460B4640464946E5
:107AB00013F086FD32463B4613F058FC1EA3D3E973
:107AC000002313F09FFA32463B4613F09DFA02461C
:107AD0000B4613F099FA02460B4619A1D1E90001B1
:107AE00013F090FABDE8F88F09F7FD0DE13D023F74
:107AF00088B20175E0EF493F3B8F68B52882A43F0B
:107B00005544880E55C1C93F7D6FEB0312D6D43F53
:107B1000555555555555C53F82922EB1C5B8B33F01
:107B200059018D1B6C06E63FC88A599CE52A004026
:107B30004B2D8A1C273A0340075C143326A6913C40
:107B4000182D4454FB2109400000F03F0000E03FA5
:107B5000434A91422DE9F84304460D4639DD414A36
:107B6000914209DD02F17952914240DD02460B4615
:107B700013F04AFABDE8F88301F1404202F58012A1
:107B8000024330D0B1F1804F3ADC0022364B13F083
:107B900039FA02460B4604460D4613F035FA2246E2
:107BA00006460F462B462046294613F0DFFB0246C9
:107BB0000B463046394613F027FA12F081F80B468F
:107BC00002462946204613F01FFABDE8F843FFF7A6
:107BD000BFB802460B4613F015FA02460B4613F0E7
:107BE000EFFCBDE8F88300200021BDE8F88300F039
:107BF00017FE19A3D3E9002313F006FABDE8F883B2
:107C000002460B4613F0B2FB0022174B13F0FAF9B1
:107C100012F056F82246804689462B4620462946D1
:107C200013F0F2F9424606460F464B4620462946D7
:107C300013F0EAF902460B4600200B4913F0C0FC92
:107C40000B4602463946304613F0DCF9BDE8F843EE
:107C500000F0E6BDAFF30080EF39FAFE422EE63FBA
:107C6000FFFFEF3FFFFFAF410000F03F00000000CB
:107C70002DE9F047BE4B21F00048984584B00446FA
:107C80000D4612DD08F1404808F58018034658EA11
:107C9000030321D002460B4613F0B4F902460B460B
:107CA00013F08EFC04B0BDE8F087B24B98458A46CD
:107CB00029DCB8F1795F80F2658191A3D3E90023D3
:107CC00013F0A2F90022AC4B13F0E0FDD8B120462E
:107CD000294604B0BDE8F0878BA3D3E9002313F055
:107CE00045FB8BA3D3E9002306460F4620462946D1
:107CF00013F03CFB02460B463046394613F084F93C
:107D000004B0BDE8F0872046294611F09BF80246F2
:107D10000B460020984913F075F90022974B13F099
:107D200025FB7DA3D3E9002304460D4613F01EFB7B
:107D30007BA3D3E9002313F067F922462B4613F007
:107D400015FB79A3D3E9002313F05CF922462B46F7
:107D500013F00CFB76A3D3E9002313F055F9224668
:107D60002B4613F003FB74A3D3E9002313F04AF965
:107D700022462B4613F0FAFA71A3D3E9002313F03D
:107D800043F922462B4613F0F1FA6FA3D3E90023FF
:107D9000CDE900012046294613F0E8FA6CA3D3E9A7
:107DA000002313F02FF922462B4613F0DFFA6AA3C3
:107DB000D3E9002313F028F922462B4613F0D6FA14
:107DC00067A3D3E9002313F01DF922462B4613F0D5
:107DD000CDFA694B002213F017F9CDE902012046D4
:107DE000294611F06DFF664B984506460F4666DC46
:107DF000DDE90223DDE9000113F0E2FB3246CDE9C3
:107E000000013B463046394613F0FEF802460B4669
:107E1000DDE9000113F0AAFA4FF00008CDE90001F6
:107E200042463B464046394613F0A0FA02460B460E
:107E30002046294613F0E6F8424604460D463B46E6
:107E40003046394613F0E0F802460B4620462946F4
:107E500013F0B6FB02460B4613F0D6F802460B466B
:107E60002BA1D1E9000113F0CDF802460B46DDE964
:107E7000000113F0C7F8424604460D463B46404613
:107E8000394613F0C1F802460B4637A1D1E900018B
:107E900013F0B8F802460B462046294613F0B2F814
:107EA00002460B4630A1D1E9000113F0ABF8BAF15C
:107EB000000F3FF7F7AE01F100431946F2E6DDE9A6
:107EC0000223DDE9000113F07BFB32463B4613F051
:107ED0004DFA32463B4613F097F802460B4613F034
:107EE00093F80BA3D3E9002313F08CF802460B465A
:107EF00005A1D1E9000113F085F8D8E7AFF30080C0
:107F00009C7500883CE4377E182D4454FB21F93FD2
:107F1000075C143326A6913C09F7FD0DE13D023FB5
:107F200088B20175E0EF493F3B8F68B52882A43FD6
:107F30005544880E55C1C93F7D6FEB0312D6D43F1F
:107F4000555555555555C53F82922EB1C5B8B33FCD
:107F500059018D1B6C06E63FC88A599CE52A0040F2
:107F60004B2D8A1C273A0340182D4454FB21E93F2E
:107F7000FFFFEF3FFFFFDF3F0000F03F0000E03F6B
:107F80003233EF3F02460B4613F0F0F937A3D3E943
:107F9000002306460F4613F0E9F936A3D3E9002380
:107FA00013F032F832463B4613F0E0F933A3D3E93D
:107FB000002313F027F832463B4613F0D7F931A3DC
:107FC000D3E9002313F020F832463B4613F0CEF9F4
:107FD0002EA3D3E9002313F015F832463B4613F0E5
:107FE000C5F92CA3D3E9002313F00EF832463B4623
:107FF00013F0BCF929A3D3E9002380468946304613
:10800000394613F0B3F927A3D3E9002312F0FAFF9E
:1080100032463B4613F0AAF924A3D3E9002312F019
:10802000F3FF32463B4613F0A1F922A3D3E9002324
:1080300012F0E8FF32463B4613F098F900220A4B53
:1080400012F0E2FF02460B464046494613F0B8FAEA
:1080500022462B4613F08AF922462B4612F0D4FF13
:1080600004B0BDE8F08700BF0000F03F09F7FD0D48
:10807000E13D023F88B20175E0EF493F3B8F68B5B3
:108080002882A43F5544880E55C1C93F7D6FEB033C
:1080900012D6D43F555555555555C53F82922EB1F0
:1080A000C5B8B33F59018D1B6C06E63FC88A599C81
:1080B000E52A00404B2D8A1C273A034000000000AF
:1080C0002DE9F84F1D465342134325F0004ADFF8CF
:1080D000E0E14AEAD3737345144606460F4647D893
:1080E000C0F1000848EA000821F0004343EAD878CC
:1080F000F0458B463CD805F1404808F5801858EA11
:10810000020850D04FEAA57808F0020848EAD17872
:1081100050EA030134D052EA0A023CD0F24557D06B
:10812000734538D0A3EB0A031B153C2B42DC002D12
:1081300070DB22462B463046394613F041FA10F0E8
:1081400081FEFEF751FBB8F1010F5FD0B8F1020FCD
:108150004ED0B8F1000F62D043A3D3E9002312F050
:1081600051FF43A3D3E9002312F04CFFBDE8F88F81
:1081700032463B462046294612F046FFBDE8F88FBE
:10818000B8F1020F1AD0B8F1030F10D13AA1D1E91A
:108190000001BDE8F88FBBF1000F14DB38A1D1E975
:1081A0000001BDE8F88FBDE8F84FFEF71DBB39466A
:1081B000BDE8F88F32A1D1E90001C4E72CA1D1E9D3
:1081C0000001BDE8F88F30A1D1E90001BDE8F88FCA
:1081D000534526D0B8F1020FF0D0B8F1030FD5D037
:1081E000B8F1010F4FF0000029D00021BDE8F88F51
:1081F0001DA3D3E9002312F005FF02460B461CA184
:10820000D1E9000112F0FEFEBDE8F88F01F1004156
:10821000BDE8F88F3C338CDA0020002193E7BDE8FD
:10822000F88FB8F1020F18D0B8F1030F10D0B8F1E1
:10823000010F08D016A1D1E90001BDE8F88F4FF079
:108240000041BDE8F88F14A1D1E90001BDE8F88F25
:1082500013A1D1E90001BDE8F88F13A1D1E9000114
:10826000BDE8F88FAFF30080075C143326A6A13C6D
:10827000182D4454FB210940182D4454FB2109C0FA
:10828000182D4454FB21F93F182D4454FB21F9BF0C
:10829000182D4454FB21E93F182D4454FB21E9BF1C
:1082A000D221337F7CD902C0D221337F7CD90240D6
:1082B0000000F07F0000000043422DE9F047034337
:1082C00021F000463E4A46EAD373934204460D46E7
:1082D00013D896423DD03B4B9E428A4617DC36A3CC
:1082E000D3E9002312F090FE0022002313F0CEFA0F
:1082F000A8B320462946BDE8F08702460B4612F097
:1083000081FE02460B4613F05BF9BDE8F0872E4B69
:108310009E42354624DD33460246314612F074FE55
:10832000224606460F462B460020254912F06AFEDB
:1083300002460B463046394613F042F9FEF708FD77
:108340000022224B13F012F8BAF1000F2FDBBDE828
:10835000F0870022002313F033F9BDE8F08735469B
:1083600022462B462046294612F04EFE22462B4638
:1083700006460F4612F0FAFF2246804689462B46F3
:1083800000200F4912F03EFE02460B464046494689
:1083900013F016F932463B4612F036FEFEF7D8FCD3
:1083A00000220A4B12F0E2FFBAF1000FCFDA01F11E
:1083B00000431946BDE8F0879C7500883CE4377E91
:1083C0000000F03FFFFF2F3EFFFFDF3F0000E03FD8
:1083D0002DE9F8434E4B21F000449C4206460F46DF
:1083E0001BDC4C4B9C4222DD4B4B9C4263DD4B4BD8
:1083F0009C427BDD4A4B9C4246DD01339C4240D08F
:1084000041A3D3E900231046194612F0AFFF0646F8
:108410000F4630463946BDE8F88302460B4612F057
:10842000A5FF06460F4630463946BDE8F88310F0F2
:1084300009FD02F0B1FC00223A4B8046894612F059
:10844000E3FDB4F1725F06460F46ECDB42464B4655
:108450004046494612F08AFF32463B4604460D46E6
:108460003046394612F0D0FD02460B4620462946DA
:1084700013F0A6F800222B4B12F0C6FD06460F465D
:10848000D1E7294B9842BBD83046394610F0DAFC88
:108490000022264B12F06AFF00F04AF80022044640
:1084A0000D46224B12F062FF22462B4612F05EFF71
:1084B00006460F46B7E710F0C5FC00F039F8002279
:1084C0001A4B06460F4612F051FF32463B46044611
:1084D0000D460020154913F073F802460B4620465E
:1084E000294612F091FD06460F469CE710F0AAFCC3
:1084F00000F01EF800220D4B12F038FF06460F4622
:1085000091E700BFAFF300809C7500883CE4377EA4
:10851000FFFFEF7F422ED63FFFFF3540412E8640C2
:10852000CD3386400000F03F7DF8B98F0000E03F7A
:108530002DE9F04FB04E21F00042B24283B0044624
:108540000D464FEAD1770DD9AC4EB24225D9C1F3D1
:108550001303034340F0EC800FB10020002103B06F
:10856000BDE8F08FA64B9A4200F2CB80A54B9A4211
:1085700000F2DC808AA3D3E9002312F045FD00223B
:10858000A14B13F083F9002800F00681204629460C
:1085900000229D4B12F038FDE1E783A3D3E90023CD
:1085A00013F074F9002840F0C88081A3D3E90023B8
:1085B0002046294613F04CF90028CED1934E7EA3D5
:1085C000D3E9002306EBC7062046294612F0CEFE6B
:1085D000D6E9002312F018FD13F078F9064612F0E0
:1085E0005FFE77A3D3E900238046894612F0BEFEE2
:1085F00002460B462046294612F004FD72A3D3E939
:108600000023CDE900014046494612F0AFFE824604
:108610008B4652465B46DDE9000112F0F3FC04464E
:108620000D4622462B462046294612F09FFE68A39F
:10863000D3E900238046894612F098FE66A3D3E969
:10864000002312F0DFFC42464B4612F08FFE64A37B
:10865000D3E9002312F0D8FC42464B4612F086FEC6
:1086600061A3D3E9002312F0CDFC42464B4612F041
:108670007DFE5FA3D3E9002312F0C6FC42464B46C1
:1086800012F074FE02460B462046294612F0BAFC50
:1086900080468946002E58D02046294642464B4601
:1086A00012F064FE424604460D464B4600204FF051
:1086B000804112F0A7FC02460B462046294612F0E4
:1086C0007FFF02460B465046594612F09BFCDDE9FF
:1086D000002312F097FC0B4602464B49002012F093
:1086E00091FC6FF47F739E4251DA06F57A7601EBC6
:1086F000065100224FF0B87312F038FE03B0BDE807
:10870000F08F434B9A423FF659AF424BFC00234453
:10871000D3E9002312F076FC3F4BC7F10106234456
:10872000CDE90001D3E900ABF61B72E7002678E73C
:1087300002460B4612F068FC11E719A3D3E90023A7
:108740001046194612F012FE09E702460B46204673
:10875000294612F00BFE002206460F464FF08043DA
:108760004046494612F04EFC02460B46304639461A
:1087700012F026FF22462B4612F044FC02460B461E
:108780000020214912F03EFC03B0BDE8F08F01EB60
:10879000065103B0BDE8F08F064642E7AFF3008014
:1087A0009C7500883CE4377EEF39FAFE422E864005
:1087B00051302DD5104987C0FE822B654715F73FF4
:1087C0000000E0FE422EE63F763C7935EF39EA3D87
:1087D000D0A4BE726937663EF16BD2C541BDBB3EC7
:1087E0002CDE25AF6A56113F93BDBE166CC1663FA5
:1087F0003E5555555555C53F412E8640FFFFEF7FED
:10880000422ED63FFFFF2F3E0000F03FE0C50300A1
:10881000B1A2F03FF0C5030000C603000000000055
:108820002DE9F04FB1F5801F85B006460F460B4687
:108830005ADA024621F00044224300F0F880002971
:10884000C0F27A810022D64B12F090FDD54A0B4639
:10885000934206460F466FF0350C4ADCC3F313050E
:1088600005F5152E0EF6647E0EF4801E8EF07F52F6
:1088700082F440121C1542EA0507A4F2FF34644456
:108880000022C94B3046394604EB1E5412F0BAFBA5
:10889000AB1CC3F31303022B82468B464FF000023E
:1088A00030DC002312F0CAFF002800F0C980002C41
:1088B00000F04B81204612F0F3FCA5A3D3E900237E
:1088C00006460F4612F052FDA3A3D3E90023044647
:1088D0000D463046394612F049FD02460B46204609
:1088E000294612F091FB0AE0AE4A93424FF0000C89
:1088F000B4DD32463B463046394612F085FB05B0C2
:10890000BDE8F08F4FF0804312F07EFB02460B462D
:108910005046594612F054FE064620460F4612F0C5
:10892000BFFC3246CDE900013B4630463946CDE931
:10893000026712F01BFD02460B468046894612F084
:1089400015FD87A3D3E9002306460F4612F00EFD5E
:1089500085A3D3E9002312F057FB32463B4612F0C1
:1089600005FD83A3D3E9002312F04EFB32463B46BC
:1089700012F0FCFC80A3D3E9002312F045FB424631
:108980004B4612F0F3FC7EA3D3E9002380468946D0
:108990003046394612F0EAFC7BA3D3E9002312F0FB
:1089A00033FB32463B4612F0E1FC79A3D3E90023C6
:1089B00012F02AFB32463B4612F0D8FC0B46024628
:1089C0004946404612F020FBA5F5C223C5F5D72540
:1089D000A3F27A4351351D43002D8046894656DD6A
:1089E0000022724B5046594612F0C0FC52465B467C
:1089F00012F0BCFC06460F46002C68D132463B46BE
:108A00004046494612F000FBDDE9022312F0AEFCBD
:108A100002460B463046394612F0F4FA02460B463F
:108A20005046594612F0EEFA05B0BDE8F08F00222C
:108A3000002300205E4912F0C3FD05B0BDE8F08FB1
:108A400055A3D3E900235046594612F08FFC024645
:108A50000B460020554912F0D5FA524606460F46FD
:108A60005B465046594612F081FC02460B463046A2
:108A7000394612F07BFC06460F46002C40F09A80E7
:108A800002460B465046594612F0BCFA37E7002C16
:108A900000F0A4802EA3D3E90023DDE9000112F049
:108AA00065FC42464B4604460D465046594612F078
:108AB000A9FADDE9022312F059FC27A3D3E9002328
:108AC00006460F46DDE9000112F050FC21E020A32C
:108AD000D3E90023DDE9000112F048FC32463B46B1
:108AE00004460D464046494612F08EFADDE902235F
:108AF00012F03CFC18A3D3E9002380468946DDE947
:108B0000000112F033FC02460B464046494612F083
:108B10007BFA02460B463046394612F073FA52464B
:108B20005B4612F06FFA02460B462046294612F0C9
:108B300069FA05B0BDE8F08F02460B4612F062FA02
:108B40000022002312F03CFDD9E600200021D6E6E9
:108B50000000E0FE422EE63F763C7935EF39EA3DF3
:108B600044523EDF12F1C23FDE03CB966446C73F5C
:108B7000599322942449D23F935555555555E53F75
:108B80009FC678D0099AC33FAF788E1DC571CC3F80
:108B900004FA97999999D93F555555555555D53F4B
:108BA00000005043FFFFEF7F0000F03F0000E03F78
:108BB000000050C3204612F073FB0FA3D3E900233B
:108BC0008046894612F0D2FB0DA3D3E90023044668
:108BD0000D464046494612F0C9FB9AE702460B464D
:108BE0005046594612F00EFADDE9022312F0BEFBA0
:108BF00014E700BFAFF300800000E0FE422EE63F26
:108C0000763C7935EF39EA3DB1F5801F2DE9F8431F
:108C100004460D460B461ADA024621F0004632435E
:108C200059D000295FDB00223B4B12F09FFB3B4AEF
:108C30000D462B46934204466FF035010CDD22466B
:108C40002B462046294612F0DFF9BDE8F883334A67
:108C500093424FF00001F2DC1815A0F2FF300844F7
:108C60004FEAD0794844C3F3130812F019FBC9F551
:108C70007F73033348EA035506460F4620462946CC
:108C8000FFF7CEFD1EA3D3E9002380468946304678
:108C9000394612F06BFB1CA3D3E9002304460D46B2
:108CA0004046494612F062FB02460B4620462946E2
:108CB00012F0AAF916A3D3E9002304460D46304664
:108CC000394612F053FB02460B462046294612F065
:108CD0009BF9BDE8F883002200230020104912F020
:108CE0006FFCBDE8F88302460B4612F08BF90022B8
:108CF000002312F065FCBDE8F88300BFAFF30080ED
:108D0000362BF111F3FE593D0EE526157BCBDB3FEB
:108D100000609F501344D33F00005043FFFFEF7F9C
:108D2000000050C3000000002DE9F04F23F0004781
:108D300057EA020493B037D0674C21F00046A642B0
:108D400083460D4629DC9A46964625D0A74224DC68
:108D5000614CA74279D0002D80468946CDE9002399
:108D600077DB0024BEF1000F2CD15B4B9F4200F05B
:108D70008B805A4B9F4261D0BAF1804F00F0C38381
:108D8000574B9A451ED1002D1CDB4046494613B077
:108D9000BDE8F04F10F094BF58B106F1404606F51B
:108DA000801656EA0B0306D14C49002013B0BDE8EB
:108DB000F08FB742CCDD4B4813B0BDE8F04F11F057
:108DC00025BF00244046494610F03CF8BBF1000F97
:108DD00019D126B1414B25F040429A4213D1BAF144
:108DE000000FC0F2CA83002DE0DA06F1404606F516
:108DF000801656EA040300F0A584012CD6D101F1B7
:108E000000431946D2E7ED0F013D54EA05034ED069
:108E1000354B9F426EDD03F104739F4240F3FE83A6
:108E2000324B9E424EDDBAF1000F4EDD28A3D3E94E
:108E300000231046194612F099FAB7E7BAF1000F6D
:108E4000C0F2528440464946B0E7BEF1000F82D0DE
:108E5000A3E7274B9F4228DCA3F154739F4280DD98
:108E60003B15A3F2FF33142B40F35484C3F13403B6
:108E70002EFA03F202FA03F39E457FF472AF02F07A
:108E80000102C2F102046DE706F1404303F58013CD
:108E900053EA0B0388D0154B9E4240F33B83BAF153
:108EA000000F12DBDDE9000180E702245AE74246A9
:108EB0004B461046194612F0A5F802460B4612F032
:108EC0007FFB73E7BAF1000FB0DB002000216DE7F4
:108ED0009C7500883CE4377E0000F07F0000F03F86
:108EE0000000E03F10CD03000000E041FFFFEF3F36
:108EF000FFFF3F43B6F5801F4FF0000205DAD84B65
:108F000012F034FA6FF034020E463315D54FC6F323
:108F10001306A3F2FF33134446F07F5ABE421A46AB
:108F20000D934AF4401A40F32F83CF4B9E4240F3F7
:108F30000D849FEDB57B8DED087B8DED0E7B9FED58
:108F4000B47B13468DED067B01330D93AAF5801A91
:108F50000027DDE906235146CDE90A0112F052F857
:108F6000DDE9062380468946DDE90A0112F04CF866
:108F700002460B460020BD4912F022FB0A4601467C
:108F8000CDE91012134649460246404612F0EEF96A
:108F90004FEA6A0343F000538C46834603F50023EF
:108FA000CDE904BCDA468B46D9190023CDE902ABE2
:108FB0000293DDE902AB002006460F4602460B464F
:108FC0005046594612F0D2F902460B4640464946F1
:108FD00012F018F8DDE90623804689463046394606
:108FE00012F010F802460B46DDE90A0112F00AF809
:108FF00052465B4612F0BAF902460B4640464946D5
:1090000012F000F8DDE9102312F0B0F9DDE9046791
:10901000CDE9060132463B463046394612F0A6F904
:109020007DA3D3E9002306460F4612F09FF97CA3E7
:10903000D3E9002311F0E8FF32463B4612F096F9DF
:1090400079A3D3E9002311F0DFFF32463B4612F04B
:109050008DF977A3D3E9002311F0D6FF32463B46C2
:1090600012F084F974A3D3E9002311F0CDFF324646
:109070003B4612F07BF972A3D3E9002311F0C4FF41
:109080003246804689463B463046394612F06EF9F4
:1090900002460B464046494612F068F952460646DB
:1090A0000F465B46DDE9040111F0AEFFDDE9062362
:1090B00012F05CF932463B4611F0A6FF524680465C
:1090C00089465B465046594612F050F90022684BDB
:1090D000CDE90A0111F098FF42464B4611F094FF8A
:1090E00002980F46064632463B465046594612F015
:1090F0003DF9002282468B465D4B3046394611F0E1
:1091000081FFDDE90A2311F07DFF02460B46404650
:10911000494611F077FFDDE9042312F027F93246C2
:10912000804689463B46DDE9060112F01FF90246FA
:109130000B464046494611F067FF80468946024685
:109140000B4650465946CDE904AB11F05DFFDDE911
:1091500002AB3DA3D3E9002350460F4612F006F9B7
:10916000DDE90423CDE902013946504611F04AFFFA
:1091700002460B464046494611F044FF34A3D3E96A
:10918000002312F0F3F834A3D3E900238046894684
:109190005046394612F0EAF802460B464046494628
:1091A00011F032FFDDE90E2311F02EFF80460D98FD
:1091B000894612F075F8424606460F464B46DDE9F1
:1091C000020111F021FFDDE9082311F01DFF3246F5
:1091D0003B4611F019FF32463B4650468B4611F094
:1091E00011FFDDE9082311F00DFFDDE9022311F085
:1091F00009FF02460B464046494611F003FF8046F0
:10920000894637E0AFF30080000000000000000056
:10921000000000000000F03FEF4E454A287ECA3FA4
:1092200065DBC9934A86CD3F01411DA96074D13FDA
:109230004D268F515555D53FFFAB6FDBB66DDB3FEC
:10924000033333333333E33F000000E009C7EE3F1D
:10925000FD033ADC09C7EE3FF5015B14E02F3EBE8B
:10926000000040438E98030079B60B000000F03FE9
:1092700000000840013C54EA050300F079819FEDAD
:10928000C87B8DED047BDDE900120B461446CDE969
:10929000023400230293DDE9024508462B461146BD
:1092A000224611F0AFFE52465B4612F05FF8DDE950
:1092B000002306460F464046494612F057F802463C
:1092C0000B463046394611F09FFE224680468946BD
:1092D0002B4650465946CDE9008912F047F80B4617
:1092E000024606460F464046494611F08DFEC64BE3
:1092F000994204460D468A4640F3168101F13F43E8
:1093000003F5E003034340F0F781A7A3D3E900236B
:10931000DDE9000111F078FE3246804689463B4681
:109320002046294611F06EFE02460B46404649464D
:1093300012F0ACFA002840F0DF81A8464FEA28532B
:109340004FF48012A3F2FE3342FA03F35344C3F303
:109350000A52AE4DA2F2FF321541C3F3130423EAC1
:1093600005010020C2F1140B44F48014BAF1000F7F
:1093700002460B4644FA0BFB30463946B8BFCBF1E8
:10938000000B11F03FFE02460B4606460F46DDE994
:10939000000111F039FE4FEA0B5A0D46002484A358
:1093A000D3E900232046294611F0E0FF32468046EB
:1093B00089463B462046294611F024FE02460B46CC
:1093C000DDE9000111F01EFE7BA3D3E9002311F0BB
:1093D000CDFF7BA3D3E9002306460F46204629464E
:1093E00011F0C4FF02460B463046394611F00CFE20
:1093F00006460F4602460B464046494611F004FE1B
:1094000042464B4604460D4611F0FCFD02460B4613
:109410003046394611F0F6FD2246804689462B46F5
:109420002046294611F0A2FF67A3D3E90023064690
:109430000F4611F09BFF66A3D3E9002311F0E2FD74
:1094400032463B4611F092FF63A3D3E9002311F0AB
:10945000DBFD32463B4611F089FF61A3D3E90023CF
:1094600011F0D0FD32463B4611F080FF5EA3D3E9F8
:10947000002311F0C9FD32463B4611F077FF02464A
:109480000B462046294611F0BDFD06460F46024612
:109490000B462046294611F069FF0022CDE9000164
:1094A0004FF080433046394611F0ACFD02460B4682
:1094B000DDE9000112F084F8424606460F464B46AD
:1094C0002046294611F052FF42464B4611F09CFDC2
:1094D00002460B463046394611F094FD22462B4693
:1094E00011F090FD02460B460020494911F08AFD1B
:1094F0008A44BAF5801FC0F239815146DDE9042360
:1095000011F034FF52E442464B464046494611F0C2
:109510002DFF4BE4BAF1000FBFF6D7ACDDE9003404
:10952000184604F1004141E43A4B21F000489845C7
:1095300040F3FF80384B0B4403430CD132463B468B
:1095400011F060FD02460B46DDE9000112F08AF9D8
:1095500000283FF4F3AEDDE9040125A3D3E900239D
:1095600011F004FF22A3D3E9002311F0FFFE1DE454
:109570009FED217B8DED047B85E602460B460020A6
:10958000234912F01DF82EE49FED1D7B8DED087B25
:109590008DED0E7B9FED027B00278DED067BD8E4E1
:1095A000000000000000F03FFE822B654715973C4D
:1095B00000000000432EE63FEF39FAFE422EE63F60
:1095C000396CA80C615C20BED0A4BE726937663EBF
:1095D000F16BD2C541BDBB3E2CDE25AF6A56113FB3
:1095E00093BDBE166CC1663F3E5555555555C53F9A
:1095F00059F3F8C21F6EA501000000000000F0BF83
:109600000000000000000000FFFF8F40FFFF0F0080
:109610000000F03FFFCB904000346F3F684B9E420C
:109620007FF750AC674B9E423FF7FDAB0022654B86
:1096300011F0E8FC52A3D3E9002306460F4611F0CF
:1096400095FE51A3D3E9002380468946304639462A
:1096500011F08CFE002282468B465B4B3046394629
:1096600011F084FE02460B4649A1D1E9000111F038
:10967000C9FC32463B4611F079FE02460B460020FB
:10968000524911F0BFFC3246CDE902013B4630465B
:10969000394611F06BFE02460B46DDE9020111F07E
:1096A00065FE3DA3D3E9002311F060FE02460B46A0
:1096B0005046594611F0A6FC02460B4606460F4698
:1096C0004046494611F0A0FC42464B4600208246E7
:1096D0008B4611F097FC02460B463046394611F096
:1096E00091FC80468946C5E542464B4600203549F7
:1096F00011F066FFFFF75ABBDDE9040128A3D3E9A7
:10970000002311F033FE26A3D3E9002311F02EFE2F
:10971000FFF74CBBBEF1000F7FF453ABC3F1140352
:1097200047FA03F202FA03F39F4223D07446FFF78D
:1097300020BB264B98453FF701AEDDE90223924658
:1097400093462BE602460B46FFF7B3BB9FED167B15
:109750008DED087B9FED167B8DED0E7B9FED167BCF
:109760004FF480278DED067BFFF7F3BB5A4601F0DF
:109770004FFDC3E602F00102C2F10204FFF7F9BA9D
:10978000000000604715F73F44DF5DF80BAE543E24
:10979000555555555555D53FFE822B654715F73F15
:1097A0009C7500883CE4377E0000004003B8E23F2F
:1097B00006D0CF43EBFD4C3E000000000000F83F18
:1097C000FEFFEF3F0000F03F0000D03F0000E03F11
:1097D0002DE9F0479C4B21F000479F4290B0804616
:1097E000894640F38E80994B9F420C46924626DC78
:1097F00000298BA3D3E9002340F3B08111F002FCD0
:10980000934B9F4204460D4600F0908086A3D3E917
:10981000002311F0F7FB02460B46CAE9002320465D
:10982000294611F0EFFB80A3D3E9002311F0EAFBF6
:109830000125CAE90201284610B0BDE8F087854B32
:109840009F4240F39080844B9F4265DC3D15A5F21A
:109850001645A7EB055319461F46064612F036F883
:1098600011F01EFD8046894642464B463046394639
:10987000CDE90A8911F0C6FB0022784B11F076FD84
:109880008946804612F022F811F00AFD06460F467E
:1098900032463B4640464946CDE90C6711F0B2FBE3
:1098A00000226E4B11F062FD00220023CDE90E0173
:1098B00011F0C4FF002800F06F81002330463946C4
:1098C000002211F0BBFF002814BF01230223644AC9
:1098D000019202212A4600910AA8514600F08CFB11
:1098E000002C054614DADAF80420DAF80C3002F11C
:1098F000004203F100434542CAF80420CAF80C3084
:1099000006E000200021C2E90089C2E90201002529
:10991000284610B0BDE8F08702460B4611F072FBF6
:109920000025CAE90201CAE90001F1E740A3D3E931
:10993000002311F067FB40A3D3E900230D46044642
:1099400011F060FB02460B46CAE900232946204677
:1099500011F058FB38A3D3E9002311F053FB012584
:10996000CAE90201D4E70FF06DFA35A3D3E9002369
:109970008046894611F0FAFC00223A4B11F044FB74
:1099800011F0A4FF054611F08BFC25A3D3E90023B9
:10999000CDE9060111F0EAFC02460B464046494675
:1099A00011F030FB20A3D3E90023CDE90201DDE96A
:1099B000060111F0DBFC1F2D80468946CDE90489A4
:1099C00054DC294B6A1E53F822309F424ED0024687
:1099D0000B46DDE9020111F015FB80468946CAE914
:1099E000008942464B46DDE9020111F00BFBDDE93F
:1099F000042311F007FB002CCAE9020188DA09F1FF
:109A0000004401F100436D42CAF80080CAF80440E6
:109A1000CAF80800CAF80C307AE700BFAFF300803C
:109A200000004054FB21F93F3163621A61B4D03D1C
:109A30000000601A61B4D03D7370032E8A19A33BF5
:109A400083C8C96D305FE43FFB21E93F7BD9024009
:109A5000FB21F93FFB213941FFFFEF7F00007041FF
:109A6000B0D603000000E03F30D60300DDE9042358
:109A7000DDE9020111F0C6FA3F15C1F30A53FB1AE2
:109A800080468946102BCAE90089AADD58A3D3E98C
:109A90000023DDE9060111F069FC80468946024693
:109AA0000B46DDE9020111F0ADFA02460B46DDE995
:109AB0000201CDE9082311F0A5FA42464B4611F008
:109AC000A1FA4DA3D3E9002380468946DDE90601CA
:109AD00011F04CFC42464B4611F094FA0B46CDE98E
:109AE00004010246DDE9080111F08CFAC1F30A53C2
:109AF000FF1A80468946312FCAE900896CDD41A3EF
:109B0000D3E90023DDE9060111F030FCDDE9088925
:109B100006460F4602460B464046494611F072FA89
:109B200002460B4640464946CDE9022311F06AFA47
:109B300032463B4611F066FA34A3D3E900230646C9
:109B40000F46DDE9060111F011FC32463B4611F0EB
:109B500059FA02460B46CDE904233AE711F054FACC
:109B6000274B9F4204460D4618D01FA3D3E900237C
:109B700011F04AFA02460B46CAE90023294620465C
:109B800011F040FA18A3D3E9002311F03DFA4FF089
:109B9000FF35CAE90201BBE6032398E614A3D3E923
:109BA000002311F031FA14A3D3E900230D46044633
:109BB00011F02AFA02460B46CAE90023294620463C
:109BC00011F020FA0CA3D3E9002311F01DFA4FF095
:109BD000FF35CAE902019BE69DED087B8DED027B16
:109BE000FFE600BFAFF300803163621A61B4D03D7D
:109BF0000000601A61B4D03D7370032E8A19A33B34
:109C0000FB21F93F0000002E8A19A33BC149202502
:109C10009A837B3900000000594A2DE9F84F21F062
:109C20000048904506460F462BDC564B0029B4BF32
:109C3000554D564D98454FF0000410DC544B984557
:109C400070DC4DA3D3E9002311F0DEF90022514B63
:109C500011F01CFED8B130463946BDE8F88F4E4BA6
:109C600098457CDD4D4B984544DD013398453ED009
:109C70003046394640A3D3E9002311F077FBBDE815
:109C8000F88F02460B4611F0BFF9BDE8F88F304659
:109C900039460FF0D7F801F07FF806460F463246F6
:109CA0003B463046394611F0AFF9324682468B4684
:109CB0003B463046394611F059FB00228046894622
:109CC000344B3046394611F09FF902460B46404668
:109CD000494611F075FC02460B465046594611F0B4
:109CE00091F922462B4611F041FBBDE8F88F2C4B31
:109CF0009842BDD8304639460FF0A4F80022234BD5
:109D000011F034FBFEF714FC06460F4602460B46E4
:109D10002046294611F02AFB32463B4611F026FB2D
:109D2000BDE8F88F0FF08EF801F036F81D4B98451E
:109D300006460F46B3DD0022164B11F065F90246C8
:109D40000B463046394611F03BFC32463B4611F09B
:109D50005BF922462B4611F009FBBDE8F88F0FF0A6
:109D600071F8FEF7E5FB02460B462046294611F046
:109D7000FDFABDE8F88F00BF3374AC3C1F7BAC7FAD
:109D8000FFFFEF7FFFFF35400000E0BF0000E03F36
:109D9000FFFF2F3E0000F03F412E8640CD3386402E
:109DA0007DF8B98FFFFFEF3F2DE9F04F21F000481C
:109DB000B8F1795F85B006460F4692469B466BDA4E
:109DC00011F084FD002800F0EA8032463B46304620
:109DD000394611F0CBFA74A3D3E9002304460D46AB
:109DE00011F0C4FA72A3D3E9002311F00DF9224651
:109DF0002B4611F0BBFA70A3D3E9002311F002F94E
:109E000022462B4611F0B2FA6DA3D3E9002311F0DC
:109E1000FBF822462B4611F0A9FA6BA3D3E90023E5
:109E200011F0F0F822462B4611F0A0FA68A3D3E90E
:109E3000002311F0E9F822462B4611F097FACDE9FC
:109E400000010022664B2046294611F08FFADDE919
:109E50000023804689462046294611F087FA52465B
:109E600004460D465B463046394611F07FFA0246FD
:109E70000B462046294611F0C5F802460B464046DF
:109E8000494611F0BFF802460B460020554911F033
:109E9000B9F805B0BDE8F08F02460B4611F066FA3E
:109EA00041A3D3E9002304460D4611F05FFA40A315
:109EB000D3E9002311F0A8F822462B4611F056FAF8
:109EC0003DA3D3E9002311F09DF822462B4611F063
:109ED0004DFA3BA3D3E9002311F096F822462B4616
:109EE00011F044FA38A3D3E9002311F08BF822468D
:109EF0002B4611F03BFA36A3D3E9002311F084F886
:109F00002B46224611F032FA374B9845CDE9000135
:109F100097DD364B984539DCA8F500130022002068
:109F200030499046994611F06DF8CDE902010022C2
:109F30002B4B2046294611F019FA42464B4611F0A8
:109F400061F8DDE90023804689462046294611F064
:109F50000DFA524604460D465B463046394611F02E
:109F600005FA02460B462046294611F04BF80246F8
:109F70000B464046494611F045F802460B46DDE9DE
:109F8000020111F03FF805B0BDE8F08F9FED127BA4
:109F90004FF000088DED027BDFF85490C7E71149C0
:109FA000002005B0BDE8F08FD43888BEE9FAA8BD1E
:109FB000C4B1B4BD9EEE213EAD529C804F7E923E18
:109FC0009015CB19A001FA3E7751C1166CC1563FCE
:109FD0004C5555555555A53F000000000000E73F82
:109FE0000000E03F0000F03F3233D33F0000E93F84
:109FF0000000D23F000000002DE9F04FADF51B7DC1
:10A000009F4CA49E9F4D54F8264007942646D41E8C
:10A0100085FB0475E417C4EBA50424EAE4741D462B
:10A020000A93631CA3EB8303013D02EBC303069376
:10A030002B460B940395651BF418049008911AD4D1
:10A040002C440026002701340DF18808DDF8949295
:10A0500008E059F8250011F023F90135A542E8E898
:10A06000020108D0002DF4DA013530463946A54208
:10A07000E8E80201F6D1079B002BC0F2DF83079BC3
:10A0800003F1010B0A9B22A9DB001A4601EB03092D
:10A090000093049B0DF5E47A19460AEBCB0B01EB18
:10A0A0000208039B002BC0F2F582049C4D4600265B
:10A0B000002775E90223F4E8020111F057F902467E
:10A0C0000B463046394610F09FFF444506460F4682
:10A0D000EFD1EAE80267DA4509F10809E1D1079909
:10A0E0000098049C009101F18043013B9B002044B7
:10A0F0001A1F83460EA8024403440C920D93009A43
:10A100009AA901EBC203002A53E9284529DD0DF580
:10A11000E47A0AEBC2080DF1340900225A4B2046BA
:10A12000294611F023F911F0D1FB11F0B9F8002202
:10A13000564B06460F4611F019F902460B462046CB
:10A14000294610F05FFF11F0C1FB78E9022349F8BE
:10A15000040F3946304610F057FFD04504460D46EF
:10A16000DBD1DDF81890204629464A4601F050F828
:10A1700000224FF07F5304460D4611F0F7F8FCF72C
:10A180005FFD0022424B11F0F1F802460B462046DB
:10A19000294610F037FF0D46044611F097FB804624
:10A1A00011F07EF80B4602462946204610F02AFFA1
:10A1B0004B46002B06460F4640F3F980009A0EA945
:10A1C000013AC9F1180351F8225045FA03F101FA96
:10A1D00003F30EA8EB1A40F82230C9F117058844A2
:10A1E00043FA05F5002D6DDD009B002B08F10108F9
:10A1F00040F36F820E9C002C40F01683009B012BD5
:10A2000040F38F820EAA012352F8044F002C00F075
:10A210008382581C0EAAC4F1807442F82340009A2D
:10A22000824219DD0EAA0EAC52F820106FF07F4268
:10A23000511A44F820100099023399420CDD10465F
:10A24000009A0EA901EB830301EB82011A68821ABE
:10A2500043F8042B8B42F9D1069B002B1ADD069B99
:10A26000012B4FF0010440F03C82009B5A1E0EABC4
:10A270000EA953F82230C3F3160341F822303CE212
:10A2800050DB0300ABAAAA2A0000703E0000704118
:10A2900000002040022D15D132463B460020924955
:10A2A00010F0B0FE06460F46069A8F49002000F0D7
:10A2B000AFFF02460B463046394610F0A3FE02259A
:10A2C00006460F46002200233046394611F0B6FA02
:10A2D000002800F03782009A079B501E83420FDC53
:10A2E00002F18043013B0EAA0D9C02EB8303002286
:10A2F00053F80419A34242EA0102F9D1002A67D1B6
:10A30000079B0EAA013B52F82330002B40F0188225
:10A310000C9A012352F8041901330029FAD0009A4B
:10A32000D31802F1010A9A4509933DDC009B0A9972
:10A330000B9A0B4409990AEB0208994622AB08F1E3
:10A34000804803EBC9098B18A59A08F1FF3802EB86
:10A35000880872AA02EBCA0AA59A02EB830300934B
:10A3600058F8040F10F09CFF039B002BE9E8020152
:10A370004FF000064FF0000711DB049C4D4675E9D5
:10A380000223F4E8020110F0F1FF02460B463046CA
:10A39000394610F039FE5C4506460F46EFD1009B6A
:10A3A0009845EAE80267DBD1099B0093A7E606D14E
:10A3B000009B0EAA013B52F82350ED1512E7002234
:10A3C0004A4B11F059FA002840F06E81054679E7B2
:10A3D0000EA9039551F820300699CDF8248018393C
:10A3E0000246009006916BB900F18043013B0EA834
:10A3F00000EB830353F80409013A18390028F9D017
:10A4000000920691069A3849002000F001FF009B57
:10A41000002B04460D46C0F2F781DA0072A901EB69
:10A42000020B06920EAA02EB8306DFF8C4904FF0EF
:10A4300000080BF10807043656F8040D10F030FF41
:10A4400022462B4610F092FF4B4667E90201424636
:10A450002046294610F08AFF0EAB9E4204460D4668
:10A46000EAD14AACDDF81C9004944FF0000AB9F12F
:10A47000000FC0F22B81DFF87C805D4618A1D1E986
:10A48000000100260027002403E0544510DCF8E812
:10A490000201F5E8022310F069FF02460B46304640
:10A4A000394610F0B1FD0134A14506460F46ECDAFD
:10A4B000049B03EBCA03ABF1080BC3E9006770AB65
:10A4C0009B450AF1010AD2D1A49B049C032B00F204
:10A4D0008980DFE803F0C58E8E1100BFAFF30080E6
:10A4E00000000040FB21F93F0000F03F0000E03F8A
:10A4F0000000703E28C60300009B002B40F38181C2
:10A50000069A04EB020ADAE9008902F108052544FB
:10A510000DF5987B1AED027B42464B4651EC170B2A
:10A520008DED047B10F070FD06460F4602460B468B
:10A53000DDE9040110F066FD42464B4610F064FD73
:10A5400065E902015D45B046B9466AE90267E1D1B5
:10A55000009B012B40F35581069BE518D5E9008946
:10A5600003F1080B04EB0B0A15ED027B42464B4648
:10A5700051EC170B8DED007B10F046FD06460F46A3
:10A5800002460B46DDE9000110F03CFD4B46424619
:10A5900010F03AFD6AE902014EAB5345B046B946A8
:10A5A00065E90267E0D10020002104EB0B0575E9A5
:10A5B000022310F029FDAA45F9D1039B002B00F0DE
:10A5C0000A816268E368089F2568A4683D6002F11B
:10A5D000004203F1004301F100417A60FB60BC607E
:10A5E00038617961099B03F007000DF51B7DBDE81B
:10A5F000F08F069D083525440020002175E90223CF
:10A6000010F002FDA542F9D1039B002B00F0D2808F
:10A61000089E024601F1004386E80C000B46024604
:10A62000D4E9000110F0EEFC009B002B0BDD4CADDB
:10A630000124F5E8022310F0E7FC009B0134A3425B
:10A64000F7DA039B13B101F100431946089BC3E9F4
:10A650000201099B03F007000DF51B7DBDE8F08F9B
:10A66000069D083500200021254475E9022310F0DD
:10A67000CBFCAC42F9D1039B13B101F10043194665
:10A68000089BC3E90001099B03F007000DF51B7D42
:10A69000BDE8F08F00260027EAE80267DA4509F1F5
:10A6A00008097FF4FEAC1AE5009B002B08F10108B5
:10A6B000C8BF02253FF79EAD32463B4600206149A8
:10A6C00010F0A0FC022506460F46FBE500260027F9
:10A6D000EEE6069B002B27DD0024069B012B3FF4B2
:10A6E000C4AD022B09D1009B5A1E0EAB0EA953F824
:10A6F0002230C3F3150341F82230022D7FF4E2AD7E
:10A7000032463B4600204F4910F07CFC06460F467F
:10A71000002C3FF4D7ADC7E50099013399427FF48F
:10A7200073AD069B002BD8DC022D7FF4CBAD3246F7
:10A730003B460020434910F065FC06460F46C1E544
:10A740000123ECE53946069F03957A423046CDF861
:10A75000248000F05DFD00223B4B04460D4611F0C5
:10A760008BF8002843D00022384B2046294610F0B1
:10A77000FDFD11F0ABF8064610F092FD0022324BC1
:10A7800010F0F4FD02460B462046294610F03AFC34
:10A7900011F09CF800990B4601331A4600933B4692
:10A7A000183306930B460EA941F82300134641F8CF
:10A7B000236027E6089B0246C3E900010B46D4E963
:10A7C000000110F01FFC009B002B3FF730AF089BEF
:10A7D000C3E902013DE7D4E90067D4E90223089DFB
:10A7E000C5E90401C5E90067C5E90223FAE629467F
:10A7F000204611F06BF8009A0EA941F8220001E6FC
:10A800004AAC00200021D8E6A49B032B3FF6EAAE19
:10A8100001A252F823F000BF37A802002FA80200BF
:10A820002FA8020001A8020001200023F2E400206A
:10A8300000214AACE8E6002000211CE70A9BDB006F
:10A8400000934CE40000F03F000070410000703EB7
:10A850002DE9F04F21F00046B6F1795F85B004464E
:10A860000D469046994604DA11F030F8002800F0C1
:10A87000858022462B462046294610F077FD064665
:10A880000F4602460B462046294610F06FFD41A3B5
:10A89000D3E9002382468B463046394610F066FDE8
:10A8A0003EA3D3E9002310F0ADFB32463B4610F047
:10A8B0005DFD3CA3D3E9002310F0A6FB32463B46E6
:10A8C00010F054FD39A3D3E9002310F09BFB32466E
:10A8D0003B4610F04BFD37A3D3E9002310F094FB67
:10A8E0000E9BCDE900019BB30022294B404649460F
:10A8F00010F03CFDDDE90023CDE902015046594648
:10A9000010F034FD02460B46DDE9020110F07AFB3F
:10A9100032463B4610F02AFD42464B4610F072FB91
:10A9200019A3D3E9002306460F465046594610F0B6
:10A930001DFD02460B463046394610F065FB0246C7
:10A940000B462046294610F05DFB05B0BDE8F08FB0
:10A9500002460B463046394610F008FD0AA3D3E9FB
:10A96000002310F04FFB52465B4610F0FFFC2246DE
:10A970002B4610F049FB05B0BDE8F08F2046294674
:10A9800005B0BDE8F08F00BF495555555555C53F39
:10A990000000E03F7CD5CF5A3AD9E53DEB9C2B8AAD
:10A9A000E6E55A3E7DFEB157E31DC73ED561C119AC
:10A9B000A0012A3FA6F810111111813F00000000EC
:10A9C0002DE9F04FBE4C21F0004687B0A6428246EA
:10A9D0008B460F46CDE900231BDC10F077FF0028E3
:10A9E00037D153461E43109B0133334300F0B381EC
:10A9F000109B012B00F0C88152465B460020B149F4
:10AA000010F0DEFD04460D462046294607B0BDE89D
:10AA1000F08FAD4B9E421CDD0029C0F2A981524649
:10AA20005B4687A1D1E9000110F0ECFADDE90023D3
:10AA300004460D4684A1D1E9000110F0E3FA9FED30
:10AA4000847B22462B468DED007B10F0DDFA82469A
:10AA50008B4652465B465046594610F087FC0246EC
:10AA60000B468046894610F081FC424604460D465E
:10AA70004B465046594610F079FC77A3D3E90023A2
:10AA8000CDE902012046294610F070FC74A3D3E9F9
:10AA9000002310F0B9FA22462B4610F067FC72A38F
:10AAA000D3E9002310F0B0FA22462B4610F05EFCEA
:10AAB0006FA3D3E9002310F0A7FA22462B4610F02B
:10AAC00055FC6DA3D3E9002310F09EFA22462B46D5
:10AAD00010F04CFC6AA3D3E9002310F095FA42462B
:10AAE0004B4610F043FC68A3D3E90023CDE90401F1
:10AAF0002046294610F03AFC65A3D3E9002310F064
:10AB000083FA22462B4610F031FC63A3D3E90023DD
:10AB100010F07AFA22462B4610F028FC60A3D3E905
:10AB2000002310F071FA22462B4610F01FFC5EA3A2
:10AB3000D3E9002310F068FA22462B4610F016FCE9
:10AB40005BA3D3E9002310F05FFA02460B46DDE970
:10AB5000040110F059FADDE9022310F007FCDDE9E9
:10AB6000004522462B4610F04FFA42464B4610F065
:10AB7000FDFB02460B462046294610F045FA4EA33F
:10AB8000D3E9002304460D46DDE9020110F0EEFB97
:10AB900022462B4610F038FA0B460246804689467C
:10ABA0005046594610F030FA474B9E4204460D4637
:10ABB00000F38E80109B012B3BD002460B460020F9
:10ABC000404910F0FDFC002406460F462046294669
:10ABD00052465B46CDE90067CDE90201009410F0D2
:10ABE00011FADDE900AB02460B464046494610F03B
:10ABF00009FA52465B4610F0B9FB524604460D4630
:10AC00005B46DDE9020110F0B1FB00222F4B10F092
:10AC1000FBF902460B462046294610F0F5F932466C
:10AC20003B4610F0A3FB52465B4610F0EDF904469C
:10AC30000D462046294607B0BDE8F08FAFF30080EF
:10AC4000182D4454FB21E93F075C143326A6813CB0
:10AC50000000000000000000D47ABF74702AFB3EA0
:10AC6000E9A7F0320FB8123F68108D1AF726303F6F
:10AC70001583E0FEC8DB573F93846EE9E326823FED
:10AC8000FE41B31BBAA1AB3F735360DBCB75F3BE80
:10AC9000A69237A0887E143F0165F2F2D844433F64
:10ACA000280356C9226D6D3F37D60684F464963F5B
:10ACB0007AFE10111111C13F635555555555D53FB9
:10ACC000FFFF2F3E0000F0BF2794E53F0000F03F5C
:10ACD000109810F0E5FA2246CDE900012B462046F7
:10ACE000294610F043FBDDE90023CDE902012046AF
:10ACF000294610F089F902460B46DDE9020110F001
:10AD00005FFC42464B4610F07DF902460B4650462A
:10AD1000594610F077F902460B4610F075F90246D5
:10AD20000B46DDE9000110F06DF90446B81700F09C
:10AD30000200C0F101000D4610F0B2FA02460B46C7
:10AD40002046294610F012FB04460D4620462946AF
:10AD500007B0BDE8F08F504659460EF073F8024632
:10AD60000B4600200A4910F02BFC04460D4660E714
:10AD7000DDE9004501F10041224605F1004382462C
:10AD80008B46CDE900234AE654465D4651E700BFB5
:10AD90000000F03F000000002DE9F04FD24A21F002
:10ADA0000043934285B082468B460C462DD9CF4A4C
:10ADB00093421AD8002C80F21681B5A3D3E9002360
:10ADC0005046594610F020F90022002310F040FDB3
:10ADD000C0B9B1A3D3E900235046594610F0C6FAD2
:10ADE00002460B460020C24908E1C24A934240F2A3
:10ADF000D0800346C1F31302134340F0F4810029CD
:10AE000080F2C4800020BC49C0E0BC4A934200F2FA
:10AE10002981BB4A934240F2DE8000230193002245
:10AE2000B84B5046594610F0A1FA06460F46024666
:10AE30000B465046594610F099FA99A3D3E90023DE
:10AE400004460D4610F092FA97A3D3E9002310F0C0
:10AE5000DBF822462B4610F089FA95A3D3E90023AC
:10AE600010F0D0F822462B4610F080FA92A3D3E9D6
:10AE7000002310F0C9F822462B4610F077FA90A371
:10AE8000D3E9002310F0BEF822462B4610F06EFAEC
:10AE900000229D4B10F0B8F88046894602460B46CA
:10AEA0003046394610F062FA02460B4600209749B8
:10AEB00010F0A8F8064602460B460F4640464946A3
:10AEC00010F0A0F83246804689463B465046594627
:10AED00010F04CFA02460B4600208D4910F092F813
:10AEE00002460B464046494610F06AFB22462B4676
:10AEF00010F03CFA019E02460B46002E38D0DDE9E8
:10AF0000026732463B4610F07DF852465B4610F031
:10AF10002DFA32463B4610F075F82B46224610F0CB
:10AF200071F8019B013306460F4600F00F81019B2B
:10AF3000012B00F0F180019B0133392B39D8019BA3
:10AF4000132B40F31281019CC4F57F750335002259
:10AF50002B0510F059F802460B465046594610F0A2
:10AF600051F80022684B10F04FF801EB04510DE04E
:10AF70005046594610F0FAF922462B4610F042F896
:10AF800002460B465046594610F03CF805B0BDE865
:10AF9000F08F4DA3D3E9002310F078FC00283FF494
:10AFA00009AF4BA3D3E900231046194610F0DEF990
:10AFB000ECE752465B4610F025F802460B460020AF
:10AFC000514910F01FF8019A4F4B01EB025100223A
:10AFD00010F018F8DAE73EA3D3E9002310F014F8D4
:10AFE00002460B46CAE72CA3D3E900235046594634
:10AFF00010F0BCF90B4643490246002010F004F85B
:10B0000010F064FC019010F04BF933A3D3E9002356
:10B0100006460F4610F0AAF902460B46504659461E
:10B020000FF0F0FF2EA3D3E9002380468946304677
:10B03000394610F09BF906460F4632463B464046DD
:10B0400049460FF0DFFF02460B4682468B464046DC
:10B0500049460FF0D7FF32463B460FF0D3FFCDE90C
:10B060000201DCE62B4A934200F2958000291AA3E4
:10B07000D3E90023C0F2AC800FF0C4FF0123804667
:10B080008946019316A7D7E90067D6E7AFF300809A
:10B0900059F3F8C21F6EA501FE822B654715F73FD5
:10B0A0002DC3096EB7FD8ABE3952E686CACFD03E9F
:10B0B000B7DBAA9E19CE143F8555FE19A0015A3F51
:10B0C000F41011111111A13FEF39FAFE422E864002
:10B0D0009C7500883CE4377E0000E0FE422EE63F8F
:10B0E000763C7935EF39EA3D79684340412E864018
:10B0F0000000E0BFFFFFEF7F0000F0BF422ED63F11
:10B10000FFFF8F3C0000E03F0000F03F00000840E0
:10B1100000001840B1A2F03F0022394B504659467A
:10B1200010F096FB002844D0504659460022354B7B
:10B130000FF06AFF02460B46304639460FF062FFB9
:10B1400000224FF0404310F011F91FE702460B4672
:10B15000504659460FF056FF00222A4B10F006F9D0
:10B160000022284B0FF04EFF10E7019C4FF4001314
:10B170002341C3F17F5752465B460FF043FF002641
:10B1800007F5401702460B46304639460FF03AFFA6
:10B1900001EB0451FAE616A3D3E9002310F0E6F818
:10B1A000002C02460B464FF00000FFF61CAE15497E
:10B1B00024E732463B46504659460FF023FF0246ED
:10B1C0000B460FF021FF00220F4B0FF01DFFDDE6B5
:10B1D0000FF01AFF4FF0FF3380468946019306A710
:10B1E000D7E9006729E702460B460FF00DFFCDE6D1
:10B1F000FE822B654715F73F763C7935EF39EABD7E
:10B200000000D0BF0000E03F0000F03F0000000061
:10B21000F8B5C1F30A5604460D460B4617460EBB59
:10B2200021F000430343864625D00022344B10F022
:10B230009DF8344A974204460D460B462ADBC1F37B
:10B240000A56363E3E4440F2FE72964228DC002EFC
:10B2500012DD23F0FF4323F4E00343EA06552046C2
:10B260002946F8BD40F2FF729642EBD102460B46EA
:10B270000FF0CAFEF8BDF8BD16F1350F1DDA4CF21D
:10B2800050339F4222462B4625DC19A1D1E900010B
:10B290000FF02AFE16A3D3E9002310F067F8F8BDDB
:10B2A00022462B4614A1D1E900010FF01DFE12A386
:10B2B000D3E9002310F05AF8F8BD23F0FF4323F43C
:10B2C000E003363643EA06552046294600220E4B57
:10B2D00010F04CF8F8BD08A1D1E900010FF004FE10
:10B2E00005A3D3E9002310F041F8F8BDAFF30080C7
:10B2F00059F3F8C21F6EA5019C7500883CE4377EA7
:10B3000000005043B03CFFFF0000903C10B5054CDE
:10B31000237833B9044B13B10448AFF30080012301
:10B32000237010BD1082002000000000A8DC030084
:10B330000C4B43B10C480D4910B5AFF300800C48DD
:10B34000036823B910BD0A48036833B97047094B35
:10B35000002BF7D0BDE810401847064B002BF5D066
:10B36000184700BF00000000A8DC03001482002082
:10B37000FC81002000000000154B002B08BF134B80
:10B380009D46A3F5803A00218B460F461348144A88
:10B39000121A07F0A5F90F4B002B00D098470E4B5F
:10B3A000002B00D098470020002104000D000D481C
:10B3B000002802D00C48AFF300800FF0CBFD200036
:10B3C000290004F065FF0FF0B1FD00BF0000080088
:10B3D00000000420000000000000000000820020A7
:10B3E00050890020000000000000000070B50446F5
:10B3F0000E4600F0C7FA88B10368DB6A0546984735
:10B40000082C0CD0A4F10903012B14D93246214693
:10B4100010230D20BDE8704004F016B970BD2B68F4
:10B4200028465B6A98470228F0DC2B6828461B6A8E
:10B4300004219847EAE72B6828465B6A9847052865
:10B44000E4DC2B6828461B6A08219847DEE700BF2A
:10B4500030B52DED028B83B0054600F093FA04461B
:10B4600040B10368DB6A9847032D50D8DFE805F048
:10B47000373F47080190019803B0BDEC028B30BD07
:10B48000204609F031FA07EE900A2046F8EEE78AE6
:10B4900009F03AFA07EE900A2046B8EEE78A09F07A
:10B4A00043FA68EE087A07EE100AE8EEA87AB8EEDA
:10B4B000C77AE7EE077AF5EE407AF1EE10FAB1EED0
:10B4C000E78A03D517EE900A0EF082FAFDEEC87AED
:10B4D000CDED017A019803B0BDEC028B30BD204662
:10B4E00003B0BDEC028BBDE8304009F0FDB9204649
:10B4F00003B0BDEC028BBDE8304009F005BA204630
:10B5000003B0BDEC028BBDE8304009F00DBA00235A
:10B510000193B0E738B5054600F034FA58B1036836
:10B52000DB6A0446984745B1012D04D12046BDE8A9
:10B530003840FBF79DB8002038BD2046BDE83840B4
:10B54000FBF776B810B5044600F01CFA28B1036882
:10B5500021461B6ABDE81040184710BD00487047DF
:10B5600016FCFFFF704700BF10B5034B0360044695
:10B5700008F09AFF204610BDB8D2030010B5054B65
:10B580000360044608F090FF204610F031FC20468E
:10B5900010BD00BFB8D203002DE9F043AC4F3C68AA
:10B5A00085B01CB1204605B0BDE8F0834FF0FF31F7
:10B5B000012001F025FDC0B204F044FB002800F09A
:10B5C0006D810C2010F016FC03210546512001F07E
:10B5D00017FDDFF89CE29F4B064606F00F08C6F306
:10B5E000031916F4807618BF73469B4841464A46B5
:10B5F00008F002F9321C18BF01224B46414628468A
:10B600000BF004FF9548AC6008F0F6F84FF0FF31FE
:10B61000032001F0F5FCC0B204F014FB4FF0FF3141
:10B620000446022001F0ECFCC0B204F00BFB002C3D
:10B6300000F0F880002800F0F5800146204604F074
:10B64000E5F80646002800F025814FF0FF3146203E
:10B6500001F0D6FCA0F130038046382B00F2B48014
:10B66000DFE803F097B297B2B2B2B2B27CB263B283
:10B6700046B2B2B2B2B2B2B2B2B2B2B2B2B2B2B216
:10B68000B2B2B2B2B2B2B2B2B2B2B2B2B2B2B2B29A
:10B69000B2B2B2B2B2B2B2B2B2B2B2B21D004FF0F6
:10B6A000FF31012001F0ACFCC0B204F0CBFA8046BF
:10B6B0004C2010F09FFB4FF0050E682304468DE8E8
:10B6C0000840424631462B460AF0CAFB2046A86095
:10B6D00003689B6A9847A8680368DB6A98476048D4
:10B6E00008F08AF82C4620463D6005B0BDE8F0839E
:10B6F0004FF0FF31012001F083FCC0B204F0A2FA48
:10B7000004462C2010F076FB224631463C2380462E
:10B7100009F004FF3C2010F06DFB41460446052370
:10B720002A4609F0F1FF2046D1E74FF0FF31012012
:10B7300001F066FCC0B204F085FA8046442010F0A7
:10B7400059FB4FF0050E3A2304468DE80840424667
:10B7500031462B460AF0DCFA2046B8E74FF0FF31BD
:10B76000012001F04DFCC0B204F06CFA8046442088
:10B7700010F040FB4FF0050E382304468DE80840DA
:10B7800042462B4631460AF0C3FA364B2360204628
:10B790009DE74FF0FF31012001F032FCC0B204F010
:10B7A00051FA81464C2010F025FB1FFA88F34FF028
:10B7B000050E044600934A463146CDF804E02B4678
:10B7C0000AF030F9204682E7326801240023019410
:10B7D0000094D2F82080AB600F220DF10F033221CC
:10B7E0003046C047002845D14FF0320841461E4838
:10B7F00008F002F84FF0FF31012001F001FCC0B267
:10B8000004F020FA81464C2010F0F4FA0523044697
:10B8100001934A46CDF8008031462B460AF002F9E2
:10B82000204654E7114807F0E7FF4FF0FF31192099
:10B8300001F0E6FBC0B204F005FA4FF0FF31044618
:10B84000182001F0DDFBC0B204F0FCF9F5E600BF02
:10B850002C820020B4C60300BCC60300DCC6030073
:10B8600074C7030078C6030098C70300ECC6030042
:10B87000ACC60300336801940094D3F820800F22F3
:10B880000DF10F0330213046C04748B94FF0300862
:10B890004146ACE7364807F0AFFF23E73C6881E656
:10B8A000336801940094D3F820800D220DF10F032A
:10B8B00038213046C04738B938212E4807F09CFF60
:10B8C00020464FF0FF314CE7336801940094D3F8E1
:10B8D00020800D220DF10F033C213046C04738B9BE
:10B8E0003C21244807F088FF20464FF0FF3102E753
:10B8F000336801940094D3F820800D220DF10F03DA
:10B900003A213046C04738B93A211A4807F074FF47
:10B9100020464FF0FF310BE7326801940094D2F8D3
:10B9200020800DF10F03752268213046C04738B9D9
:10B930006821104807F060FF20464FF0FF31B1E664
:10B940000D4807F059FFA86800287FF4C1AE4FF0FA
:10B95000FF31032001F054FBC0B204F073F918B1B9
:10B96000064807F049FFBDE6054807F045FFB9E680
:10B9700000C7030098C7030084C7030018C703006B
:10B9800054C7030008B5FFF707FE00B1806808BD83
:10B9900008B501F05DFCFBF70FFCBDE8084001F0C5
:10B9A000BBB900BF08B501F053FCFBF775FCBDE85F
:10B9B000084001F0B1B900BF08B501F049FC0DF035
:10B9C000B7FABDE8084001F0A7B900BF08B501F01B
:10B9D0003FFC0DF0BFFEBDE8084001F09DB900BF7F
:10B9E00008B501F035FCFBF7F7FBBDE8084001F0B6
:10B9F00093B900BF08B501F02BFC0DF0D7FCBDE8F2
:10BA0000084001F089B900BF08B501F021FCFAF740
:10BA10004FFEBDE8084001F07FB900BF08B501F056
:10BA200017FC0DF017FCBDE8084001F075B900BF28
:10BA300070B5049E96420C4628DB15466BB1002A71
:10BA400000EB020107DD2046A21811F8013D00F8C5
:10BA5000013B9042F9D1002070BD042A0FD0022A88
:10BA600002D110F0010306D001462A46204605F017
:10BA700055FC002070BD02880A80184670BD10F089
:10BA80000303F1D102680A60184670BD0846002120
:10BA900006F026FE4FF0FF3070BD00BF0830704743
:10BAA00040B1002905DB4368994202DA0844007A74
:10BAB00070470020704700BF30B1002904DB4368A5
:10BAC0009942BCBF40180272704700BF40B10029C4
:10BAD00005DB4368994202DA0844007A7047002087
