:102000000080002069FF000065FF0000D56F000020
:1020100000000000000000000000000000000000C0
:1020200000000000000000000000000065FF00004C
:10203000000000000000000065FF000065FF0000D8
:1020400065FF000065FF000065FF000065FF000000
:1020500091AE010065FF000079D90100E59C010007
:1020600065FF0000A5D50100B5D50100C5D501006B
:10207000D5D50100E5D50100F5D501008DC80100D9
:102080009DC80100ADC80100BDC80100C9C801005C
:10209000D5C80100000000000000000065FF00003E
:1020A00065FF000065FF000065FF000065FF0000A0
:1020B000000000007CB0EE877CB0EE87FF00FF00E0
:1020C000FF00FF00FF00FF00FF00FF00FF00FF0018
:1020D000FF00FF00FF00FF00FF00FF00FF00FF0008
:1020E000FF00FF00FF00FF00FF00FF0010B5064CDF
:1020F0002378002B07D1054B002B02D0044800E0C9
:1021000000BF0123237010BDE0020020000000008A
:1021100044B70200084B10B5002B03D0074908480C
:1021200000E000BF07480368002B00D110BD064B3C
:10213000002BFBD09847F9E700000000E4020020E4
:1021400044B7020044B702000000000070B505006B
:102150000E0000F0A7F9041E0ED00368DB6A984752
:10216000082D0AD02B00093B012B12D91023320075
:1021700029000D2004F020FB70BD236820005B6A5D
:1021800098470228F2DC236804211B6A2000984744
:10219000ECE7236820005B6A98470528E6DC2368A3
:1021A00008211B6A20009847E0E7C04670B505008B
:1021B00000F078F9041E3CD00368DB6A9847012DD3
:1021C0003DD030DD022D36D0032D32D1200010F06D
:1021D00095FA1DF067FA061C200010F09DFA1DF01C
:1021E00061FA051C200010F0A5FA1DF05BFA311C05
:1021F000041C301C1CF062FF291C061C281C1CF04F
:102200005DFF011C301C1CF0D7FB211C051C201C91
:102210001CF054FF011C281C1CF0CEFB21F08AF896
:102220001DF020FA06E0002D03D1200010F066FA20
:1022300000E0002070BD200010F07CFAFAE72000DA
:1022400010F06AFAF6E7C04670B5050000F02AF90A
:10225000041E06D00368DB6A9847002D07D0012DC5
:1022600001D0002070BD200010F012FBFAE7200022
:1022700010F0E4FAF6E7C04610B5040000F012F9D9
:10228000002803D0036821001B6A984710BDC04690
:10229000F0B5CE46474680B5764E85B0306800280A
:1022A00004D005B00CBC90469946F0BD0121013028
:1022B000494201F0D9FE05F02FFA002800D1B0E024
:1022C0000C2026F0F5FA03210400512001F0CCFE89
:1022D00080250F27010003116D00394080461F4003
:1022E00005405CD1644B3A0064480FF05BF96A1E0C
:1022F000954143460F21EAB2194020003B0015F0FA
:10230000EBFA00235E48A3600FF04CF90121032093
:10231000494201F0A9FE05F0FFF9012105004942FB
:10232000022001F0A1FE05F0F7F9002D39D00028B8
:1023300037D00100280004F09BFE804600286CD0B6
:1023400001214620494201F08FFE0700302801D0CC
:10235000322839D101210120494201F085FE05F0E2
:10236000DBF981464C2026F0A3FA052305000193F2
:102370004A462300BFB200974146280013F042F8B6
:102380002800A56003689B6A9847A0680368DB6A19
:1023900098473C480FF006F93460200081E73A4B3B
:1023A000A1E73A480FF0FEF801211920494201F057
:1023B0005BFE05F0B1F9012105004942182001F04A
:1023C00053FE05F0A9F9B4E70023A36043460125B5
:1023D0001B68019500951F6A0F230F226B44322161
:1023E0004046B84700281ED132233221994628485A
:1023F0000FF0D8F801210120494201F035FE05F027
:102400008BF907004C2026F053FA052301934B4625
:10241000050000933A002300AEE71E480FF0C2F813
:10242000BAE730683DE743461B68019500951D6A91
:102430000F2330216B440F224046A8473023302120
:1024400099460028D3D014480FF0ACF8A0680028B3
:1024500098D101210320494201F006FE05F05CF904
:10246000002803D00D480FF09DF895E70C480FF0B9
:1024700099F891E7FC020020389102004091020097
:1024800060910200F8910200309102007091020008
:102490001C92020084910200089202009C910200AA
:1024A000D891020010B5FFF7F3FE002801D0806834
:1024B00010BD0020FCE7C04610B501F011FF1FF071
:1024C00013FE01F0EFFA10BD10B501F009FF20F086
:1024D000BBF901F0E7FA10BD10B501F001FF1FF0E4
:1024E00085FE01F0DFFA10BD10B501F0F9FE20F015
:1024F00059FD01F0D7FA10BD10B501F0F1FE20F042
:1025000039F901F0CFFA10BD10B501F0E9FE20F065
:10251000B9F801F0C7FA10BD10B501F0E1FE1FF0E7
:1025200005F801F0BFFA10BD10B501F0D9FE1FF09B
:10253000E9FF01F0B7FA10BD10B50C000299914205
:1025400023DB002B0BD1042A19D0022A01D1C307A7
:1025500011D50100200008F0F3FB002010BD210080
:102560008018A418002AF8DD013803780B700131B7
:10257000A142F9D1F1E7038800202380EEE7830729
:10258000E7D1036800202360E8E70021200009F07C
:10259000BFFD01204042E1E7083070470300002002
:1025A000002B06D0002904DB5A68914201DA5B183F
:1025B000187A7047002806D0002904DB4368994246
:1025C00001DA40180272704703000020002B06D089
:1025D000002904DB5A68914201DA5B18187A7047C7
:1025E0000123820705D1002803D0000F4342584140
:1025F000C3B218007047C046002806D0002904DB8B
:102600004368994201DA40180272704770B5002B96
:1026100021DB00291FDB4668B1421CDC5568761AB5
:10262000ED1AB5420CDC002D15DB82420AD00832CF
:1026300008304018D1182A0008F082FB002070BD35
:102640003500F0E70832D31850182A00190026F098
:1026500069F90020F3E701204042F0E74068704745
:1026600010B5002A0DDB4468A2420ADC002B09DB0E
:10267000A41A9C4200DD1C0008308018220009F0DA
:1026800047FD10BD2300F3E7436810B51C008B42E3
:1026900000DD0C00002A08DB191B914200DD11004F
:1026A0000830001900F03EFF10BD1A00F4E7C046E4
:1026B00070B50E00002B20DB002A1DDB4468991842
:1026C000A14219DC8A4217DC002B15D0710013D00F
:1026D00059428E4214DDB34212DD08308518002EB7
:1026E00016DB9C1BA9192200280026F01BF92819CB
:1026F0003200002109F00CFD70BD43689B1ADBE736
:10270000002CF9DB22000021083009F001FDF3E77D
:1027100074429A192900281926F004F92200002190
:10272000280009F0F5FCE7E710B54168083000F033
:1027300065FE10BDF8B5040043680020590000F0A4
:10274000D7FD6668002E0FDD0F272200A619074C63
:10275000811D137A01321D113B40655DE35C0D70F4
:102760004B7002319642F4D1F8BDC046B8920200D7
:1027700070B50400160008001D1E2BDB002E28DBA0
:102780006268AB19934224DC9E4222DC002D20D0EB
:1027900043001ED0002822DB29001BF0EBFE00299D
:1027A00020DB220008329219511855198A4210D0A4
:1027B0000B0004E003008A420FD0934209D0147842
:1027C0001E78581C167001321C708542F2D10B0025
:1027D000F3E770BD63689D1AD0E70100EDE72B02B7
:1027E000C018D9E74919DCE7012300B55B4283B083
:1027F00000930023FFF70AFF03B000BD10B50100EE
:10280000002000F08FFE10BD70B50021050000F023
:1028100023FE0100002000F085FE010004000831C5
:10282000280000F019FE200070BDC04630B504003D
:1028300083B00D00102A0DD8544992008A5897464B
:10284000180001F065FE0090032D03DDA30700D002
:1028500096E0206003B030BD180001F0C5FD002DEA
:10286000F8DD2070F6E7180001F0BEFD6B46188019
:10287000012DEFDD1B7863706B465B782370E9E711
:10288000180001F0B1FD0090032DE3DD00216A4640
:10289000231D505C013B187001319C42F9D1D9E7EE
:1028A000180001F0A1FDC0B2002DD3DD2070D1E7EA
:1028B000180001F015FD00900191072DCADD0822D6
:1028C0006946200008F03CFAC4E7180001F030FD2A
:1028D0000090032DBADCBDE7180001F029FD00903F
:1028E000032DB7DD00216A46231D505C013B1870A3
:1028F00001319C42F9D1ADE7180001F0F1FC0090E4
:102900000191072DA6DD23006A4608331178013BAB
:10291000197001329C42F9D19CE7180001F0F8FDD2
:102920000090032D96DD00216A46231D505C013B7B
:10293000187001319C42F9D18CE7180001F054FD68
:102940006B461880012D00DC84E7E30716D50222D0
:102950006946200008F0F4F97CE7180001F044FD16
:102960006B4680B21880012DEFDC73E7180001F090
:102970003BFD0090032D00DD68E76BE7208069E7F1
:1029800004226946200008F0DBF963E73092020078
:1029900010B5002A07DB44680830A41A80180A0022
:1029A0002100FFF743FF10BD10B584B0102A00D9F5
:1029B00077E03D4B92009B589F460123009102A96E
:1029C0000822FFF7B9FD0298039901F06BF804B0F3
:1029D00010BD002302AC009101222100FFF7ACFDE5
:1029E0000020205601F066F9F1E7002302AC0091C7
:1029F00001222100FFF7A0FD207801F05BF9E6E756
:102A0000002302AC009102222100FFF795FD002374
:102A1000E05E01F04FF9DAE7002302AC00910222F8
:102A20002100FFF789FD208801F044F9CFE700235A
:102A30000091042202A9FFF77FFD029801F03AF904
:102A4000C5E702AC00910123C6E702AC0091012367
:102A5000CEE702AC00910123D5E702AC009101233F
:102A6000DDE700910123E4E700230091042202A99D
:102A7000FFF762FD029801F029F9A8E70091012310
:102A8000F4E700230091042202A9FFF755FD029804
:102A900001F00AF99BE70091002390E700910123E0
:102AA000F1E7002093E7C0467492020010B5002AB7
:102AB00008DB436808309B1A80180A001900FFF7EA
:102AC00073FF10BD002001F0F5F8FAE710B503F030
:102AD00015FD10BD10B503F015FD8000800810BD78
:102AE00010B503F069FE10BD10B50DF00DFA10BD64
:102AF00010B5C11703F0C4FC10BDC04610B503F0FB
:102B0000D3FC10BD10B503F0DFFC10BD00B583B0E1
:102B100003F0F0FC009001910821684602F0CAF928
:102B20008000800803B000BD00B583B003F0E2FC74
:102B3000009001910821684600F0F4FC03B000BD4C
:102B400070B50C1E0CD00B6808001B6A98472368F0
:102B500005005B6A200098470100280005F098F8FE
:102B600070BDC04610B502F0C9F810BD10B5012007
:102B700002F05EFB10BDC04610B5022002F058FB0B
:102B8000014809F0B5FC10BD93030000014B18602B
:102B90007047C046000300207047C04600207047C1
:102BA000F0B54E46DE4657464546E0B5894685B007
:102BB000111E00DCE3E040235B429B467F339A46D4
:102BC000203B9C46103B0024002298464D4609E0DD
:102BD00001347F2B1DD80132002801D00370013051
:102BE000A14226DD2B5D5FB2002FF1DA1F006646A1
:102BF000B743FFB2C02F00D177E01F004646B7436E
:102C0000FFB2E02F00D18DE0F8271F40F02F18D041
:102C1000013402320028E3D05E469F09374356460E
:102C20003340802676423343077043700230A1421E
:102C3000D8DC100005B03CBC90469946A246AB4695
:102C4000F0BDE71CB942E3DD57462E1901967678B0
:102C50000296BE43802EDBD1019EB6780396BE431A
:102C6000802ED5D1019EF678370001965646B7439F
:102C7000802FCDD1E0279E047F033E40B1465646CB
:102C8000019F37404E463E43B146029E3703FC2625
:102C9000B60237404E463E43039F0196BE01FC27D5
:102CA0003F013E403700019E3743524EB146524EDF
:102CB000B944B145ACD80434504B9F4267D8033275
:102CC000002800D18CE720263B0B76423343564642
:102CD0000370BB093340802676423343437053462A
:102CE0003B403343837003307AE7661CB146B14200
:102CF00000DC82E72F197E78370001965646B743ED
:102D0000802F00D079E7F8279E01FF003740029717
:102D10005746019E3E40029F37437F2F31DD3B00E7
:102D2000023476E7A71CB94200DC6DE757462E193E
:102D3000019676780296BE43802E00D064E7019E0D
:102D4000B6783700B1465646B743802F00D05BE7D0
:102D50001F073F0C01974E4657463E40019F3E439A
:102D6000029F0196BE01FC273F013E403700019EB5
:102D70003743234EB74200DC4AE703349CE7002286
:102D800057E702324C46002800D045E72AE7D8260C
:102D90003602B146174B0632FB189F0A4F440028F3
:102DA00000D11DE7ED2601970670BE0957463E404B
:102DB00080277F423E4346705646019F9B05374021
:102DC000802676423743DC263602B146ED26C670B1
:102DD00056469B0D4B4487709F09374080267642AC
:102DE000374356463340802676423343077143715A
:102DF0000630F5E60000FFFFFFFF0F00FFFF0000B9
:102E0000FF0700000200007841B2002900DB704794
:102E10001F2301009943C02910D0F0230340E02B69
:102E2000F5D1FC21537809019B01194003073F208C
:102E300092781B0C0B4310401843E8E78301F820FD
:102E4000C00003403F20527810401843DFE7C046DF
:102E50007047C04680880A30800870470630704747
:102E60008088704783888B4202D3063040187047B1
:102E70000020FCE780880A30800870477047C04611
:102E80000630704780887047F0B58488851D002023
:102E9000002C16D000231F260F2702E001339C428E
:102EA0000FDDEA5C013051B20029F7DA1100B143BD
:102EB000C02907D0BA43E02AF0D1023301339C4243
:102EC000EFDCF0BD0133E9E7F0B5851D86880F2002
:102ED000002200231F27844602E001339E4213DBB9
:102EE000E8180132047891420FDB60B20028F4DA6E
:102EF0002000B843C02809D060468443E02CECD1C0
:102F0000023301339E42EBDA0020F0BD0133E4E7E7
:102F1000C38880681B095B00C018704780887047B1
:102F2000C08870470320704740680B3080087047A6
:102F3000F0B54E464546DE465746E0B5C68882683F
:102F4000360976003300944683B06344019380468B
:102F50008488002903D02200180007F0F1FE002326
:102F6000019A13554346DF883F0935D01300914637
:102F70007A00A14492461F0000241F254B46DE1B09
:102F80001CD40F203A7810210023834607E0013338
:102F90009E4213DBF81801390278002925D050B27F
:102FA0000028F4DA1000A843C0281CD058468243F9
:102FB000E02AECD1023301339E42EBDADC208000C0
:102FC00009F096FA0023019A00279B1A424692685C
:102FD00013530234A245D1D103B03CBC904699466C
:102FE000A246AB46F0BD0133D1E70300019A0700CA
:102FF0009B1A4246926813530234A245BED1EBE7B6
:1030000010B58068002801D001F0F0FF10BDC04667
:1030100010B50400406802F00FF8A06802F00CF848
:1030200010BDC046F0B5C646070000B5994225D38D
:1030300012680909490018095118002824D11F20D5
:103040008446103800240022804602E00132974274
:1030500014DB881801340578A34210DB6EB2002E11
:10306000F4DA28006646B043C0280BD040468543BA
:10307000E02DEBD1023201329742EADA002004BCA3
:103080009046F0BD0132E1E7054CA44660444000A3
:10309000805A0F223F1A0918BFB21340CFE7C0462B
:1030A000FFFFFF7F020010B50B000832C188808847
:1030B000FFF7B8FF10BDC046F0B5DE4657464E4696
:1030C0004546E0B5434C83B0A1888346002900D033
:1030D00075E05A46200002F0E9FD00239946984623
:1030E0003D4EA388002B11D0200002F0F3FD0368B1
:1030F00005009E424DD09B6A98472B6880445B6ACE
:1031000028009847A3888144002BEDD143461E092F
:103110004B467600581C801902F076FB8446A18845
:103120000190664400294FD15A46200002F0BEFDAE
:10313000294B9A46A388002B16D0200002F0CAFD26
:10314000036805009A452FD05B6A98472B680700F3
:103150001B6A280098473A000100300007F0F0FD94
:10316000A388F619002BE8D15A461C4B00211360A6
:103170005B464A469A804246DA80019A58469A60EF
:10318000FFF7D6FE03B03CBC90469946A246AB463C
:10319000F0BDA1888268200002F088FD6A68A188DD
:1031A000200002F083FD9CE7A1888268200002F0E5
:1031B0007DFD6A68A188200002F078FDBAE7084822
:1031C00009F096F9A18884E7054809F091F9A188EA
:1031D000AAE7C0460803002020930200689302007B
:1031E0007103000010B50400FFF766FFE08810BD12
:1031F00010B50400FFF760FFA08810BD10B50400F3
:10320000FFF75AFFE088A36800094000181810BDB6
:1032100070B504000D00FFF74FFF22002B000832AD
:10322000E188A088FFF7FEFE70BDC046032070470E
:1032300003207047808870477047C04600280FD031
:1032400043688B4201D0002B06D1531C07D0836802
:103250009A4204D0002B02D000680028F0D17047B9
:103260000020FCE7084B1B68002B0BD05A689042EB
:1032700001D0002AF7D14A1C04D09A68914201D0AB
:10328000002AF0D11800704704030020F0B5C646AC
:10329000164F00B53B6804000D009046002B03D18B
:1032A0000DE01B68002B0AD05A68A242F9D19A6837
:1032B000AA42F6D14246DA6004BC9046F0BD102026
:1032C00002F0B4FA061E04D010220021300008F0EB
:1032D0001FFF3B683000336043467460B560F360A5
:1032E0000C30012102F052FB3E60E5E704030020B0
:1032F000F8B506000C1E4FDB002C01D13B48F8BD91
:10330000002E68D0002C0CDD33787F2B1DD8731C69
:10331000311904E000229A560133002A15DB994244
:10332000F8D1E01D02F0BCF9051E5DD0304B2B60DA
:10333000AC80002E04D0A81D2200310007F000FD53
:1033400000232C19A3712800D9E7132C28DD0C20A9
:1033500002F0A6F9051E01D0264B036000232800C9
:10336000AB6002F02BFB0F21AC80002200231F2753
:103370008C4602E001339C4219DDF15C013248B217
:103380000028F7DA0800B843C0282BD060468143F4
:10339000E029EFD10233EDE725F024FB0400ABE791
:1033A000E01D02F07DF9051E1ED0134BBFE7002380
:1033B00092B2EA80120950000134AB60001902F0A9
:1033C00023FA3100A8602800FFF7B2FD280002F0C0
:1033D00007FB280093E7E01D02F062F9051EA5D166
:1033E000B480ADE70133C5E7AC80A4E7C094020028
:1033F000C89302006893020098930200F8B5050094
:103400000C1E1DDB002C02D1124C2000F8BD220046
:1034100029000020FFF7C4FB0600844214D03000CE
:1034200002F004FA070022002900FFF7B9FB31007F
:103430003800FFF75DFF0400380002F015F9E4E7FB
:1034400025F0D0FA0400DDE721002800FFF750FF47
:103450000400DAE7C0940200F8B5DE4657464E464F
:10346000454603680400E0B51B6A0E0098472368D0
:1034700080465B6A20009847071E4AD0264B0024EE
:1034800000259B46434618190378ED2B0DD0002EDE
:1034900000D0735501350134BC42F3D328003CBC45
:1034A00090469946A246AB46F8BD621D9246BA4286
:1034B000EDD2FFF7A7FC8146E01C4044FFF7A2FCD9
:1034C000164B4B445B45E6D8154A82185A45E2D85C
:1034D0009022920194469B026044C318002E15D09E
:1034E00010213F209A1449420A4319130140BF3862
:1034F000725501437219BF30517099110140BF38A4
:10350000014391703F210B400343D370043554466F
:10351000C1E70020C3E7C046FF0300000028FFFF0B
:103520000024FFFF70B506000D1E12DD08000830F4
:1035300002F0B6F8041E01D0094B2360200065603C
:1035400008302A00002E06D0310007F0F9FB2000D9
:1035500070BD0448FCE7002108F0DAFD2000F7E721
:1035600034940200B4940200014B18607047C046C6
:10357000B8000020034B044A5843136858401060B9
:103580007047C046CB5725CAB80000200F4BF0B596
:103590009C46050001241F682A000020BE09FB0F7D
:1035A00073407B403E0979087340BF087B404B4025
:1035B000DB070B431F00230040003B401843520829
:1035C000ECD18542E8D363461F60F0BDB80000200F
:1035D00000487047C094020010B5030482B01B0C71
:1035E0007F2B24DD144A01A8934213DD20221913F6
:1035F00052420A433F24802102709A1149422240DC
:1036000023400A431943817003214270FFF770FE83
:1036100002B010BD4022991152420A4302703F226B
:103620001A4080235B42134343700221EEE701A856
:1036300003700121EAE7C046FF070000F0B5D64657
:103640004F4646460400C0B50D0000284DD04A4BF9
:1036500000294FD0984200D17EE09D4219D02668C3
:10366000464FB7421BD0736A200098472B688046AC
:103670005B6A28009847060046448146322E3ED9B0
:103680000C2002F00DF8002800D007604460040010
:10369000856020001CBC90469946A246F0BD2B6870
:1036A0009E42EDD0A06803689E42E9D05B6A9847CD
:1036B0002B6880465B6A2800984740443228DFD850
:1036C0000C2001F0EDFF071E00D00660380002F06C
:1036D00075F9636829007B60A068FFF7AFFFB860E9
:1036E000380002F07DF93C00D3E7002939D0244CA2
:1036F000214BB2E798423CD00668214DB0E72368E1
:1037000020001B6A98472B6882461B6A280098474E
:10371000310007000020FFF7EBFD036804001B6A7F
:10372000984742465146050007F00AFB43464A4681
:10373000E818390007F004FB002EAAD02B787F2B65
:103740000CD86B1C751904E000229A560133002A2C
:1037500004DBAB42F8D19CE70C009AE7094B2360ED
:1037600097E7074D054F084E2C00B74200D07AE787
:1037700086E7034C8DE7C046C09402002093020008
:10378000149502009893020040505854F8B5050073
:103790000E0088421BD003685B6A984733680700B5
:1037A0005B6A300098472B6804001B6A2800984722
:1037B000336805001B6A30009847BC4209D80023D3
:1037C000595D1A5C914206D10133A342F8D9002019
:1037D000F8BD3C00F3E701209142F9DA01204042B4
:1037E000F6E7C04610B503689B6A984710BDC0460F
:1037F000F0B54746CE4680B5037883B006008846CC
:10380000202B03D101363378202BFBD02B3B5A429F
:103810005341F61833782D2B00D176E000214C4A25
:1038200000910192302B00D178E0002B00D18CE088
:103830000027002400251EE00022464B200029001E
:103840001CF00AFF04000D0048461DF0EFFC2200AA
:103850002B001BF0BDFF04000D00002F07D00098C7
:10386000019900223B4B1CF0C3FA009001910136F4
:103870003378002B0FD030225242914699444A4669
:10388000092AD9D9002F17D12E2B15D1013633781B
:103890000127002BEFD12200009801992B001CF08A
:1038A000DBFE04000D0043461E602000290003B02B
:1038B0000CBC90469946F0BD20229343452B01D184
:1038C00005E001363378202BFBD0002B3AD1009A4B
:1038D000019B200029001CF0BFFE337804000D007E
:1038E000002BE0D00A224146701C24F0B7FF194992
:1038F000020000201AF006FF02000B002000290041
:103900001CF0AAFE04000D00CFE700217378124AD4
:10391000013600910192302B00D086E72021727889
:103920000A43782A00D083E710224146300024F071
:1039300095FF1DF07BFC009A019B1CF08DFE04009E
:103940000D00B2E70024054DAFE700240025A2E7F3
:103950000000F03F000024400000F0BF0000F87FAE
:10396000F8B505000C00161E1BDD03689B6A98471E
:10397000002C18DB001B864211DA2B682100DB6A61
:10398000280098472B68A1190700DB6A2800984790
:10399000041E12D0E11B3800FFF7AAFC02E0002849
:1039A00009DC0848F8BD2418E343DB171C40001B62
:1039B0008642E2DBF3E70600DFE7034808F098FD04
:1039C000E8E7C046C094020072030000F8B547461D
:1039D000CE46060080B514000F0000284CD0002908
:1039E0004AD003681B6A9847E14380463368C91789
:1039F0002140DB6A300098474346C51A336804000B
:103A00005B6A300098473B68451B5B6A3800984703
:103A10000600002C30D085422ED33B6838001B6A4C
:103A200098478146077803E0013D0134B54223D32E
:103A30002378BB42F8D132004946200024F063FFCE
:103A40000028F1D14346E41A0023002C16DD1F257F
:103A50000F2602E00130844210DD4246125C013341
:103A600051B20029F6DA1100A943C0290BD0B243A4
:103A7000E02AEFD10230EDE701235B4218000CBCD5
:103A800090469946F8BD0130E4E7C04610B5FFF70F
:103A90009DFF0130431E984110BDC0460123584090
:103AA0007047C04670B50A0005000C1E14D10120F5
:103AB000002D10D02A002300280021001DF062FBF9
:103AC000002848D10C2001F0EBFD002801D0234B49
:103AD00003604560846070BD4B0021495B0D59183F
:103AE0001D292AD8142915DC0028E3D11D48844655
:103AF000200063449840031EDCD18020E4020006CD
:103B00001F332043591AC840002A1FDB01234000FD
:103B10001843E0E714488446280063449840031E95
:103B2000C8D18020E40200061F335B1A2043D8402E
:103B30003423591ACD402843E6E71E29BAD100287C
:103B4000B8D10A4B9C42B5D10948C4E70123404291
:103B500040001843BFE70E20BDE7C0466494020052
:103B600001FCFFFF0DFCFFFFEDFBFFFF0000D0C1DC
:103B700001000080F0B5036883B01B6A0500984718
:103B800001A90400FFF734FE2B6806005B6A2800D9
:103B90000F009847019B2418A34207D000261B4F13
:103BA00030003900FFF77EFF03B0F0BD0022002394
:103BB000300039001AF0F4FC0028F1D101227C0019
:103BC00064085242124B300021001DF0DBFA00283D
:103BD000E4D101220E4B5242300021001AF0FAFCCF
:103BE0000028DBD1802300225B03300021001DF080
:103BF000C9FA0028D2D1802300225B0330002100C3
:103C00001AF0D4FC0028CBD0C8E7C0460000F87FEB
:103C1000FFFFEF7F10B51DF009FBFFF743FF10BD5D
:103C2000036870B5DB6A04009847051E1AD0FFF7D9
:103C3000E9F8002806D043005A1090420FD0FFF751
:103C4000E9FF70BD236820001B6A984723680600BF
:103C50005B6A200098473618B54203D00023012044
:103C60001843EEE70E20ECE710B5002802D0FFF76E
:103C7000D7FF10BD0E20FCE710B500280ED0FFF7CF
:103C8000CFFF04000E2809D0C30703D56010FFF74B
:103C9000A3FC10BD024808F02BFCF7E70148F8E749
:103CA00071030000C094020010B51DF039FBFFF74E
:103CB000F9FE10BD430010B55A10904202D0FFF734
:103CC000A9FF10BD01201843FBE7C046064B10B505
:103CD000984203D801234000184310BD1DF0E8FAB4
:103CE000FFF7E0FEF9E7C046FFFFFF3F4223002851
:103CF00000D1383B18007047F0B54E464546DE46C9
:103D00005746E0B5002383B01600002205000C00E2
:103D10001AF04CFC002800D0ACE000220023280060
:103D200021001AF03DFC00280AD030233370002314
:103D3000737003B03CBC90469946A246AB46F0BDBA
:103D4000280021001EF0F6FE1DF03CFA7D4A804658
:103D50007D4B280021001AF029FC002800D191E0B9
:103D60004346002B00DAD0E04246002077491AF0A3
:103D7000C9FC02000B00280021001CF039F80500E6
:103D80000C000123019300239946714871492A00D0
:103D900023001CF061FC00226F4B1BF019FD1AF090
:103DA0002DFD0B00012149428A460021C446C84628
:103DB000894601990200002900DC93E02E21674D1D
:103DC000674F0120674C8B469D421CD89D4227D0EF
:103DD000302101E09D4227D0121BAB4101319D42B1
:103DE000F8D9CCB234701400711C1C4311D1019C61
:103DF000A0421CDA083F0F2819D03C6F7D6F0130BC
:103E00000E009D42E2D9302434701400711C1C4312
:103E1000EDD0019CA042EDD15C46B11C7470E9E785
:103E20009442D5D93024EFE79442D5D9D9E74B460F
:103E3000002B0FD0524600233020541CC8540133AD
:103E4000E21A002AFADC5346DB435246DB171340E2
:103E50000133C9186346012B54D065230B706346A8
:103E6000002B60DD2B228B1C4A70190060460DF080
:103E700037F95EE72D23337080231B069C460136FD
:103E800064444AE7384A394B280021001AF0A2FB63
:103E9000002800D064E743460133019343460E2BCC
:103EA00045DD0E235B4243441A0000202749994612
:103EB0001AF028FC02000B00280021001BF098FFDC
:103EC0000022254B1BF084FC1AF098FC0B000F21FC
:103ED000494241448A4601218C4601990200002949
:103EE00000DD6BE72E203021707040463170B11C30
:103EF000C643002E19D030208E19087001318E4231
:103F0000FBD15BE700230B7013E75A4200200F49F7
:103F10001AF0F8FB02000B00280021001CF09CFBAB
:103F200005000C002DE74B1C9FE70E0046E74346BB
:103F30000E220020D21A05491AF0E4FB0123C146E3
:103F4000984624E78DEDB5A0F7C6B03E00002440AA
:103F50000000901EC4BCD6420000E03FF35A0000AF
:103F6000E88F020000407A1050EFE2D6E41A4B448A
:103F7000012070B54042FFF709FB04000D48FFF730
:103F800005FB060020001DF093F900220A4B1CF0EF
:103F900063FB040030000D001DF08AF9074A084B4E
:103FA0001BF026FF02000B00200029001BF010FC74
:103FB00070BDC046FFFFFF000000F03D0000E0DFE5
:103FC000FFFF6F4310B5FFF7D3FFFFF76BFD10BD89
:103FD0004843704710B51AF0E7F910BD10B50C2032
:103FE00001F05EFB041E01D001F07CFF200010BD3B
:103FF0000089704710B5043001F0E2FE10BDC046E4
:1040000010B50A000430818801F0C0FE10BDC04622
:1040100010B5043001F0E4FE10BDC04603894268CB
:10402000994202D28900885870470020FCE7C046B8
:1040300010B5043001F0AAFE10BDC04610B5043022
:1040400001F0DEFE10BDC04610B5043001F0FCFEEC
:1040500010BDC046024B1B68588CC0007047C0465C
:10406000480300207047C0461B4B70B51B68040016
:104070000D00002B16D0586A002813D003689C420C
:1040800027D0002B0ED003000021083302E00833B4
:10409000002A07D01A680231A242F8D10131890002
:1040A000405870BD03F0E6FC002810D003689C4225
:1040B0000FD0002B0BD003000021083302E008339F
:1040C000002A04D01A6802319442F8D1E6E72800A9
:1040D000E7E70421E4E7C046480300204068704752
:1040E0004160704710B5082001F0DAFA041E01D0D3
:1040F00001F002FF200010BD70B505000C00160095
:1041000000290EDB838899420BDAA4002C19E3689E
:10411000002B03D00B21054801F050FF2800E6607A
:1041200070BD0A21014801F049FFEEE78603000057
:1041300010B508F0DDF910BD002802D0024B9842FE
:1041400000D070470020FCE7C0940200431E984155
:104150007047C04610B5142001F0A2FA041E01D029
:1041600001F0D2FE200010BD10B5040001F0D8FE11
:10417000002806DB238AE268984202D28000805839
:1041800010BD0020FCE7C046F0B5C646204B00B588
:104190001B680700DB6A1A1D1C689B689046651E39
:1041A000984220D3AB009B5898421CD8002D15DDB7
:1041B0006410A3009B58984211D0012209E0621CB0
:1041C000AA420BDC414654196410A3005B589F427D
:1041D00005D09F42F3D8651EAA42F3DD00242000DB
:1041E00004BC9046F0BD002DF8DD012602E0651EFE
:1041F000B542F3DB424674196410A30098583900A5
:10420000FFF7C4FA0028EAD0F1DA661CF0E7C046EE
:1042100048030020044B10B51B680131DB6A89009C
:10422000C958FFF7A1FF10BD4803002070B5040076
:104230000D00160001F074FE002806DB0C340100AE
:104240003200200001F0A2FD70BD2189201D2A004E
:1042500001F09CFD2000218A0C30320001F096FD17
:10426000F2E7C046044B10B51B680131DB6A8900D8
:10427000C958FFF7DBFF10BD48030020014B186849
:104280007047C046440300207047C04610B5030085
:10429000820709D100281CD0012203689343DA78F1
:1042A000F92A14D0042010BD0020002BFBD00220DE
:1042B000DA07F8D40E2BF6D0422B0CD00A2B0AD0FA
:1042C000062BEFD0054808F013F90420EBE79878A7
:1042D000E9E70020E7E70120E5E7C0462103000009
:1042E00070B504000E281BD0002819D0830711D107
:1042F0002000FFF7CBFF0500022814D0032D0FD1BB
:104300002000FFF737FC04000E2809D0002C07D04E
:104310002C42EDD0200000F00BF81CF087FF70BDA0
:1043200000200249FBE76068A168F8E70000F87F19
:1043300070B54210C30741D4830741D4002844D04C
:10434000FFF7CEFF01224C0064080E005242244BBE
:10435000210005001CF016FF002836D10122204B59
:104360005242280021001AF035F900282DD180236F
:1043700000225B03280021001CF004FF002824D148
:10438000802300225B03280021001AF00FF9002887
:104390001BD1280031001DF0ABFF0022114B1EF095
:1043A000D5FA0022002304000D001AF0FFF80028BF
:1043B0000DD1200029001AF003FA0200100070BD90
:1043C00080110200501E8241F8E70022F6E720002B
:1043D00029000022034B1BF0FBF904000D00E8E765
:1043E000FFFFEF7F0000F04110B5FFF7A1FF10BD08
:1043F00070B50D00FFF79CFF04002800FFF798FF41
:104400001F2318408440630020005A10944202D0B9
:10441000FFF700FC70BD01201843FBE770B50D00ED
:10442000FFF786FF04002800FFF782FF1F231840D4
:104430000441630020005A10944202D0FFF7EAFBC7
:1044400070BD01201843FBE770B50D00FFF770FF4A
:1044500004002800FFF76CFF604043005A109042B0
:1044600002D0FFF7D7FB70BD01201843FBE7C04621
:1044700070B50D00FFF75CFF04002800FFF758FF40
:10448000204343005A10904202D0FFF7C3FB70BD97
:1044900001201843FBE7C04610B5FFF749FFC043B2
:1044A00043005A10904202D0FFF7B4FB10BD012028
:1044B0001843FBE770B50D00FFF73AFF0400280032
:1044C000FFF736FF204043005A10904202D0FFF71A
:1044D000A1FB70BD01201843FBE7C04670B50D007D
:1044E000FFF726FF04002800FFF722FF1F231840D4
:1044F000C440064B20009C4203D8012360001843AF
:1045000070BD1CF0D5FEFFF7CDFAF9E7FFFFFF3FC6
:1045100010B5FFF7E5FE1CF055FF10BD70B50E009D
:10452000FFF7DEFE040030000D00FFF7D9FE0200A9
:104530000B00200029001BF04BF9FFF7B3FA70BD08
:1045400070B50E00FFF7CCFE040030000D00FFF741
:10455000C7FE02000B00200029001CF0FDFAFFF747
:10456000A1FA70BD012213000B40D0B50C00184217
:1045700003D0C3130133012B0FD9FFF7B1FE06009F
:1045800020000F00FFF7ACFE02000B0030003900E6
:104590001CF062F8FFF786FAD0BDE3130133012B5C
:1045A000EBD840106410604343005910884202D099
:1045B000FFF730FBF0E713431800EDE770B50E008E
:1045C000FFF78EFE040030000D00FFF789FE0200A9
:1045D0000B00200029001BF00BFCFFF763FA70BDF5
:1045E000F8B501250C00284201D029420FD1FFF770
:1045F00077FE060020000F00FFF772FE02000B009E
:10460000300039001EF0A2F9FFF74CFAF8BD4B104C
:10461000EDD0FFF78DFE06002000FFF789FE0100B8
:10462000300019F0A7FF48004210914201D1284301
:10463000ECE70800FFF7EEFAE8E7C04670B50E00B9
:10464000FFF74EFE040030000D00FFF749FE0200A8
:104650000B00200029001EF0F9FAFFF723FA70BDC5
:104660000123F0B50E0083B018421DD1FFF738FECC
:10467000040030000D00FFF733FE06000F000200BB
:104680000B002000290019F0A5FF00282ED13200D0
:104690003B002000290019F083FF002820D02000D3
:1046A0002900FFF7FFF908E01942DFD0401076102B
:1046B000864207DB03D17000184303B0F0BD33001E
:1046C00006001800801BFEF761FF301844006310DD
:1046D000984202D0FFF79EFAEFE701202043ECE773
:1046E00032003B0026002F0014001D00FFF740FCA5
:1046F0003200009001913B00200029001CF02CFAB0
:10470000009A019B1BF0A8FF32003B001BF060F8F1
:10471000FFF7C8F9D1E7C04610B5FFF7E1FD1EF07D
:1047200081F9FFF7BFF910BD10B5FFF7D9FD1EF0F5
:1047300001FAFFF7B7F910BD10B5FFF7D1FD1DF075
:104740000FFAFFF7AFF910BD10B5FFF7C9FD1DF067
:1047500027F9FFF7A7F910BD10B5FFF7C1FD1DF050
:10476000C7FDFFF79FF910BD10B5FFF7B9FD002297
:10477000034B1BF02DF81DF0F3F9FFF793F910BD73
:104780000000E03FF8B504000D000E2807D00E2908
:1047900005D0884229D00B000340DB0701D500205B
:1047A000F8BDFFF773FD06002800FFF76FFD864296
:1047B000F5D123002B439B07F1D1032E17D0022EF6
:1047C000EDD12000FFF78CFD060028000F00FFF759
:1047D00087FD02000B0030003900012419F0E0FED3
:1047E000002800D10024E0B2DAE70120D8E7290050
:1047F0002000FEF7CBFF43425841C0B2D0E7C0468D
:1048000010B5FFF7BFFF4223002800D1383B180046
:1048100010BDC04610B5FFF7B5FF4223002800D0F9
:10482000383B180010BDC046F8B504000D000E2836
:1048300015D00E2913D0062846D0422849D00A2880
:1048400031D00300062900D17EE0422D09D00A2D87
:1048500043D09D423FD02B002340DB0704D50020EE
:10486000F8BD0322934236D02000FFF70FFD06006B
:104870002800FFF70BFD0300032E30D0032816D0CD
:10488000012E3AD001282FD09E42E8D122002A439F
:104890009207E4D1032B4FD0022B33D02C1B604264
:1048A0006041C0B2DCE70123062DDDD0CDE7022E4A
:1048B00028D0012ED3D1062CD1D00226422C39D0BB
:1048C0000A2CDFD10124DDE701200629C8D000230E
:1048D000BBE70323E8E70120C2E70122C2E7022881
:1048E00010D00328CED1D1E70223062D1ED0422DB1
:1048F0001ED00A2DC8D10125C6E7062CDDD102261F
:104900000024BFE72000FFF7EBFC060028000F00A3
:10491000FFF7E6FC02000B0030003900012419F01B
:104920003FFE002800D10024E0B299E70025ABE764
:104930000325A9E70324A5E729002000FEF726FFA9
:1049400043425841C0B28BE700228BE710B5FFF716
:104950006BFF10BD10B5FFF767FF4223002800D1A1
:10496000383B180010BDC04610B5FFF75DFF42236D
:10497000002800D0383B180010BDC046F8B50689A5
:104980000F0045680024002E04D10BE001340435EB
:10499000A64207D939002868FFF746FF0028F5D05E
:1049A000200001E001204042F8BDC04610B50022C1
:1049B0000400FFF7E3FF002806DB043401002000B9
:1049C00001F01EFA012010BD0020FCE7F8B504003C
:1049D00083071ED100282AD0FFF758FC032828D0CF
:1049E0000125022821D12000FFF77AFC02000B00EC
:1049F00006000F001CF0C6FB002818D1002300227F
:104A00003000390019F0CCFD434243415B421D4068
:104A10000BE00A280BD0002C09D00E2C07D0062C56
:104A200005D0013C25006C1EA5412800F8BD0025DD
:104A3000FBE7024B9C42FAD00125F6E7C094020046
:104A400010B5422806D00A2802D0FFF7BFFF10BDDC
:104A50000020FCE70120FAE7F8B504000E000E285C
:104A600042D00E2940D0FFF711FC05003000FFF7BF
:104A70000DFC032D2FD0B44234D02000FFF730FCC2
:104A8000040030000D00FFF72BFC220006000F0091
:104A90002B00200029001CF075FB002824D13200D7
:104AA0003B00300039001CF06DFB00281CD13200A7
:104AB0003B002000290019F079FD002817D13B00A8
:104AC00032002000290019F085FD431E9841012382
:104AD00040421840F8BD0328CDD131002000FEF738
:104AE00055FEF7E70020F5E702204042F2E70120FB
:104AF0004042EFE70B00034010B5DB0706D4FFF799
:104B0000ABFF0300C00F023308D010BD0123884261
:104B100001DAD8B2F9E70023D8B2F6E70020F4E7CB
:104B20000B00034010B5DB0707D4FFF795FF831C8C
:104B300001D0002803DD0A2010BD8842FBDC4220A2
:104B4000FAE7C0460B00034010B5DB0707D4FFF7B8
:104B500083FF831C01D0002803DB0A2010BD88429C
:104B6000FBDA4220FAE7C0460B00034010B5DB0732
:104B700005D4FFF771FF002803DB422010BD8842F7
:104B8000FBDA0A20FAE7C0460B00034010B5DB074A
:104B900005D4FFF761FF002803DD422010BD8842E5
:104BA000FBDC0A20FAE7C04670B590B00400FFF7BE
:104BB0006DFB032842D002280ED0052832D0002CED
:104BC00053D00A2C53D00E2C3AD0422C51D0062C64
:104BD00051D02B4810B070BDE30725D40E2C2FD038
:104BE0002000FFF77DFB01224C0064080E005242BA
:104BF000244B210005001CF0C5FA002822D1012217
:104C0000204B52422800210019F0DAFC002819D16B
:104C1000002200232800310019F0C8FC00282CD104
:104C20001948D7E71948D5E7694660100CF058FADB
:104C3000012168464942FEF75BFBCBE72000C9E74C
:104C40001348C7E72A003300280031001CF09AFA05
:104C50000028F5D1280031006A46FFF74DF8012100
:104C600068464942FEF744FBB4E70A48B2E70A48FF
:104C7000B0E70A48AEE70A48ACE70A48AAE7C046E8
:104C800038950200FFFFEF7FE8940200489502008C
:104C9000F8940200A49402002C95020020950200D2
:104CA000149502000495020010B5FFF7EFFA0528ED
:104CB0000FD80A4B80001B589F46094810BD094871
:104CC000FCE70948FAE70948F8E70948F6E7094820
:104CD000F4E7094807F00CFC0020EFE7CC92020053
:104CE000D8940200949402005C9502007C95020026
:104CF0006C950200C89402002203000070B5040005
:104D0000FFF7C4FA042815D02000FFF74DFF050077
:104D10002000FFF7C9FF03681B6A98472B6806004D
:104D20001B6A280098472200030031000E480CF04F
:104D300039FC70BD002C01D0A30704D021000B4822
:104D40000CF030FCF5E7216801230A009A4353690F
:104D50000748834202D020009847EAE713880548B5
:104D600012890CF01FFCE4E718940200289402005A
:104D7000FD4C0000F893020010B50100040011483A
:104D80000CF010FC002C03D0A3070BD0062C16D07F
:104D90002000FFF77BFAF5239B009C46604407F058
:104DA000A7FB10BD012321689943CB78F92BEDD1E6
:104DB0000B898A7804480CF0F5FB062CE8D10348EF
:104DC000EDE7C046E492020000930200DD0300001C
:104DD00010B5010003480CF0E5FBE420800007F06B
:104DE00087FB10BD5093020010B501F08FFB04004B
:104DF000102000F01BFD23690360206110BDC04638
:104E000070B501F083FB04690500002C05D0236810
:104E100020002B6100F028FC70BD024807F068FB01
:104E2000F5E7C04653030000F0B5C64600B584B0B0
:104E3000804601F06BFB04690600002C16D0236845
:104E4000220033616B4683CA83C3126820001A6054
:104E500000F00AFC43467361064B31001B6868464C
:104E60009B6B984704B004BC9046F0BD024807F025
:104E70003FFBE4E748030020E703000010B501F022
:104E800045FB122344694361122C01D0200010BD60
:104E9000014807F02DFBF9E75303000010B501F0BE
:104EA00035FB4369122B03D0FFF7E8FFFFF7BCFF88
:104EB00010BDC04610B500290AD003004118054CAA
:104EC000054860431A78013350408B42F9D110BD38
:104ED0000148FCE793010001C59D1C81032370B5C7
:104EE000046805009C4310D0A30F11D02501AD0923
:104EF000002D05D080235B019D4204D9002C02DBEC
:104F0000064807F0F5FA280070BD054807F0F0FAEA
:104F10002800E36998470500EAE7C0464903000016
:104F200051030000124970B58A880B68551E0FD3D3
:104F3000AC00E458A04217D0023A92009B182A0015
:104F400004E01C00043B5E68864206D0013AF8D2B9
:104F5000D220800007F0CCFA70BD954204D0080042
:104F600000F0B8FE2060F7E7080000F0B3FEF3E7BA
:104F70001C03002010B518210148FEF7D3FA10BD1C
:104F8000240300200122036893431888801070478F
:104F900010B5002815D0C468002C13D02368043C39
:104FA0004360A3688360E3682268C360530F032BE8
:104FB00003D00D4807F09CFA226880231B06134398
:104FC000236010BD041F2268530F032B03D0064833
:104FD00007F08EFA226880231B061343236000200B
:104FE00001F09EFAEDE7C0464903000010B5041F2A
:104FF0002368DB0715D40D4B1B68002B0DD01A005E
:1050000008329442F8D359688C4662449442F3D2F1
:10501000012322681343236010BD054807F068FA96
:10502000F6E7044807F064FAE5E7C04610030020FD
:105030004A0300004F03000010B50400830703D1AA
:10504000002801D0030F00D110BD2168104B194278
:10505000FAD1CB78F92BF7D10E4B1B68002B11D06E
:105060001A0008329442F8D3586884466244944245
:10507000F3D201230848194321608188220000F0FF
:1050800015FEE1E7054807F033FA2168F1E7C0466D
:105090000300004010030020080300204A03000022
:1050A000F0B5D6464F4646468246C0B500250F00AD
:1050B0000600002915D0244B9946244B98463468A5
:1050C000A3070AD1002C08D0230F06D02168204B5B
:1050D000194202D1CB78F92B08D001350436AF4202
:1050E000EDD11CBC90469946A246F0BD4B461B68CC
:1050F000002B23D01A0008329442F8D35868844613
:1051000062449442F3D201231943434621609988B3
:105110002200404600F0CAFD43469B88642BDCD940
:105120000C200CF07FFF0B4A013513681060036000
:10513000AB0053447D1B43608560D2E7064807F00F
:10514000D7F92168DFE7C0461003002008030020DC
:1051500003000040140300204A03000070B50468F7
:105160000500002C06D02000FFF740FFA988200092
:10517000FFF796FF70BDC046F0B5C646040000B507
:10518000830703D1002801D0030F02D104BC90464D
:10519000F0BD2168214B1942F8D1CB78F92BF5D11C
:1051A0001F4B1B68002B34D01A0008329442F8D3EE
:1051B0005868844662449442F3D201230B4323602F
:1051C000032399438B69002B01D0200098470323C8
:1051D0009846144D144CAB88002B0FD12068002842
:1051E000D4D003688768466823600CF045FF390017
:1051F0003000FFF755FFAB88002BEFD0280000F000
:1052000069FD4246036893439B69002BE3D09847AE
:10521000E1E7064807F06CF92168CEE7030000409B
:105220001003002008030020140300204A0300009C
:10523000F0B5DE4657464E464546E0B59E4B85B036
:105240001B7803909A0705D5D220800007F050F90B
:10525000994B1B7802221343974A1370974B039A7A
:105260001C689F8802231A40904600D011E1002557
:105270000126002F0AD02068304201D0B0430068D8
:105280000135FFF779FF0434AF42F4D8039801F0F9
:105290004DF98B4C2368002B15D08A4B1B685D8D14
:1052A00000F0A6FEAB00461B2568ED184346002B18
:1052B00000D0F7E0002E06D0002401CD0134FFF726
:1052C0005BFFA642F9D1804B00241D687F4B1E78FE
:1052D000002E05D001CD0134FFF74EFFA642F9D8CC
:1052E00000237B4A13607B4B7A4A1B68009301338F
:1052F0001360794B1B689A46002B00D1D8E000233D
:10530000012799469B46009301935346019A5B6897
:1053100094469B0855469C449E0063460835AE194A
:105320000193B54250D2534602932B683B4200D0C2
:105330008CE01A0F062A00D188E0AE4200D894E033
:105340008022D2052C00904600E02368002B10DB61
:105350003B4215D11A0F062A12D04246134208D1F9
:10536000DB78F92B02D05D4807F0C2F8200000F08E
:1053700077FC2000FFF7B2FD80002418A642E4D895
:10538000631B9B1098469A0080231B0613439A4682
:10539000009BC344434501DA43460093FF212800A4
:1053A00006F0B6FE53462B604346012B56DD002324
:1053B0006B604B46002B53D04B46A9465D602500E1
:1053C000AE42B2D8029B9A4653461B689A46002BBF
:1053D0009BD143480368002B14D05B465C083C4BD0
:1053E0001A68002A0ED01368190189098C4206D266
:1053F00048E013681B019B09C9188C4243D35268CB
:10540000002AF6D15B469900019B9A00009B9B0005
:105410003048C16003614069002814D0884212D826
:105420000398C00702D52F480CF0BCF80222224B8B
:105430001B789343204A137005B03CBC90469946B4
:10544000A246AB46F0BD23484161E9E7BB432B6070
:105450002800FFF743FD80002D18B1E72500AFE7D6
:105460001B4BA9461D602500AAE7009B002B03DB10
:1054700080231B062B60A3E780231B062B600023E1
:1054800000939DE70B00E318591A89005218026037
:10549000B8E715480CF086F83A00210013480CF0E4
:1054A00081F8E4E63200290011480CF07BF801E7AE
:1054B000002300220021ABE72C0C00201C0300205D
:1054C00044030020480300203C0300202D0C002052
:1054D00040030020240300201003002049030000A3
:1054E00018030020AC9502008C95020094950200F0
:1054F000A0950200F8B5404E3368002B08D01B6819
:10550000002B67D00220FFF793FE152006F0F0FF76
:105510000021CF20FEF7A8FD802104004901CE2004
:10552000FEF7A2FD050000200CF012FD0027451B30
:10553000002C37D128000CF075FD04002800083835
:105540006060A76183073FD12C4B31685A680132F4
:105550005A609A6812189A60294AC31C1A4080231C
:105560001B061343274AA36013688008E3602300E7
:10557000083318181360244B1860002921D0A14269
:105580001FD80A68002A34D0944207D213000A00B8
:1055900023601460F8BDA342FAD81A001368002BE8
:1055A000F9D1F5E7194BA4029C466044C30BDB0319
:1055B0001C1B002CBEDD20000CF034FD2D1B070051
:1055C000B8E721603460E5E7D220800006F090FF64
:1055D0006068B9E70021CD20FEF746FD0C4BC318EB
:1055E000002B00DC8EE70B4B0B4C9C46604460604C
:1055F000A8E700230A00CBE71003002024030020C3
:10560000FCFFFF7F4003002018030020FF7F000005
:10561000FC7BFFFFF47BFFFF0084002010B5002817
:1056200019D00F4B1B68002B16D01A00083290427D
:10563000F8D359688C4662449042F3D2041F226822
:10564000530F032B03D0074806F052FF2268802334
:105650001B061343236010BD0CF00EFDFBE7C04694
:10566000100300204903000070B5041F22680500E4
:10567000530F032B03D0054806F03AFF226880231E
:105680001B0613432800236070BDC0464903000079
:105690000421024A13780B43137070472C0C00202E
:1056A000F8B54E46DE46574645468023E0B5C61C53
:1056B000B608DB01984200DD8BE04B4B5B68DB05F5
:1056C00000D174E0494B9A46494806F011FF534611
:1056D0001B78012213435246137000F017FF002875
:1056E00003D04368002B00D17AE0424B00279B4651
:1056F000414B99465B461D6800239846002D12D108
:105700001CE03E4806F0F4FE2C68002C02DB3C480E
:1057100006F0EEFE2401A409A41B6B6817D5A84669
:10572000002B0BD01D00002F03D14B461B68AB4252
:1057300038D3AB07E5D12B0FE3D0E5E7002F31D00D
:10574000012F42D0152006F0D3FE0137D2E7002CFE
:105750000AD08022B600A1001206AE190A433260B8
:10576000012C01D0736033004246002A35D05360CB
:1057700000222A60002B08D05B68002B05D09A0716
:105780001CD0D420800006F0B3FE534601221B78C3
:1057900028009343524613703CBC90469946A2465B
:1057A000AB46F8BD0020FFF743FD0137A2E70F4BE2
:1057B0009A461B785A0700D086E78AE71B0FE4D188
:1057C000D420800006F094FEDFE7FFF793FE013758
:1057D00090E7162006F08CFE6FE75A461360C7E785
:1057E000084806F085FE80E700ED00E02C0C002064
:1057F0009203000040030020180300205103000022
:105800004B0300004E030000032310B5C41C9C434F
:10581000201DFFF745FF044B07341C408023DB05A8
:105820001C4310C010BDC046FCFFFFBF10B50028D0
:1058300008D0FFF7E9FF8023021F11689B050B4387
:10584000136010BD0020FCE7F8B51F4B06005B6835
:105850000D00DB051FD100F059FE1C4B1C4F1D60D5
:10586000751BAD10041E3D7019D00C20FFF7CCFF46
:105870008023021F11689B050B431360636803605C
:10588000A3684360E3688360E0600023A6603B7028
:1058900020006360F8BD0F4806F02AFEDBE7182001
:1058A000FFF7B2FF8023021F11689B050B431360B3
:1058B000094B05001B68C460036012230461436147
:1058C00000F02EFE2C00E0E700ED00E03C0300209D
:1058D0002D0C002092030000440300200C4B10B557
:1058E0005B68DB050ED10B4B1B78002B0AD100281F
:1058F0000BD0FFF789FF8023021F11689B050B4324
:10590000136010BD0CF08EFBFBE70020F9E7C046EA
:1059100000ED00E02C0C0020F8B504000D00194B40
:105920001B68002B28D01A0008329442F8D359681B
:105930008C4662449442F3D22800FFF7CFFF060062
:10594000002C17D0002E15D0271F3A68530F032BB9
:1059500003D00D4806F0CCFD3A681201920992007E
:10596000AA4200D92A002100300005F0E9F9200000
:10597000FFF754FE3000F8BD290020000CF0AAFB10
:105980000600F7E7100300204903000070B5002966
:1059900009D0012908DD4C1E051D0121FFF7F6FF86
:1059A0002800013CF8D270BD0122024302488188E0
:1059B00000F07CF9F7E7C0461C03002010B5830710
:1059C00003D1002801D0030F00D110BD034B02000A
:1059D0009988180000F06AF9F7E7C0461C03002018
:1059E00010B5830703D1002801D0030F00D110BDEB
:1059F000FFF798FAFBE7C04610B54068FFF71CFBBD
:105A000010BDC04610B50430FFF7A8FB10BDC0465E
:105A100010B581880C30FFF743FB10BD10B540680E
:105A2000FFF70AFB10BDC04610B504000430FFF7B5
:105A300095FB20000C30FFF791FB10BD012208C838
:105A400010B59343198804398908FFF729FB10BD65
:105A50000220704703207047808880000F30800844
:105A60007047C04602207047052070470023044A53
:105A700013609380D380034A13609380D380704770
:105A80001C0300200803002010B500F0FDFC10BD31
:105A900010B5002801DB00F0EFFC10BD00234381AE
:105AA000038143607047C0467047C046002343816E
:105AB0000381436043820382C360704710B5054A87
:105AC0000100838812688068821A03480BF06AFD1F
:105AD00010BDC046480300209496020010B5010096
:105AE000426802480BF05EFD10BDC046C89502003A
:105AF00010B50100028902480BF054FD10BDC046EC
:105B000044960200F8B5C38804000D008B421AD2F7
:105B10000420002B2DD12E00854221DBB0000CF09B
:105B200081FA0700E088002830D1321A8000920004
:105B30000021381806F0ECFA20680CF09DFA276076
:105B4000E680A580F8BD82889142FAD22368521A75
:105B50009C46880092006044002106F0D9FAF0E7E4
:105B60000600B0000CF05EFA0700E0880028DCD0E8
:105B70000CE058003F2BCEDD0B4A93420DDD581C44
:105B80000A4BFF309842C6D90948C4E78200216811
:105B9000380005F0D5F8E088C7E79800C018032161
:105BA00018F002FCB7E7C046FF010000FEFF00004E
:105BB000FFFF00007047C0467047C046012370B524
:105BC0000A6805009A4313890E00042B07D0104879
:105BD000012210490BF0E6FC0E4806F089FC30006B
:105BE000002D00D170BDE81C8000FFF759FD041E98
:105BF00001D0094B03602000B3682A04A580A3608C
:105C0000920B0C30002106F083FA2000EAE7C04630
:105C10008496020085030000149602000E4B026970
:105C200070B505009A4209D0E2210C480322890090
:105C30000BF0B8FCE220800006F05AFC2888FFF741
:105C40002FFD041E00D005602A88201D043A002183
:105C500006F05EFA200070BDB55B0000849602007D
:105C6000012310B502689A431369984710BDC046D6
:105C7000012310B502689A431369984710BDC046C6
:105C8000012310B5026801009A43128801480BF005
:105C900089FC10BDF8950200034B10B5994201D85C
:105CA000FFF730FF10BDC046FFFF0000084B70B586
:105CB00005000C001600994205D88388994203D24A
:105CC0002B68A400E65070BD0131FFF71BFFF7E71A
:105CD000FEFF00008388002B09D0013B02689BB2C5
:105CE00083809B00D318002218681A607047002038
:105CF000FCE7C046F8B5C78806000C00002F15D198
:105D00000D00032925DC102004250424FFF77CFD69
:105D10000700F088002828D12A1A8000920038183D
:105D2000002106F0F5F93760F480F8BD3F2F19DD4A
:105D3000134B9F420FDD781C124BFF3098421BD94A
:105D4000114803002500844201DA1C001D00AF4207
:105D5000EBDAA000DAE7B800C019032118F024FB41
:105D600083B2EFE7780083B2ECE782003168380055
:105D700004F0E6FFF088CFE783B20004000CE1E70F
:105D8000FF010000FEFF0000FFFF0000C38870B5A8
:105D900005000C0016008B4207D8084B994200D929
:105DA00070BD013189B2FFF7A5FF2A68A3009E509C
:105DB000AB889C42F4D30134AC80F1E7FEFF0000D5
:105DC000C38870B505008B4202D28AB29A4202DAC9
:105DD0008CB2AC8070BD11001400FFF78BFFF8E7A8
:105DE0008388002B09D0013B02689BB283809B0013
:105DF000D318002218681A6070470020FCE7C046DC
:105E0000F8B5828805008A421AD903688E0098196D
:105E10004F1C0468BA4207D80021013A92B2AA8006
:105E20009200D1502000F8BD521A06498C46311D0F
:105E300062449200591822F075FDAA882B68EBE79E
:105E40000024EFE7FFFFFF3FF8B51700828804004A
:105E50000D008A4218D9511CC38889B299420FDAC1
:105E60006B1C9B0020681E1F521B81199200C018DA
:105E700022F058FD23689F51A3880133A380F8BD09
:105E8000FFF738FFA288EBE73A00FFF77FFFF6E75E
:105E900070B50500C3888288016809480BF082FB51
:105EA000EB88002B0BD00024064E2A68A3009958DB
:105EB00030000BF077FBEB880134A342F5D870BDBE
:105EC000589602007C96020010B504000289010079
:105ED00003480BF067FB201DFFF7DAFF10BDC0463B
:105EE000DC950200034B0360002343600381438180
:105EF0007047C04610970200024B036000234360C6
:105F00007047C046E0960200044B036000234360E4
:105F100003814381C360038243827047B0960200CD
:105F2000F8B54746CE4680B507890C004668002F75
:105F300034D033688B423CD0331D002004E004335E
:105F40001A1F1268A24225D00130B842F7D3236845
:105F500020005B6A9847236880461B6A20009847A8
:105F60000024814603E001340436BC421ED2356869
:105F70002B6828005B6A98474045F4D12B682800BD
:105F80001B6A984742460100484622F0BCFC0028A4
:105F9000E9D120000CBC90469946F8BD0B6808007A
:105FA0005B6A9847236820001B6A9847012040429B
:105FB000F0E70020EEE7C0467047C04610B5040089
:105FC0000A00010003480BF0EDFA200006F090FAF9
:105FD00010BDC04684960200014B1B6818697047CB
:105FE00048030020014B1B68986970474803002054
:105FF000014B1B68188C704748030020014B1B683D
:10600000D86B704748030020174B026870B5060034
:106010009A4200D0FEE74368144D188C2B60800034
:10602000FFF704FC2B68124C1A8C002192002060B0
:1060300006F06EF823681C602C680E4B22689A42AA
:1060400000D0FEE7B36822699A42FAD100F022FB41
:1060500020002B6800221C6B002100234030A04749
:1060600000F006FA70BDC046104200004803002050
:1060700044030020708E3B9210B50248FFF7C4FF26
:1060800010BDC046808A0200002801D0830701D0DD
:1060900000207047012203689343DA78F92AF7D188
:1060A0001889063843425841C0B2F2E770B505007E
:1060B0000C20FFF7F5FA041E05D0174B03600023F0
:1060C000436003814381002D08D0AB0706D1012333
:1060D0002A689A431300D278F92A01D0200070BDB3
:1060E0000E4A9342FAD12E89002EF7D02000FFF7F6
:1060F00065FC63899E4204D903DB201D3100FFF754
:10610000F9FD2681B2006968606804F019FE20007C
:10611000FFF766FCE2E7C04610970200B096020067
:1061200070B504000D00002801D0830713D00F487C
:1061300006F0DEF929002000FFF7F2FE051E08DB5D
:106140002900201DFFF75CFE200029000C30FFF71E
:1061500057FE422070BD012302689A431300D27893
:10616000F92AE4D1024A9342E4D0E0E79B0300001D
:10617000B096020070B50E00FEF7B2F804003000D1
:106180000D00FEF7ADF802000B00200029001CF006
:1061900075FAFDF787FC70BD10B5FEF7A1F81BF08E
:1061A000F7FFFDF77FFC10BD10B5FEF799F81BF067
:1061B000A7FFFDF777FC10BD10B5FEF791F81BF0B7
:1061C00085FCFDF76FFC10BD10B5FEF789F81BF0DC
:1061D0004BFAFDF767FC10BD10B5FEF781F81CF017
:1061E000EDF9FDF75FFC10BD10B5FEF779F81CF076
:1061F00029F9FDF757FC10BD10B5FEF771F81CF03A
:1062000041FFFDF74FFC10BDF0B5C64600B50302D7
:1062100082B00D001B0E00D01D00FA230004040CF8
:106220001B01E618300001F093FA002803D002B0F9
:1062300004BC9046F0BDF0232B40102B1CD0202B2B
:106240001DD000229046302B02D00E4806F050F9A7
:10625000200001F061FA0700182022F029FB4346D4
:1062600001930F2304001D40B2B200950E3B39008C
:106270000EF0B2F82000DAE701239846E8E702239F
:106280009846E5E72303000070B50D00012149425F
:10629000FDF7EAFE0400431C04D029002000FFF7AC
:1062A000B3FF70BD014806F023F9F6E78B03000049
:1062B000F8B505000F0016001C0001F049FA00288F
:1062C00000D0F8BD21003800FFF79EFF2100070035
:1062D0003000FFF799FF0600102022F0E9FA0400D1
:1062E000ABB2B288B9880FF021FE002138000EF061
:1062F000A5F8002130000EF0A1F8200001210FF0D8
:10630000A9FD2000DDE7C046012170B54942040027
:106310000420FDF7A9FE0121050049420520FDF7F3
:10632000A3FE20210600CA20FDF79EFE002C0AD005
:10633000012C12D0022C0BD10300320029000320C3
:10634000FFF7B6FF70BD01002800FFF75DFFF9E71A
:10635000044806F0CDF80020F4E701003000FFF714
:1063600053FFEFE78D03000010B52021007CFFF7FD
:106370004BFF10BD10B51023808800F01DFA10BD32
:10638000036810B59B699847431E9841C0B210BD81
:1063900010B50BF05BFF431E9841C0B210BDC04664
:1063A000808870470048704716FCFFFF10B5044B0B
:1063B00000221B6800211C6B0023A04710BDC046B3
:1063C00048030020F0B5CE464746060080B585B0AC
:1063D00000900191029287B21022360C6946124851
:1063E000039304F0ADFC31003800FCF73BFF0400E0
:1063F0003000FDF75FFC8046002C10D00B4B994617
:106400004B461B6800221D6B41460023E068A847ED
:10641000206832003900FCF711FF041EF0D105B0EE
:106420000CBC90469946F0BDD002002048030020E5
:1064300010B5FFF7D5FA0BF0AFFC10BD70B5060034
:10644000054D2B6800221C6B002100233000A04763
:1064500014200BF06FFCF4E74803002010B5034C48
:10646000200006F045F8200010BDC0460BFCFFFFE1
:1064700010B50BF091FC10BD10B50BF05BFC10BD1E
:1064800010B509F035FD10BD10B5041E06D0FFF79C
:1064900095FA034A210003480BF044FB10BDC046A7
:1064A000211E01003D64000010B5041E06D0FFF758
:1064B00085FA034A210003480BF034FB10BDC046A7
:1064C00031640000AD63000010B589B280B20BF0FA
:1064D00053FC10BD054B10B51C68FDF7BBFD044B0C
:1064E0009C4664442018400A400210BD4803002026
:1064F000FF01000010B509F015FD10BD10B50DF03D
:106500008BFD10BD10B50DF097FD10BD034B1B6842
:10651000002B01D0186A70470020FCE7D40A002045
:10652000014B1B6818627047D40A0020F0B54E4634
:10653000DE4657464546E0B53E4B89B099461B6856
:106540000490002B6DD000200BF056F8040003904F
:1065500080000BF067FD05900BF04EF8844203D0ED
:10656000CB20800005F0C4FF039B002B3FDD059B83
:10657000019300239B460293019B1F683E6A002EF5
:106580002CD07069FEF7F8FD0223049A04361340FC
:106590009A464B461B6834689F4232D03868BD68C3
:1065A00009F0D6FC4B461B682D1A641975689F428A
:1065B00007D0BB683868984609F0CAFC4346181AE9
:1065C0002D185346002B20D1A54204D901CCFEF74B
:1065D000D3FDA542FAD8B668002EDAD1019A029B03
:1065E00004320192039A013302939A42C4D105986E
:1065F0000BF042FD09B03CBC90469946A246AB4622
:10660000F0BD53467568002BDED001235B449846ED
:106610002B1B59469B10220007480AF0C3FFC346B4
:10662000D2E701200BF0FEFC079007980BF024FD49
:10663000E0E7C046D40A00204097020010B50B4C9A
:106640002068002800D010BD01F07EF90368084AD8
:10665000DB692060934204D1064805F049FF2068B9
:10666000F1E7012198472068EDE7C0467403002058
:106670005D6400000BFCFFFF10B501F065F904003C
:10668000302022F015F90123002221000DF040FDF9
:1066900010BDC046F0B583B0FFF7EEFF01F0ECF996
:1066A0002F4B1B681F8D002F2CD000252D4E05E091
:1066B000B44213D0B4424ED82560250004200BF01C
:1066C000B1FC0190019B04005B07F1D50BF0D4FCF9
:1066D00008200BF0A7FC0400B442EBD120000BF023
:1066E000CBFC38000BF09EFCA04209D01E4805F000
:1066F000FFFE002D06D02C6828000BF0BDFC250005
:10670000002DF8D119480BF0D3F8194C194E651C1F
:10671000FF3502E00434AC420AD020680028F9D0EA
:1067200003681B68B342F5D004349847AC42F4D1F7
:1067300001F078FA01210D204942FDF795FC00F0A7
:10674000EBFF002803D0036800211B68984701F085
:1067500069F903B0F0BD084805F0CAFEACE7C046D1
:1067600048030020001000202A0300004C030020F2
:10677000D0050020A56300002B03000010B50848D9
:1067800011F040F9074C20000FF05EF9064A074966
:10679000200022F0A2F8064A064B1A6010BDC0463F
:1067A000D00200204C030020B4000020DD5A01007C
:1067B0008C9F020070030020F0B557464E464546B8
:1067C000DE46E0B58DB004000D0016001F00FCF79A
:1067D00049FD00280BD0320029002000FCF756FDAF
:1067E0000DB03CBC90469946A246AB46F0BDBFB248
:1067F0000F2C3FD0282022F05BF882461F4BA1B21D
:10680000AAB200970BF082FC1D4B514618000EF007
:106810000BFF002805D050460BF092FC504622F0AA
:1068200043F8002DD7D1012120004942FCF71AFD81
:10683000071ED0D0A3B29B46104B9946104B9846EA
:1068400010239A4653463A895946009302A84B466C
:106850000BF05CFC02A940460EF0A0FE02A80BF073
:106860006FFC0122386852422100FCF7E7FC071E4A
:10687000E8D1B0E7C02FBDD0D3E7C046C563000064
:106880004C03002000B585B08AB2012381B268466E
:1068900011F096F805B000BD012110B5494202483B
:1068A000FCF7ACFD10BDC0464C97020010B50FF0D0
:1068B0008BF810BD036810B51B6A984701000248A9
:1068C0000AF070FE10BDC04654970200036810B570
:1068D0001B6A0C0098472200010002480AF062FE81
:1068E00010BDC0465C9702000148C000C008704758
:1068F000008000200048704716FCFFFF00487047EA
:1069000016FCFFFF0048704716FCFFFF0020704791
:106910002523C05C243B58407047C0460048704760
:1069200016FCFFFF2423C35C002B01D101487047F4
:106930000148FCE790970200689702000048704702
:106940007C97020070B50D00040040220021280051
:1069500005F0DEFB09F0C0FAA369002B15D0237FF8
:10696000002B1BD1A269637F3F2A11D8A66933434C
:10697000DBB22B703200681C616904F0E1F96369D5
:106980009B196361A3699E1BA66109F0A3FA70BD00
:10699000402B0ED03F223F261343EAE70023237704
:1069A00004332B70216A681C0431042204F0C8F9F6
:1069B000EBE73F263F23DCE7242330B5C35C91B0EF
:1069C0000C00002B2CD113787F2B1AD85378092B6D
:1069D00026D19578002D23D1D378022B20D1D379DD
:1069E00091791B020B43402B1ADC0123C377124B16
:1069F0001B68986913F018F946230020E55211B07E
:106A000030BD5378012B0BD19378002B08D1D3786C
:106A1000012B05D1D37991791B020B43402B01D077
:106A20000648ECE76946FFF78DFF402269462000E3
:106A300013F090F90020E2E7FC0A002016FCFFFFAB
:106A4000242310B5C35C90B00400002B01D110B01A
:106A500010BD0A4B18680CF093F80028F7D004E03A
:106A600040226946A06813F075F969462000FFF7D7
:106A700069FF6B461B78002BF2D1E8E7FC0A002087
:106A8000F8B51500827F04000F00002A23D0002BE8
:106A900023D1154B1E78F6B202E005200BF04AF91F
:106AA0002000FFF7CDFFA369002BF6D1002D12DBEC
:106AB00009F012FAA369002B12D1A56101252377F1
:106AC0006761667709F006FA2000FFF7B9FFA3694E
:106AD0006D42002BE1D10020F8BD044B1E78DAE7AF
:106AE00009F0F8F9DCE7C046FDB50200FCB502008C
:106AF000242370B5C35C90B005006C46002B2DD0EC
:106B000040226946C06813F0ABF8002824DD242336
:106B1000EB5C002B3BD02B6A24781988002925D107
:106B20003F262640181D6B4640183200591C04F0C1
:106B300007F93F212B6A8C431A880020921992B2E0
:106B40001A80002C08D0402C29D0802C29D002217A
:106B50009970100000221A8010B070BD164B4022B0
:106B60001B686946986913F07BF8CEE762B2002A89
:106B70001ADB3F2680222640701852009042D1DD59
:106B8000832040000CF0FCFA2B6A1988CAE70A4BF4
:106B900000221B680949586913F0DCF8BBE79870BC
:106BA000D7E701219970D4E7822040000CF0E8FA81
:106BB0002B6A1988DDE7C046FC0A0020B498020061
:106BC000836970B504000E001500002B1FD1FC2D49
:106BD0000ADD012323773F3366616377A5612000D7
:106BE000FFF72EFF002070BD206A2A003100083018
:106BF00004F0A6F8236A0435043363610023237785
:106C000040336377A5612000FFF71AFFEAE70248E7
:106C100005F06EFCDBE7C0467A0300002423F0B5E4
:106C2000C35C85B00400002B02D1C37F002B49D088
:106C30002000FFF75DFF002844D0256AAA78002ACB
:106C400040D101266B682989EA80A9800021A677B6
:106C5000092B00D1BDE01AD8032B00D1ADE034D808
:106C6000012B00D195E0022B00D08EE06C4BDD684B
:106C70006C4B6A1EFF3A9A4200D9C4E0280021F00A
:106C8000B1FE020029002000FFF79AFF1BE0664AD0
:106C9000934264D042D8102B5BD0644A934200D018
:106CA00073E0634B634A1A6009F02EF9236A0433D8
:106CB000636100232377403363773C3BA36120006B
:106CC000FFF7BEFE002005B0F0BD042B52D0082B0C
:106CD0005BD1102803D0C52040000CF051FA2E697A
:106CE0003F2E00D992E02900E8680831731E002E7B
:106CF00005D00A00551A2D5820C2013BFAD2236A4A
:106D0000B600043363610023043623774033200048
:106D10006377A661FFF794FE0020D4E7464A9342CA
:106D20000AD0464A934230D1454B20001A68454B61
:106D30001968FFF745FFC6E7FFF75AF9424B029083
:106D40001B68082202A9200001930393FFF738FF74
:106D5000B9E73E49200004C9FFF732FFB3E73A4BD9
:106D6000EA681B6804351A60394B65611E7021772B
:106D70004023A1E7374B1A60BFF34F8F364A374B9A
:106D8000DA60BFF34F8FC046FDE70123EB802B0095
:106D90008DE70223AB60FE336B61314BEA60AB6180
:106DA00040232A6163770435283B20006561217701
:106DB000A361FFF745FE002085E72A4A254B1A60AC
:106DC000BFF34F8F244A254BDA60BFF34F8FC04685
:106DD000FDE72A692B0091001031884205D0C220BE
:106DE00040000CF0CDF92A69236AE868511E143579
:106DF000002A00D15BE72A001768561B375004327F
:106E00000139F9D253E70322174D3BE7C620400072
:106E10000CF0B6F92900E8680831731E69E7C0462E
:106E2000F01F0000FF1E00003159A52793BD20115F
:106E3000047800207FACEBF0E066FC5310159070F6
:106E4000800300207C03002044030020D0060020A3
:106E50002E0C0020FC7F00200400FA0500ED00E06D
:106E6000882BED68EF6926F0A4970200F0B5C646BE
:106E7000134B00B59846134D134E144F2B78002B2F
:106E800011D1336A04225F6041463000FFF798FE5B
:106E900014242B78002BF1D13220013C0AF04AFF58
:106EA000002CF6D1E9E70A4C2068002803D00BF04B
:106EB000E3F80023236000232B7004BC9046F0BD50
:106EC000780300202E0C0020F0030020FDF99236FC
:106ED0007C030020084A0023083202600162242259
:106EE00001218360C360037103618377C377815499
:106EF000013283547047C046C4970200F0B50400C5
:106F0000C56983B029002A480AF04CFBE369002BCD
:106F10001BDB6068A91E6B882A8809880190A0691C
:106F2000009024480AF03EFB2B88234A934204D069
:106F3000D022D201934210D0FEE7E3690233E3612D
:106F40006368032B29D003B0F0BD03225B005B080C
:106F5000E3611A4B1B681A60F5E72600E369184FD6
:106F6000DA1CA261174A02331360174B2436174DFF
:106F700038689B1B2B60002802D00BF07DF82B6833
:106F800018000BF04FF82A683100386003F0D8FE83
:106F900001220F4B9343E361D5E70022074B1B68A7
:106FA0001A608023A2691B061343A361CBE7C04686
:106FB000E0970200E89702004068000044030020C8
:106FC0007C03002078030020008000208003002044
:106FD0006D6E000000B56846FFF790FF00BD70477A
:106FE000F8B505000E00002826D0002924D01C4F3B
:106FF0003C68002C03D10CE0246C002C09D02368E1
:107000009D42F9D163689E42F6D116480AF0CAFA49
:1070100010E015480AF0C6FA442021F049FC0400AB
:107020000560466032000830290013F007F93B681C
:107030003C6023642000F8BD0C480AF0B3FA01213B
:1070400019204942FDF710F800F066FB0121050008
:1070500049421820FDF708F800F05EFB0600C6E77D
:1070600084030020389802001C9802000098020057
:1070700010B5FFF7B5FF083010BDC046F0B5C646E5
:1070800000B5060082B00C000020110017009846E1
:10709000FCF748FA43460500020030006400009304
:1070A00008323B00A1B2083013F086F84342584141
:1070B00040420540280002B004BC9046F0BDC046E6
:1070C00010B51C0082B04900536889B208320094A0
:1070D000083013F02FF802B010BDC04670B5094D4E
:1070E0002868002800D070BD0D30FF3021F0E0FB93
:1070F000040011F065FB201D21000DF0EBFE2C605B
:107100002000F0E788030020F0B5050083B00C00F4
:10711000FFF7E4FF2B6806001B6A280098472B68DE
:1071200007005B6A28009847390002B2684610F0F1
:1071300033FD694601A810F04BFD22006368083258
:1071400001A9301D0EF006F801A810F0E7FC684612
:1071500010F0E4FC03B0F0BD70B5040082B0FFF79E
:10716000BDFF236805001B6A2000984723680600BE
:107170005B6A20009847310002B2684610F00CFDAF
:10718000694601A810F024FD281D01A90DF006FF95
:10719000040001A810F0C2FC002C0ED02000202119
:1071A0001030FCF7BFF905002000FEF737FA6846FB
:1071B00010F0B4FC280002B070BD0025F7E7C0460F
:1071C00070B5040082B0FFF789FF236805001B6AD1
:1071D00020009847236806005B6A2000984731002A
:1071E00002B2684610F0D8FC694601A810F0F0FC25
:1071F00001A9281D0EF04CF801A810F08FFC68467C
:1072000010F08CFC02B070BD10B5FFF767FF0430C2
:107210000EF044F810BDC04670B5D31872B615789C
:107220000132802441600326013EFDD12C4200D171
:1072300001600626013EFDD10160641004D0E4B275
:107240000226013EFDD1EDE79A4200D2E7E762B6A1
:1072500070BDC04610B5041E0BD001211320494259
:10726000FCF702FF00F058FA201A44426041C0B215
:1072700010BD0020FCE7C046C823F0B5DE465746E7
:107280004E46454694469946E0B557006744B94492
:1072900087B0804648460491039221F025FB4A4678
:1072A00000210400002704F033FF802380226420A3
:1072B00003998F421FDA261831781943317059101B
:1072C00041D0C9B28C4669469B10CB759A46CB7D9E
:1072D0000499C95D114203D0654631780D4335707C
:1072E0005146002925D10130521038D00399D2B22D
:1072F00040238F42DFDB00220021404600F0EEFBFE
:10730000036805001B681A49984700222B68009201
:10731000DE684A46002321002800B047200021F003
:10732000C3FA07B03CBC90469946A246AB46F0BDB6
:107330004023521017D05910D2B2CBB20029B7D186
:1073400001308023B4E7049B0130DB5D1342EFD0B2
:1073500040218A46403140238C462618BCE701373D
:1073600080324023A4E75910CBB201378022E5E7F1
:10737000009F2400F8B505000F001600182A18D841
:107380002B6800211B6828002C7C98471F230121B3
:10739000234099400C4B60119C46C001604433006F
:1073A0003A00FFF739FF2B6800211B682800984737
:1073B000F8BDFFF74FFF0028E2D032003900280067
:1073C000FFF75AFFF4E7C04614440041F0B5D64633
:1073D0004F4646461D000368C0B50C001B680021DF
:1073E000070020269847236801211B682000984742
:1073F000236800211B682000013E9847002EF2D12F
:10740000A846089B43449946089B002B1FD043463F
:107410001B7808269A468025514629404B1E9941E3
:107420003B6838001B689847236801211B682000CF
:107430009847236800211B682000013E98476D088B
:10744000002EE9D101239C46E044C145DFD13B68D1
:1074500001211B68380098472025236801211B68FB
:1074600020009847236800211B682000013D9847B1
:10747000002DF2D11CBC90469946A246F0BDC046F4
:10748000F0B5CE46474680B50A0083B00021984645
:1074900000F024FB002405000368184E0094DF6808
:1074A000042200233100B8472B680094DF680A9A51
:1074B000002341462800B8472B680094DC6804226A
:1074C000002331002800A0470A9BDF0810D00C4B96
:1074D000002499460023984642462B680092DE68B5
:1074E00004220023494628002034B047BC42F3D38D
:1074F00003B00CBC90469946F0BDC0468C030020FA
:10750000BC000020F0B5040083B00D0017001E0081
:10751000002810D000290ED0002B0CD0089B002B87
:1075200009D0182B09D8089B3A0000932900330092
:107530002000FFF74BFF03B0F0BDFFF78BFE0028E4
:10754000F1D0089B3A000093290033002000FFF798
:1075500097FFF0E710B582B000280BD0002B09D0C0
:107560005C68002C06D00833042A05D019002200DC
:10757000FFF700FF02B010BD0094FFF7C3FFF9E76B
:10758000F0B5CE464746012180B583B002AF4942EF
:107590001420FCF769FD00F0BFF800210500C820A9
:1075A000FCF762FD002D13D0002811DB6A46440071
:1075B0002418E31DDB08DB00D31AE8469D4602AE23
:1075C00022000021300004F0A3FD002C40D1C5466C
:1075D000012108204942FCF747FD00F09DF80121F8
:1075E000060049420720FCF73FFD00F095F8002116
:1075F0008046C920FCF738FD002E23D04346002BDF
:1076000020D000281EDD6A468400E31DDB08DB0075
:10761000D31AE9469D4602AD22000021280004F05D
:1076200077FD0023E022002C03DDEA5404339C4262
:10763000FBDC802200942B00520041463000FFF713
:10764000C5FECD46BD4601B00CBC90469946F0BD86
:10765000220031002800FFF78DFEC546B8E7C0467E
:10766000F0B5C646040400B5240C3F2C2CDC194DA3
:107670002B5D002B09D0184A126818498C466344C8
:107680009B00985804BC9046F0BD134B144E98468E
:107690003178186801318900FEF73EF943461860D9
:1076A000202021F005F92100E2B264310323070014
:1076B00013F0FEF8434631781A684B1CDBB28900A0
:1076C00033708F502B55D8E7E320800004F010FF73
:1076D000CDE7C04690030020D0030020FFFFFF3F0E
:1076E0002F0C0020012110B54942FCF7BDFCFFF72B
:1076F000B7FF10BD70B504000D003F2803D9E3208B
:10770000800004F0F5FE2800FFF7AAFF014B5A5D48
:107710001A5570BD9003002010B5002806DBFF2825
:1077200004D00004000CFFF79BFF10BD0020FCE715
:10773000012110B54942FCF797FC002806DBFF2821
:1077400004D00004000CFFF78BFF10BD0020FCE705
:10775000084B10B55C1CFF3402E00433A34207D091
:107760001A68002AF9D091888142F6D1100010BD24
:107770000022FBE7D005002010B5FFF7D9FF10BDB0
:1077800010B501000020FBF7CDFE10BD014B98683D
:107790007047C046D002002010B503685B69984767
:1077A00010BDC04610B50368DB68984710BDC046E1
:1077B000036810B55B689847431E9841C0B210BD7E
:1077C00010B503681B68984710BDC04670B50D0022
:1077D0001600040003680321DB6C9847320029007F
:1077E00020891023FEF7E8FF70BDC04670B5050084
:1077F0000C00160002290EDB03290DDD05290ADC29
:1078000003210368DB6C2800984728891023320085
:107810002100FEF7D1FF70BD03680221DB6CF2E7A7
:10782000F0B504394F464646D6464B424B41914649
:10783000C0B5984606000CF0FFFB4B4604000D0057
:10784000DF1706E00CF0F8FB001BA941B9421FD876
:107850001CD0336830005B68984782464045F1D1C0
:107860000CF0EAFB804606E00CF0E6FB001BA941A9
:10787000B9420DD812D0336830005B689847824512
:10788000F2D00CF0D9FB4346C01A02E08145E0D2A9
:1078900000201CBC90469946A246F0BD8145EAD224
:1078A000F6E7C04610B50123002903D001394B4249
:1078B00059414B0002681900126C904710BDC04638
:1078C00010B503681B6E984710BDC046FA2210B56C
:1078D0000368D2001C69014BA04710BDDC05000005
:1078E00010B50368DB6D984710BDC0467047C046B1
:1078F00070B50D0001214942FCF7B6FB03001E3BA9
:107900000400012B00D970BD0021CB20FCF7ACFB9B
:10791000002811D11F231A00E1170A40C90E1219BD
:1079200064181C40074B52119C460223641AD20172
:10793000A41864442370E6E729002000FFF7DAFE6C
:10794000E1E7C04640440041F0B5DE4645465746B3
:107950004E46E0B52F4983B0DA20FCF785FB0121C4
:10796000050049422C20FCF77FFB01284ED0002364
:107970009C46294B29481B6818229A4601238346B6
:1079800099462900D140CEB2002E0ED0B4450CD07D
:10799000132E0AD00124142305E0671C9E4214D044
:1079A0003C00FB001B5C002BF7D1083A13000833A6
:1079B000E7D1E720800004F09BFD002003B03CBC31
:1079C00090469946A246AB46F0BD4F465346A74067
:1079D0003B42EAD1E4005C44636898461B889B07FD
:1079E000E3D40F230E48194009F0DCFD182020F0E5
:1079F0005FFF05006278414611F040FE064B28000B
:107A00001B681F430193044B1F60D7E712239C465A
:107A1000AFE7C04621202215D40300206098020061
:107A20005098020010B50124644221009620FCF712
:107A30001BFB01001420FFF75BFF21009720FCF7E0
:107A400013FB01001620FFF753FF21006620FCF70F
:107A50000BFB01001A20FFF74BFF0448FBF784FDE6
:107A6000034800F00FF9FFF78BFD10BDA10D0C00CE
:107A7000ED780000002070477047C046F0B5C6465C
:107A8000154F0500386800B50E009046002803D158
:107A90000EE0806D00280BD003689D42F9D1436849
:107AA0009E42F6D18368984513D0806D0028F3D1AB
:107AB0005C2020F0FDFE43460400836005604660C4
:107AC00032000C30290013F0C1FC20003B683C6000
:107AD000A36504BC9046F0BDD803002010B5FFF7A5
